:020000040800F2
:1000000000000220B1240008FF2400080125000898
:10001000032500080525000807250008000000004A
:10002000000000000000000000000000092500089A
:100030000B250008000000000D2500080F25000812
:1000400013250008152500081725000819250008A4
:100050001B2500081D2500081F2500082125000874
:100060002325000825250008272500082925000844
:100070002B2500082D2500082F2500083125000814
:1000800033250008352500083725000839250008E4
:100090003B2500083D2500083F25000841250008B4
:1000A0004325000845250008472500084925000884
:1000B0004B2500084D2500084F2500085125000854
:1000C0005325000855250008572500085925000824
:1000D0005B2500085D2500085F25000861250008F4
:1000E00063250008652500086725000869250008C4
:1000F0006B2500086D2500086F2500087125000894
:100100007325000875250008772500087925000863
:100110007B2500087D2500087F2500088125000833
:100120008325000885250008872500088925000803
:100130008B2500088D2500088F25000891250008D3
:1001400093250008952500089725000899250008A3
:100150009B2500089D2500089F250008A125000873
:10016000A3250008A5250008A7250008A925000843
:10017000AB250008AD250008AF250008B125000813
:10018000B325000810B5054C237833B9044B13B1DF
:100190000448AFF300800123237010BD80000020CD
:1001A0000000000008580008084B10B51BB10849B2
:1001B0000848AFF300800848036803B910BD074B37
:1001C000002BFBD0BDE81040184700BF0000000026
:1001D0008400002008580008800000200000000073
:1001E000154B002B08BF134B9D46A3F5803A002109
:1001F0008B460F461348144A121A04F007FF0F4BA0
:10020000002B00D098470E4B002B00D098470020C1
:10021000002104000D000D48002802D00C48AFF367
:10022000008004F0CDFE2000290001F0E9FE04F07A
:10023000B3FE00BF00000800000002200000000024
:100240000000000080000020F00F002000000000EF
:100250000000000008B500F0C7F8012008BD00BF8D
:1002600008B5642000F080F808BD00BF08B500F0B4
:1002700081F808BD00B5C7B04FF48C720021684604
:1002800004F0C4FE6946094804F062FD40B9009BD1
:1002900043B19DF8080080F01000C0F3001002E0A8
:1002A000002000E0002047B05DF804FB3850000853
:1002B000004870473850000808B50748002380F808
:1002C00028320A22054904F037F918B90122024BF5
:1002D00083F8282208BD00BF9C0000204850000879
:1002E00070B50E4B93F82832012B02D10B4804F065
:1002F00063FC02F0A7F900F16406094D402403E015
:1003000002F0A0F9864205D32146284601F004FEFA
:100310000028F5D0034804F03BFD70BD9C00002090
:10032000001001403850000808B5044B93F82832FB
:10033000012B02D1014804F03FFC08BD9C000020C5
:1003400008B5084B93F82832012B0AD1054904F06F
:100350009DFD002805DA0348002380F8283204F0C8
:100360002BFC08BD9C000020014B1880704700BF8B
:10037000CA02002010B502F065F9164B1B689842BE
:1003800027D3154C0221204601F01EFC01212046F6
:1003900001F01AFC0421204601F016FC0F4B1B78DB
:1003A00043B901220D4B1A700D4B1988204601F0FC
:1003B0000DFC07E00022094B1A70094B198806480A
:1003C00001F002FC02F03EF9064B1B881844014B79
:1003D000186010BDCC02002000000240C8020020BE
:1003E00000000020CA02002008B50721014801F0E2
:1003F000EDFB08BD0000024028B9044B1878B0FAA4
:1004000080F0400970470120704700BFD0020020F3
:1004100058B908B5084B1B78012B08D000F0A2FE94
:1004200038B90122044B1A7008BD01207047002022
:1004300008BD012008BD00BFD002002000BB10B5E0
:1004400014460846012B0DD84FF40072610200F0EB
:10045000DDFE044601F086F90028FBD1201C18BF00
:10046000012010BD4FF40072610200F081FF0446CC
:1004700001F078F90028FBD1201C18BF012010BD25
:100480000420704700BB10B514460846012B0DD858
:100490004FF40072610200F0D7FF044601F062F9E8
:1004A0000028FBD1201C18BF012010BD4FF40072A2
:1004B000610201F07FF8044601F054F90028FBD1F5
:1004C000201C18BF012010BD042070470420704775
:1004D000F0B583B001218C2001F0E0FB2B4C0C2205
:1004E0000821204601F074FB0C220921204601F06E
:1004F0006FFB0C220A21204601F06AFB0C220B2123
:10050000204601F065FB0C221146204601F060FBFD
:100510001F4F0C220221384601F05AFB4FF4706342
:10052000009301258DF8055002238DF80430002634
:100530008DF806608DF807506946204601F0F6FAFE
:10054000042300936946384601F0F0FA4FF48053D3
:1005500000938DF807606946204601F0E7FA4FF4F2
:10056000005300938DF804608DF8075069460948E0
:1005700001F0DCFA29464FF4006001F09DFB2946AA
:100580004FF4800001F08AFB03B0F0BD0008024088
:10059000000C0240001C024030B591B00546214CD1
:1005A0004FF0FA51204601F0D7F90021204601F022
:1005B000BBF9204601F0E2F84FF0006301931A4BBB
:1005C00002930395402304930023059306934FF46D
:1005D000806207924FF4805208924FF48042099251
:1005E0000A934FF440330B9304230C9303230D938E
:1005F0004FF400030E934FF400130F9301A920460C
:1006000001F066F901221021204601F0BFF92021F6
:10061000204601F095F90121204601F085F911B03D
:1006200030BD00BF58640240802C014030B591B00D
:100630000546204C4FF0FA51204601F08DF900217B
:10064000204601F071F9204601F098F84FF0006360
:100650000193194B0293039500230493059306938A
:100660004FF4806207924FF4805208924FF4804218
:1006700009920A934FF440330B9304230C93032302
:100680000D934FF400030E934FF400130F9301A941
:10069000204601F01DF901221021204601F076F9D3
:1006A0002021204601F04CF90121204601F03CF9BF
:1006B00011B030BD58640240802C014008B5104B89
:1006C0005B6B13F0450F04D10D4A536B13F0450FCC
:1006D000FBD013F0040F04D0042001F0A9FB032089
:1006E00008BD13F0010F04D0012001F0A1FB01208F
:1006F00008BD40F2FF5001F09BFB002008BD00BF89
:10070000002C014010B50446464B5B6B13F0450FBF
:1007100004D1444A536B13F0450FFBD013F0040F80
:1007200004D0042001F084FB032010BD13F0010F5E
:1007300004D0012001F07CFB012010BD01F026FB5C
:10074000A04246D140F2FF5001F072FB002001F0C0
:1007500023FB354B0340002B3DD000283DDB10F040
:10076000804F3CD110F0005F3BD110F0805F3AD158
:1007700010F0006F39D110F0806F38D110F0807F09
:1007800037D110F4000F36D110F4800F35D110F4AA
:10079000001F34D110F4801F33D110F4002F32D158
:1007A00010F4802F31D110F4003F30D110F4803F8D
:1007B0002FD110F4004F2ED110F4804F2DD110F412
:1007C000005F2CD100F00800002814BF1A20002080
:1007D00010BD102010BD002010BD1C2010BD092030
:1007E00010BD0A2010BD0B2010BD0C2010BD0D2027
:1007F00010BD0E2010BD0F2010BD102010BD112007
:1008000010BD122010BD132010BD142010BD1520E6
:1008100010BD162010BD172010BD182010BD1920C6
:1008200010BD00BF002C014008E0FFFD2DE9F041A4
:1008300082B00446002001F0AFFA10F0007F40F0D3
:10084000EA80002300930193794808220260102572
:10085000456040228260C3604FF48063036101F011
:100860007FFA2846FFF74EFF002840F0DC807048F2
:10087000704B1B68AB4003603725456040238360A5
:100880000023C3604FF48063036101F069FA2846D6
:10089000FFF738FF002840F0C78067484FF0FF336C
:1008A000036008234360302383600223C360002574
:1008B00005610123436101F07BFA5D480560332641
:1008C000466040238360C5604FF48063036101F09C
:1008D00047FA3046FFF716FF002840F0A680E846AA
:1008E000564E40F22A6507E0384601F097FA28B1E3
:1008F00001F074FA48F8040B4FF40017736B2B42A5
:10090000F2D0082001F08AFA20B1082001F090FA14
:1009100004208AE0022001F081FA20B1022001F0D7
:1009200087FA022081E0202001F078FA20B120200F
:1009300001F07EFA062078E04FF4007001F06EFAC4
:1009400028B14FF4007001F073FA07206DE040F217
:10095000FF5001F06DFA009B1A0E42EA03611A0281
:1009600002F47F020A431B0A03F47F431343012C62
:1009700029D113F4802F50D02D482E4B1B681B0417
:10098000036037244460402383600023C3604FF436
:100990008063036101F0E4F92046FFF7B3FE00280D
:1009A0003DD1234802230360062444604023836032
:1009B0000023C3604FF48063036101F0D1F9204646
:1009C000FFF7A0FE31E013F4803F29D01848194BFF
:1009D0001B681B04036037244460402383600023AA
:1009E000C3604FF48063036101F0BAF92046FFF75A
:1009F00089FEB8B90E4800230360062444604022F3
:100A00008260C3604FF48063036101F0A9F920465E
:100A1000FFF778FE09E00E2007E0252005E004E05E
:100A2000252002E001E000E0FFE702B0BDE8F08130
:100A3000500F0020F8020020D80F0020002C0140A9
:100A400000B583B001238DF807304FF400510648FC
:100A500001F0B4F810B100238DF807309DF80700BD
:100A600003B05DF804FB00BF001C02402DE9F04F0D
:100A700083B000248DF8074089487623037504600D
:100A800044608460C460046101F03EF9032001F019
:100A900059F9012001F050F98248046044608460F3
:100AA000C4604FF48063036101F05AF94FF480345D
:100AB000802501E0013C0BD0284601F0AFF9002869
:100AC000F8D03CB140F2FF5001F0B2F9002302E04F
:100AD000032300E003238DF807309DF8073003F06F
:100AE000FF041BB19DF80700C0B2D6E06D484FF47B
:100AF000D573036008234360402383600023C360F1
:100B00004FF48063036101F02BF9674B5A6B12F0CD
:100B1000450F0BD14FF480336349013B4A6B12F010
:100B2000450F02D1002BF8D103E013B112F0040FEE
:100B300004D0042001F07CF9032405E012F0400FFA
:100B400002D0402001F074F98DF807409DF807307D
:100B500013F0FF0F05D10122544B1A604FF0804B68
:100B600012E050480024046037254560402383602C
:100B7000C4604FF48063036101F0F2F82846FFF788
:100B8000C1FD8DF80700A3464648002303603724C3
:100B9000446040228260C3604FF48063036101F0CF
:100BA000DFF82046FFF7AEFD8DF807009DF807300F
:100BB00013F0FF0F6ED100263A4CB046B2464FF00C
:100BC0003709394DC4F800A0C4F804904023A3604D
:100BD000C4F80CA04FF480632361204601F0C0F8F4
:100BE0004846FFF78FFD8DF807009DF8073003F0AA
:100BF000FF071BB19DF80700C0B24EE04BF0004369
:100C000043F480132360292363604023A360C4F866
:100C10000C804FF480632361204601F0A1F86B6BD8
:100C200013F0450F03D16B6B13F0450FFBD013F09E
:100C3000040F04D0042001F0FBF8032703E040F286
:100C4000FF5001F0F5F88DF807709DF8073013F0AC
:100C5000FF0F03D09DF80700C0B21EE0404601F030
:100C60009BF80136002804DB4FF6FF739E42A9D1A2
:100C700003E04FF6FE739E4206D91B238DF8073022
:100C80009DF80700C0B208E010F0804F02D00222A9
:100C9000064B1A609DF80700C0B203B0BDE8F08FA4
:100CA000C00F0020500F0020002C0140E402002063
:100CB00038B501F04DF8002800F09A80544B1B68BD
:100CC000042B00F097805348002303600222426007
:100CD000C0228260C3604FF48063036101F040F87A
:100CE000FFF7ECFC002840F0878001F055F84A4CF3
:100CF0002060042001F050F86060082001F04CF8FA
:100D0000A0600C2001F048F8E060414B1B68022B0A
:100D100001D9062B41D13F480023036003224260E2
:100D200040228260C3604FF48063036101F018F8D1
:100D30003A4B5B6B13F0450F04D1384A536B13F0F9
:100D4000450FFBD013F0040F04D0042001F070F81D
:100D5000032038BD13F0010F04D0012001F068F822
:100D6000012038BD01F012F8032849D140F2FF50AC
:100D700001F05EF8002001F00FF810F4604F01D18F
:100D8000030C0BE010F4005F3CD110F4804F3BD11A
:100D900010F4004F3AD1012300E001231C4A1268ED
:100DA000042A2AD01E4A13601A481B040360092330
:100DB0004360C02383600023C3604FF480630361FA
:100DC00000F0CEFFFFF77AFC0446C0B900F0E4FF64
:100DD000144D2860042000F0DFFF6860082000F058
:100DE000DBFFA8600C2000F0D7FFE860204638BD8C
:100DF000252038BD002038BD38BD002038BD38BDA5
:100E0000102038BD132038BD102038BD0F2038BD4C
:100E1000E4020020500F0020E8020020002C0140D6
:100E2000F8020020D4020020F0B403469F4A146860
:100E300080F856409E4A1268A0F854209D4D2A68BA
:100E4000100EC1B28E091E70C0F38300587001F0FD
:100E500003019970C2F30741D970C2F307211971D8
:100E6000D2B25A7169680A0E1201DA80C1F30740E2
:100E7000DA8892B242EA1012DA8000F00F0018729B
:100E8000080AC2B2D5095D72C0F380159D72C0F325
:100E90004015DD72C0F300151D7300255D73012C34
:100EA00040D8800200F4406018611A69890001F49A
:100EB0007F71114319617F4A9268100EC1B21C699B
:100EC00044EA91141C61C0F3C200187501F00701D7
:100ED0005975110CC1F342109875C1F38200D87591
:100EE000490001F006011976C2F30722197E41EA92
:100EF000D21119761D69187E1C7AE4B2012101FA1B
:100F000004F41C65023001FA00F0C717A0FB0401CD
:100F100004FB07116C1CA0FB046704FB0177C3E909
:100F200012671CE0022C1AD1090401F47C1119612A
:100F3000604A92681969100E41EA00211961196925
:100F4000C2F3074001431961C2F307221969013155
:100F5000C90499640021D9644FF400711965C2F382
:100F600080115976520002F07E029A765148027A38
:100F7000997E41EAD211997602F07F02DA76C16851
:100F80000A0ED0091877C2F341105877C2F38200D5
:100F90009877920002F00C02DA77080CC2B2DC7F7C
:100FA00044EA9214DC77C0F3401083F8200000205C
:100FB00083F8210002F0010283F822200A0AD4B249
:100FC000E50983F82350C2F3801583F82450C2F357
:100FD000401583F82550C2F3001583F82650C2F35C
:100FE000810283F8272004F0030483F82840C1F32A
:100FF000460183F82910012483F82A402E490A6803
:10100000150E83F82C50C2F307452D02DD85DD8DCA
:10101000AEB2C2F307253543DD8512061A634A686E
:101020001D6B160E45EA06451D631E6B150A05F479
:101030007F4535431D631D6BC2F3072635431D6392
:10104000D2B283F834208A68150E83F83550150C17
:101050002D069D639E6B150205F47F0535439D6348
:101060009D6B120202F47F422A439A63CA68996B0D
:1010700041EA12619963110C93F83C60C1F30315C6
:10108000354383F83C50090201F47061D987D98F48
:101090008DB2C2F307212943D987C2F3460283F8F0
:1010A000402083F84140F0BC704700BFE4020020BC
:1010B000F8020020D4020020E80200201C4B1B682C
:1010C000032B2CD0022B2CD8B0F5805F2BD010B581
:1010D000B0F5006F12D10120FFF7A8FB044620BB3A
:1010E0001448002303750360436083604FF400627B
:1010F000C260036100F008FE204610BD0020FFF72B
:1011000095FB044690B90B480023037503604360C8
:101110008360C360036100F0F7FD204610BD272007
:101120007047002070472720704710BD10BD00BFDA
:10113000E4020020C00F002010B5094B18600724FE
:101140005C6040229A600022DA604FF480621A618B
:10115000184600F005FE2046FFF7D4FA10BD00BF88
:10116000500F002000B583B000238DF80730FFF743
:10117000AFF900F0BDFDFFF779FC8DF807009DF891
:10118000073013F0FF0F03D09DF80700C0B236E020
:10119000FFF78EFD8DF807009DF8073013F0FF0F65
:1011A00003D09DF80700C0B229E01648002303755C
:1011B000036043608360C360036100F0A5FD1248D3
:1011C000FFF732FE8DF807009DF8073013F0FF0F90
:1011D00007D10D4BB3F854000004FFF7ADFF8DF8B5
:1011E00007009DF8073013F0FF0F05D14FF40060A2
:1011F000FFF764FF8DF807009DF80700C0B203B049
:101200005DF804FBC00F0020680F00202DE9F041BD
:1012100007460D46164600234E4A13704E4A136089
:101220004E4A13604E4AD3624E4B1B68022B04BFDA
:101230004D0A4FF400764C48066010244460402369
:1012400083600023C3604FF48063036100F088FD76
:101250002046FFF757FA002877D144484FF0FF3374
:1012600003604660902383600223C360002606610A
:101270000123436100F09CFD3B480560112444605C
:1012800040238360C6604FF48063036100F068FD13
:101290002046FFF737FA002859D1314E40F22A652F
:1012A0000DE0204600F0BAFD58B13C1F07F11C08C4
:1012B00000F094FD44F8040FA045F9D120374FF415
:1012C0000044736B2B42ECD0082000F0A7FD28B13E
:1012D000082000F0ADFD0420BDE8F081022000F000
:1012E0009DFD28B1022000F0A3FD0220BDE8F081A1
:1012F000202000F093FD28B1202000F099FD062069
:10130000BDE8F0814FF4007000F088FD60B14FF44B
:10131000007000F08DFD0720BDE8F08100F05EFD5B
:1013200047F8040B013C03E04FF0FF344FF4001585
:10133000284600F073FD08B1002CEFD140F2FF50B9
:1013400000F076FD0020BDE8F081BDE8F081BDE849
:10135000F08100BFD1020020FC0200200003002029
:10136000002C0140E4020020500F0020D80F002084
:101370002DE9F04180460D4614461F4600222B4BB6
:101380001A702B4B1A6001212A4B19602A4BDA6222
:101390002A4B1B68022B04BF6D0A4FF400742848C7
:1013A000046010264660402383600023C3604FF42E
:1013B0008063036100F0D4FC3046FFF7A3F980BBE3
:1013C00020484FF0FF33036007FB04F44460902390
:1013D00083600223C360002707610123436100F09B
:1013E000E7FC174805601225456040238360C7600D
:1013F0004FF48063036100F0B3FC2846FFF782F9E5
:10140000054680B9012140F22A3000F0F9FC0120A4
:1014100000F0F0FC21464046FFF708F92846BDE8F9
:10142000F081BDE8F081BDE8F08100BFD10200206D
:10143000FC02002000030020002C0140E4020020F8
:10144000500F0020D80F00202DE9F04706460D462A
:10145000002351490B7051490B6051490B605149B0
:10146000CB62514B1B68022B04BF6D0A4FF4007214
:1014700017464E48026010244460402383600023D6
:10148000C3604FF48063036100F06AFC2046FFF7FD
:1014900039F9002879D14548056018244460402373
:1014A00083600023C3604FF48063036100F058FC45
:1014B0002046FFF727F9002869D13D484FF0FF3358
:1014C00003604760902383600024C46004610123AB
:1014D000436100F06DFCA046324D40F21A6425E0F5
:1014E000384600F09BFC18B3C8F5007ABAF11F0F1C
:1014F00010D85FEA9A0A19D0B146002759F8040BB0
:1015000000F072FC0137BA45F8D14FEA8A0A564416
:10151000D0440BE0371F06F11C0957F8040F00F008
:1015200063FC4F45F9D1203608F120084FF480477D
:101530006B6B2342D4D0082000F070FC28B1082047
:1015400000F076FC0420BDE8F087022000F066FC85
:1015500028B1022000F06CFC0220BDE8F0871020CA
:1015600000F05CFC28B1102000F062FC0520BDE812
:10157000F0874FF4007000F051FC50B14FF4007050
:1015800000F056FC0720BDE8F087BDE8F087BDE815
:10159000F0870020BDE8F087D1020020FC02002087
:1015A00000030020002C0140E4020020500F002026
:1015B000D80F00202DE9F84381460C461D46002334
:1015C00043490B7043490B6001204349086043497C
:1015D000CB62434B1B68022B04BF640A4FF40072BA
:1015E000174640480260102646604023836000236F
:1015F000C3604FF48063036100F0B2FB3046FFF735
:1016000081F800285BD13748374B1B68B340036033
:101610004FF03708C0F80480402383600023C36084
:101620004FF48063036100F09BFB4046FFF76AF8CC
:10163000002846D12B4805604FF01708C0F80480F9
:10164000402383600023C3604FF48063036100F094
:1016500087FB4046FFF756F8002834D12148046044
:1016600019244460402383600023C3604FF48063E7
:10167000036100F075FB2046FFF744F8044620BBE9
:101680001A484FF0FF33036005FB07F545609023D0
:1016900083600023C36003610127476100F088FB7A
:1016A000394640F22A3000F0ABFB384600F0A2FB8E
:1016B00029464846FEF770FF2046BDE8F883BDE89E
:1016C000F883BDE8F883BDE8F883BDE8F88300BF80
:1016D000D1020020FC02002000030020002C014069
:1016E000E4020020500F0020F8020020D80F002054
:1016F000D8B138B505460E480E4B1B681B04036075
:101700000D244460402383600023C3604FF4806352
:10171000036100F025FB2046FEF7F4FF044630B9D4
:1017200000F03AFB2860204638BD2620704738BDBF
:10173000500F0020F802002000B583B00023019371
:10174000FFF77EF9012818BFFF2008D101A8FFF795
:10175000CFFF18B90198C0F3432000E0FF2003B089
:101760005DF804FB08B5FFF7E7FF042804D0FF2865
:101770000CBF0220012008BD002008BD036823F033
:10178000010303600023036043608360C36003615F
:10179000212343613B4B984203D13D22103B9A6089
:1017A0007047394B984204D14FF47462283B9A60D9
:1017B0007047364B984204D14FF47412403B9A6004
:1017C0007047334B984204D14FF07462583B9A6093
:1017D0007047304B984203D12F4A703BDA60704714
:1017E0002E4B984203D12E4A883BDA6070472D4B2E
:1017F000984203D12C4AA03BDA6070472B4B9842A9
:1018000004D14FF03D52B83BDA607047284B984204
:1018100003D13D22103B9A607047264B984204D179
:101820004FF47462283B9A607047234B984204D16E
:101830004FF47412403B9A607047204B984204D199
:101840004FF07462583B9A6070471D4B984203D129
:10185000114A703BDA6070471A4B984203D1104A24
:10186000883BDA607047184B984203D10E4AA03B80
:10187000DA607047154B984203D14FF03D52B83BA8
:10188000DA60704710600240286002404060024009
:1018900058600240706002403D00002088600240B5
:1018A000400F0020A060024000003D20B8600240D0
:1018B00010640240286402404064024058640240C0
:1018C0007064024088640240A0640240B864024030
:1018D00010B40268134B13400C68CA6814434A6979
:1018E00014438A691443CA6914430A6A14434A6A4E
:1018F00014438A6A14434A6B14438A6B224313438A
:101900000360436923F00702CC6A0B6B2343134344
:1019100043610B6943604B6883608B68C36010BC94
:10192000704700BF3F801CF021B1036843F0010302
:1019300003607047036823F001030360704700BF32
:1019400021B1036843F0200303607047036823F06C
:1019500020030360704700BF10B4094A094B0A4CCA
:10196000A04294BF1846104611F0005F21F0F0210C
:1019700021F0821114BFC160816010BC704700BFAC
:1019800000640240006002400F64024011F0800FCA
:101990000ED032B1436943F08003436180290AD1FC
:1019A0007047436923F080034361802909D1704760
:1019B00080290CD02AB1036801F01E01194301608F
:1019C0007047036801F01E0123EA010101607047BE
:1019D000054B1B69002B05DA034B044A5A6002F1E0
:1019E00088325A60704700BF003C024023016745BF
:1019F000024A136943F0004313617047003C024000
:101A0000014BD860704700BF003C02400E4BDB68C2
:101A100013F4803F12D10C4BDB6813F0100F0FD181
:101A2000094BDB6813F0EF0F0CD1074BDB6803F0B9
:101A30000203002B14BF07200820704701207047C5
:101A40000520704706207047003C024000B583B077
:101A500008238DF80730FFF7D9FF8DF807009DF8B0
:101A60000730DBB2012B08D1FFF7D0FF8DF807005C
:101A70009DF80730DBB2012BF6D09DF8070003B0CC
:101A80005DF804FB70B5054641B1012908D0022973
:101A90000CBF4FF400764FF4407603E0002601E0DF
:101AA0004FF48076FFF7D2FF08281ED10F4C236930
:101AB00023F44073236123691E432661236923F0C5
:101AC000F8032361236943F002031D432561236961
:101AD00043F480332361FFF7B9FF236923F0020346
:101AE0002361236923F0F803236170BD003C0240A9
:101AF00070B505460E46FFF7A9FF082813D10A4C1A
:101B0000236923F440732361236943F40073236141
:101B1000236943F0010323612E60FFF797FF2369D8
:101B200023F00103236170BD003C0240F0B50023A7
:101B30000125032605FA03F20C68A24339D1026895
:101B40005C0006FA04F7FF433A400260026891F82D
:101B500004E00EFA04FE4EEA020202600A79013A3B
:101B6000D2B2012A17D882681740876087684A79FD
:101B7000A2403A43826047689AB205FA02FE27EA19
:101B80000E074760D0F804E08F7907FA02F292B2AC
:101B900042EA0E024260C7689AB2520006FA02F2A6
:101BA00027EA0202C260C268CF7907FA04F414433C
:101BB000C4600133102BBDD1F0BD00BF03691942D1
:101BC00014BF012000207047018370474183704794
:101BD00010B401F007039B00C90800EB8100046A00
:101BE0000F21994024EA01010162016A9A400A43E7
:101BF000026210BC704700BF10B4244B9B6803F016
:101C00000C03042B05D0082B06D00BBB204B036024
:101C100020E0204B03601DE01C4B5A685B6803F01A
:101C20003F0312F4800F194A5268C2F3881214BF9E
:101C300018491749B1FBF3F303FB02F2134B5B683E
:101C4000C3F3014301335B00B2FBF3F3036001E034
:101C50000F4B03600D4CA368C3F303130E49CB5C19
:101C6000DAB20368D3404360A268C2F382228A5C7E
:101C7000D2B223FA02F28260A268C2F342328A5CD4
:101C8000D2B2D340C36010BC704700BF00380240DE
:101C90000024F40040787D010400002021B1054BB0
:101CA0001A6B104318637047024A136B23EA000053
:101CB000106370470038024021B1054B5A6C104345
:101CC00058647047024A536C23EA0000506470471E
:101CD0000038024021B1054B5A6A104358627047E0
:101CE000024A536A23EA00005062704700380240FB
:101CF00008B501214FF40060FFF7ECFF00214FF41D
:101D00000060FFF7E7FF08BD10B40A4C6268816805
:101D100043681943C36819430368194303691943A6
:101D200022F4FD4323F07F030B43027D13436360E2
:101D300010BC7047002C0140014B1860704700BF79
:101D4000A0802542014B1860704700BF002C014065
:101D5000024B186800F00300704700BF002C0140E0
:101D600010B40368084A9360D36823F4FF6323F038
:101D70000703446881680C43C1680C43016921432F
:101D80000B43D36010BC7047002C0140014B186915
:101D9000C0B27047002C014082B000230193034B76
:101DA00003440193019B186802B07047142C014052
:101DB00010B4036808494B6243688B62CB6A23F016
:101DC000F7028468C3681C430369234340690343E3
:101DD0001343CB6210BC7047002C0140014BD3F879
:101DE00080007047002C0140014BC3F88000704711
:101DF000002C0140014B1860704700BF8C852542C4
:101E000021B1054BDA6B1043D8637047024AD36B9C
:101E100023EA0000D0637047002C0140034B5B6B4A
:101E2000034214BF01200020704700BF002C014076
:101E3000014B9863704700BF002C014030B585B05E
:101E400004460D46038A9BB223F44053CA881343C9
:101E5000038283899BB223F4B05323F00C02898858
:101E60002B890B4369890B439BB213438381838A7C
:101E70009BB223F44073AA89134383826846FFF719
:101E8000BBFE1C4B9C4203D003F580639C4201D1F6
:101E9000039B00E0029BA28912F4004F03EB830333
:101EA00003EB8303296814BF49008900B3FBF1F1F8
:101EB000114BA3FB012358090501642300FB1313F5
:101EC000A28912F4004F09D0D90032310A4AA2FB8C
:101ED0000131C1F3421242EA050307E01B0132332C
:101EE000054AA2FB0323C3F343132B439BB2238175
:101EF00005B030BD001001401F85EB5129B1838929
:101F00009BB243F4005383817047838923F40053C9
:101F10001B041B0C838170470388194214BF0120E6
:101F20000020704782B0314B1A6842F001021A60FB
:101F3000002199601A6822F0847222F480321A60BB
:101F40002B4A5A601A6822F480221A60D9600091E4
:101F500001911A6842F480321A601A46136803F439
:101F600000330193009B01330093019B1BB9009B3D
:101F7000B3F5C06FF2D11D4B1B6813F4003F14BFC3
:101F8000012300230193019B012B29D1174B9A6850
:101F90009A609A6842F400429A609A6842F4A052A9
:101FA0009A60144A5A601A6842F080721A601A469F
:101FB000136813F0007FFBD040F203720E4B1A60DF
:101FC000A3F580639A6822F003029A609A6842F04F
:101FD00002029A601A46936803F00C03082BFAD1A8
:101FE0004FF00062054B9A6002B070470038024023
:101FF0001030002419544007003C024000ED00E07E
:1020000080B586B001210220FFF748FE0121102093
:10201000FFF752FE01210846FFF740FE4FF0070888
:10202000CDF8008000248DF8064001268DF8076069
:1020300002278DF805708DF80460254D6946284605
:10204000FFF774FD41462846FFF7C0FD42460921CF
:102050002846FFF7BDFD42460A212846FFF7B8FD96
:102060008DF806408DF807608DF804704FF400730A
:1020700000938DF8057069462846FFF757FD8DF8E7
:1020800004704FF48063009369462846FFF74EFDC5
:102090004FF461430293ADF80C40ADF80E40ADF83B
:1020A0001040ADF814400C23ADF8123004F1804418
:1020B00004F5883402A92046FFF7C0FE31462046C9
:1020C000FFF71CFF00F0F8FA00F004FBFCE700BF8C
:1020D0000000024008B500F0E7F908BD10B500F0B7
:1020E00079FA18B903220B4B1A8010BDFEF7B2F82B
:1020F00078B100F093FA00F071FA20F0604020F01F
:102100007F00054B186000F069FA446800F0CEF9D2
:10211000A04710BD0000002008ED00E072B170B5CE
:102120000D46561EB6B2441E064415F8013B04F88F
:10213000013F00F0DDFAB442F7D170BD704700BF37
:1021400070B506460B4D002400F0D2FA2B68B3425E
:102150000AD86A6813449E4206D204EB4401054B38
:1021600003EB8101087A70BD01340C350A2CEBD1E8
:10217000FF2070BD705000082DE9F84380460068CC
:10218000FFF7DEFFFF282FD0FFF722FCF320FFF739
:1021900037FCFFF73BFC012818BF002404D1FFF7F0
:1021A00027FC0020BDE8F883D8F8007004EB07098D
:1021B000251D58F8056000F09BFA31464846FFF7A8
:1021C00097FC082808D1E3599E4207D12C46B5F563
:1021D000007FE9D1012402E0002400E00024FFF7A1
:1021E00007FC2046BDE8F8830020BDE8F88300BF67
:1021F00038B50D46114B984207D00446104B994212
:1022000008D0FFF7B9FF08B911E00E4CC5F3080379
:102210007BB900E0094C2368AB420CD0204640F863
:10222000045B4FF400722946FFF778FF03E00020BB
:1022300038BD002038BD204638BD00BF0403002053
:102240000080000808050020F0B583B006460C4663
:1022500017461D4621F4FF7323F001030193036821
:10226000B3F1FF3F0CD10199C1F308037BBBB1F17E
:10227000FF3F05D040F8041B4FF40072FFF74EFFFC
:10228000019B32689A4205D001993046FFF7B0FFB2
:102290000646F0B13368E41A3444043400F028FAF6
:1022A000331DE31AB3F5007F08D3019901F50071DE
:1022B0003046FFF79DFF064668B1041D17F8013B45
:1022C000DBB204F8013B013DE8D1012004E000202D
:1022D00002E0002000E0002003B0F0BD4FF0FF332B
:1022E000024A1360024A1360704700BF08050020CD
:1022F0000403002070B504460D461646FFF720FF84
:10230000FF2814D0681E2044FFF71AFFFF2810D0C2
:1023100024F4FF7323F00103074A93422B4632460D
:1023200021460CBF05480648FFF78EFF70BD002010
:1023300070BD002070BD00BF0080000804030020B5
:1023400008050020F8B506460D46FFF7F9FE0446DD
:10235000681E3044FFF7F4FE84422AD80546A31EC7
:10236000DBB2FC2B27D80B2827D8FFF731FBF32053
:10237000FFF746FBFFF74AFB012803D1FFF738FBC5
:102380000020F8BD0E4F022600F0B2F9314637F8B2
:102390001400FFF777FB082803D0FFF729FB002084
:1023A000F8BD0134E4B2A542EED2FFF721FB0120D3
:1023B000F8BD0020F8BD0020F8BD0020F8BD00BF2A
:1023C00058500008114B1B68B3F1FF3F18D000B5FF
:1023D00083B00E4B59689A681144DA6811441A693F
:1023E00011445A6911449A691144DA698B185B42A5
:1023F00002AA42F8043D04210548FFF77BFF01E0F3
:102400000120704703B05DF804FB00BF0403002007
:10241000348000080D4B1A6804331B6813440C4ABF
:10242000126813440B4A126813440B4A11680B4498
:10243000043212681A44094B1B681344084A126894
:10244000D3420CBF01200020704700BF008000086D
:10245000088000080C800008108000081880000820
:102460003480000808B50C4B1B68B3F1FF3F04D063
:102470000948FFF781FE034660B1084B1B68B3F1C2
:10248000FF3F06D00548FFF777FE031C18BF012366
:1024900000E00123184608BD0403002008050020C1
:1024A000004870470080000872B6704762B67047F7
:1024B00007498D460749084A084B9A42BEBF51F862
:1024C000040B42F8040BF8E705488047054800472D
:1024D00000000220145800080000002080000020A6
:1024E000251F0008E10100083249334A002301E0BA
:1024F00041F8043B9142FBD3FFF782FDFEE7FEE784
:10250000FEE7FEE7FEE7FEE7FEE7FEE7FEE7FEE7A3
:10251000FEE7FEE7FEE7FEE7FEE7FEE7FEE7FEE793
:10252000FEE7FEE7FEE7FEE7FEE7FEE7FEE7FEE783
:10253000FEE7FEE7FEE7FEE7FEE7FEE7FEE7FEE773
:10254000FEE7FEE7FEE7FEE7FEE7FEE7FEE7FEE763
:10255000FEE7FEE7FEE7FEE7FEE7FEE7FEE7FEE753
:10256000FEE7FEE7FEE7FEE7FEE7FEE7FEE7FEE743
:10257000FEE7FEE7FEE7FEE7FEE7FEE7FEE7FEE733
:10258000FEE7FEE7FEE7FEE7FEE7FEE7FEE7FEE723
:10259000FEE7FEE7FEE7FEE7FEE7FEE7FEE7FEE713
:1025A000FEE7FEE7FEE7FEE7FEE7FEE7FEE7FEE703
:1025B000FEE7FEE780000020F00F002008B5FFF7DF
:1025C0008DFE08BD08B5FFF795FE08BD08B5FFF7FD
:1025D000B9FE08BD08B5FFF71DFF08BD08B5FFF738
:1025E0005FFF08BD08B5FFF7EDFE034610B1FFF72A
:1025F00039FF0346184608BD054B00221A600549FD
:1026000059609A6005211960034B1A60704700BF3A
:1026100010E000E03F9002000C0700200022014B78
:102620001A60704710E000E0044B1B6813F4803F11
:1026300003D0034A136801331360704710E000E0D1
:102640000C07002008B5FFF7EFFF014B186808BD25
:102650000C07002008B500F04BF8FCE708B500F0C7
:10266000D7F898B10A4B1B78012B0FD1FFF7EAFF7F
:10267000084B1B6803F5FA73984207D30022044BFA
:102680001A7000F0CDF808B9FFF728FD08BD00BFAB
:10269000100700201407002008B50122044B1A700F
:1026A000FFF7D0FF034B1860FFF7D8FF08BD00BF4E
:1026B000100700201407002008B5FFF70BFD00F0FD
:1026C00013F8FFF799FFFFF779FF00F085F8FFF7A0
:1026D000E3FF08BD08B500F00BF8FFF7A5FF00F019
:1026E000B7F9FFF7BBFF08BD08B5FDF7B9FD08BD99
:1026F00008B5FDF7BBFD08BD00F00F03092802D99E
:1027000003F13700704703F13000054B1B680344A9
:102710005B7803F00303022B08BF2038C0B2704778
:102720001400002038B505460C460009FFF7E4FF09
:10273000207005F00F00FFF7DFFF60700023A3702B
:10274000204638BD10B4034602460C480131A0FBB8
:102750000242D208FAD100220A70084CA4FB0302FC
:10276000D20802EB8200A3EB4003303301F8013DB5
:102770001346002AF2D1084610BC7047CDCCCCCC11
:1027800070B4144B1E68441E451C002014F8013F11
:10279000F218517801F00301022908BF203BDBB297
:1027A000A3F13002D2B2162A0FD8A3F13A01C9B26E
:1027B00006290CD9092A84BF373BDAB202EB001391
:1027C00003F0FF00AC42E1D102E0002000E0002075
:1027D00070BC70471400002008B50022074B1A7027
:1027E0000121074B19800749074801F073FE18B112
:1027F00079210648FFF72EFF08BD00BF58070020CB
:1028000000000020E850000864070020EC50000899
:10281000024B1878B0FA80F0400970475807002042
:1028200008B5074B1B783BB9FDF724FD012805D1FE
:102830000122034B1A7008BD002008BD002008BD0E
:10284000580700200378114A1168CA18527802F01C
:102850000302022A08BF203B532B0ED143781944B0
:102860004A7812F0040F0AD0312B0AD0322B0AD04A
:10287000332B0CBF02200320704703207047032036
:102880007047002070470120704700BF14000020EF
:1028900070B506460230FFF773FF054684B2043672
:1028A0003046FFF76DFF2844C5B2013CA4B20236A2
:1028B000012CF5D83046FFF763FFED43EDB28542BA
:1028C00014BF0020012070BD2DE9F04104461646DA
:1028D000884601B120B940F246215C48FFF7BAFEB4
:1028E0002046FFF7AFFF0546032800F09280204600
:1028F000FFF7CEFF002800F08F80012D28D015B102
:10290000022D52D08CE0A01CFFF73AFF0746201D95
:10291000FFF736FF0502C8F80050A01DFFF730FF93
:102920002844C8F800000834F81E07B2002E7AD0F8
:10293000B846002F7ADD00252046FFF721FF7055AD
:1029400002340135ADB24545F6DB3846BDE8F081CD
:10295000A01CFFF715FF0746201DFFF711FF050418
:10296000C8F80050A01DFFF70BFF05EB0025C8F8C5
:10297000005004F10800FFF703FF2844C8F80000E6
:102980000A34381F07B2002E53D0B846002F53DD4B
:1029900000252046FFF7F4FE705502340135ADB234
:1029A0004545F6DB3846BDE8F081A01CFFF7E8FEA0
:1029B0000746201DFFF7E4FE0506C8F80050A01DDD
:1029C000FFF7DEFE05EB0045C8F8005004F10800F3
:1029D000FFF7D6FE05EB0025C8F8005004F10A0009
:1029E000FFF7CEFE2844C8F800000C34781F07B269
:1029F0002EB3B846002F25DD00252046FFF7C0FE88
:102A0000705502340135ADB24545F6DB3846BDE8B8
:102A1000F0810020BDE8F0814FF0FF30BDE8F0818B
:102A20000020BDE8F0813846BDE8F0813846BDE8B9
:102A3000F0813846BDE8F0813846BDE8F08138467F
:102A4000BDE8F0813846BDE8F08100BFEC500008D9
:102A500070B582B00023ADF80630A34B1B78002B75
:102A600000F0EF81012B2FD1FFF7A8FDFDF724FC2B
:102A70009E48FDF765FC9E48FDF762FCFDF718FCDB
:102A8000012201469B4801F057FD48B19A48FDF7E5
:102A900057FC0120FDF748FC0222984B1A80D0E138
:102AA0009748FDF74DFC9748FDF74AFC9648FDF71F
:102AB00047FC964B00221A605A6002228A4B1A7019
:102AC00004228E4B1A80BCE1022B40F0CC80904C4B
:102AD00004F50D724FF480718E4802F0ADF994F850
:102AE000453283B18448FDF72BFC0220FDF71CFC26
:102AF00004F50D7002F060F800227B4B1A70022280
:102B00007E4B1A809DE1E8B18248002200F5C07139
:102B1000FFF7DAFEADF80600BDF806301BB2B3F1E0
:102B2000FF3F0FD17448FDF70BFC0320FDF7FCFBC2
:102B3000704802F041F800226B4B1A7002226F4B72
:102B40001A807EE1BDF806301BB2002B1BDD6F4BF7
:102B50005B684BB96D4A6F4BD3F880311360BDF899
:102B600006301BB253600EE06A4AD2F880216749F2
:102B700009688A423CBF65490A60BDF8062012B266
:102B80001344624A5360624BD3F84822D3F8403270
:102B90009A4240F05681604C03212046FFF714F81A
:102BA00004212046FFF712F80021524802F016F8DF
:102BB00078B15148FDF7C4FB0420FDF7B5FB4D4843
:102BC00001F0FAFF0022484B1A7002224B4B1A8088
:102BD00037E14B48FDF7B4FB5048FDF7B1FB504CD3
:102BE0004A4D21466868FFF7ADFD2046FDF7A8FB7A
:102BF0004C48FDF7A5FB2E682146300EFFF792FDED
:102C0000A11CC6F30740FFF78DFD211DC6F3072069
:102C1000FFF788FDA11DF0B2FFF784FD2046FDF708
:102C20008FFB4148FDF78CFB69682868FFF7CEFCF5
:102C300078B93148FDF784FB0520FDF775FB2D4879
:102C400001F0BAFF0022284B1A7002222B4B1A8087
:102C5000F7E02B48FDF774FB0322234B1A70042284
:102C6000264B1A80EDE0032B40F0EB80284C04F556
:102C70000D724FF48071274802F0DEF894F8453267
:102C800083B12A48FDF75CFB0220FDF74DFB04F5FC
:102C90000D7001F091FF0022134B1A700222174BA6
:102CA0001A80CEE0002845D01A4800F5807200F561
:102CB000C071FFF709FEADF80600BDF806301BB283
:102CC000B3F1FF3F36D11A48FDF73AFB0320FDF779
:102CD0002BFB084801F070FF0022034B1A70022200
:102CE000064B1A80ADE000BF5807002000510008D5
:102CF00024510008980900204C51000800000020D1
:102D0000545100085C510008805100085C07002005
:102D100064070020C00B002000000240B0510008F2
:102D200018070020BC51000860520008D851000864
:102D3000FC510008BDF806301BB2002B48DD4248AC
:102D4000FDF7FEFABDF80600404C214600B2FFF741
:102D5000F9FC2046FDF7F4FA3D48FDF7F1FA3D4D48
:102D6000214695F88301FFF7DDFCA11C95F882014F
:102D7000FFF7D8FC211D95F88101FFF7D3FCA11DB9
:102D800095F88001FFF7CEFC2046FDF7D9FA3248CE
:102D9000FDF7D6FABDF8061005F5807209B2D5F830
:102DA0008001FFF70FFC78B92C48FDF7C9FA06201F
:102DB000FDF7BAFA2A4801F0FFFE0022294B1A70EB
:102DC0000222294B1A803CE02848FDF7B9FA05E0B9
:102DD000BDF8063001331BB2ADF80630244BD3F8F2
:102DE0004822D3F840329A422BD12248FDF7A8FA64
:102DF000FFF7F8FB78B91948FDF7A2FA0720FDF7AD
:102E000093FA174801F0D8FE0022164B1A700222DE
:102E1000154B1A8015E01548FDF792FA1648FDF794
:102E20008FFA0F4801F0C8FE1448FDF789FA002216
:102E30000C4B1A7004220C4B1A80FDF751FAFFF765
:102E40004DF902B070BD00BF2052000818070020E5
:102E500030520008C00B0020605200084C5100089E
:102E60009809002058070020000000205451000855
:102E70006407002048520008645200087C52000891
:102E8000C278837843EA0222437843EA0223007837
:102E900040EA0320704700BF3AB101388A1811F8A0
:102EA000013B00F8013F9142F9D170470239836933
:102EB000023B99423DBF4389C06A01FB03000020E9
:102EC000704700BF00F10B010023DA0142EA53030F
:102ED00010F8012B134403F0FF038842F5D1184684
:102EE000704700BF70B40468ACB321781F2909D9BA
:102EF0003A2917D0224612F8013F1F2B04D93A2B4A
:102F0000F9D105E00B4622463A2B18BF00212AD101
:102F10003039092907D8631C9A4204D1F1B9023427
:102F2000046020E02246114E16F8015B14F8013BC4
:102F3000A3F16101C9B219299CBF203BDBB225B1C5
:102F4000AB42F1D04FF0FF310DE00132A24208D187
:102F50000260002107E04FF0FF3104E04FF0FF3145
:102F600001E04FF0FF31084670BC7047A8520008DE
:102F700038B50C4670B1054603685BB11A784AB1A2
:102F8000D9888288914205D15878FDF735FA10F03A
:102F9000010F03D000232360092038BD2B68236074
:102FA000002038BDC37833B32DE9F0410446056BEA
:102FB00000F1340701232A4639464078FDF762FACA
:102FC000D8B90023E370636AEB1AE269934217D21F
:102FD000A678012E17D94FF00108E3691D44434636
:102FE0002A4639466078FDF74DFA013E012EF4D1AC
:102FF0000020BDE8F081002070470120BDE8F0818D
:103000000020BDE8F0810020BDE8F08170B5036BC1
:103010008B4213D004460D46FFF7C4FF064670B935
:1030200001232A4604F134016078FDF707FA0028ED
:103030001CBF01264FF0FF35256300E00026304617
:1030400070BD00BF2DE9F843D0F8008000238B75D8
:103050008369002B6FD00D460646C36AB3F1FF3F6C
:103060001FD0D8F80C30188898B101F1150700244A
:10307000A146494601F020FF68B1FF2C0DD0013474
:1030800007F8010FD8F80C3033F814000028F0D1FD
:1030900004E0002402E0002400E000242C4400238B
:1030A000A375A87D002423462E275A1CF169CB5C0A
:1030B000202B22D0052B08BFE523092A05D108B90A
:1030C00029198F7529194F72013429194B7298B932
:1030D000A3F14101C9B219290CD8F169097B082A69
:1030E0008CBF4FF0100E4FF0080E1EEA010F1CBFF0
:1030F0002033DBB229198B75013413460B2AD4D146
:1031000038B92B1900229A75F3691B7B934208BFCB
:1031100014462C4400236372F369DB7A2B72F06946
:103120001C30FFF7ADFE2860F0691630FFF7A8FEEF
:10313000E880000CA880BDE8F88300BF10B5044605
:10314000FFF730FF0346002852D12378032B47D1E5
:103150002379012B44D104F1340104F50D700B46A1
:10316000002203F8012B8342FBD1552384F832322D
:10317000AA2384F83332522384F8343084F835306B
:10318000612384F83630412284F83720722084F895
:10319000180284F8190284F81A2284F81B32636931
:1031A00084F81C321A0A84F81D221A0C84F81E2294
:1031B0001B0E84F81F32236984F820321A0A84F81F
:1031C00021221A0C84F822221B0E84F82332226A50
:1031D0000132226301236078FDF754F90023237143
:1031E000002211466078FDF771F9031C18BF012316
:1031F000184610BD2DE9F04701297ED9836999420F
:103200007DD217460C4605460378022B3BD0032B94
:103210004ED0012B75D101EB5108416A01EB5821C9
:10322000FFF7F4FE0646002840F0838005F1340ADB
:1032300008F10109C8F3080814F0010F12D01AF8B8
:10324000083003F00F0343EA07130AF8083001239C
:10325000EB70696A01EB59212846FFF7D7FE002879
:1032600055D050E00AF808700123EB70696A01EB51
:1032700059212846FFF7CAFE00284ED045E01A70B3
:103280000123EB7055E0416A01EB1421FFF7BEFE0C
:10329000064600284DD105F13402630003F4FF73A4
:1032A000D118D754C7F307224A700123EB7040E0CE
:1032B000416A01EBD411FFF7A9FE0646C8BB27F00F
:1032C000704705F13408A40004F4FE7408EB040907
:1032D0004846FFF7D5FD00F0704040EA070208F8C5
:1032E0000420130A89F80130130C89F80230120EF9
:1032F00089F803200123EB701BE0022619E0022667
:1033000017E0022615E0064613E0064611E0C9F371
:1033100008035344C7F30712B1E7C9F308090AEBDE
:1033200009031AF8092022F00F01C7F303220A4308
:10333000A5E73046BDE8F0878A76C2F30723CB764F
:103340000378032B03D1120C0A75120A4A757047D1
:10335000012956D9F8B50668B369994253D20C468B
:103360003378022B29D0032B39D0012B4DD101EB1F
:103370005105716A01EB55213046FFF747FE0028E1
:1033800045D16F1CC5F30805354495F83450716A72
:1033900001EB57213046FFF739FE00283AD1C7F339
:1033A0000803334493F8340045EA002014F0010F79
:1033B00014BF0009C0F30B00F8BD716A01EB1421C2
:1033C0003046FFF723FE40BB06F13403610001F4F1
:1033D000FF715A1850785B5C43EA0020F8BD716AAF
:1033E00001EBD4113046FFF711FEC8B906F13403E2
:1033F000A10001F4FE701844FFF742FD20F0704078
:10340000F8BD012070470120F8BD0120F8BD4FF044
:10341000FF30F8BD4FF0FF30F8BD4FF0FF30F8BD82
:103420004FF0FF30F8BD00BFB1F5001F46D22DE9C7
:10343000F04106460C4611F01F0F41D1D0F8008034
:103440003161856885B998F80030022B02D9D8F827
:10345000283043B9B8F80830B3EB541F33D9D8F843
:103460002830B3611BE01D46B8F80A707F02BC42E9
:1034700010D329463046FFF76BFF0546B0F1FF3FFA
:1034800024D0012825D9D8F81830984224D2E41B3A
:10349000A742EED929464046FFF708FDB0617561A5
:1034A000B369E3B103EB5423B36108F13403C4F30C
:1034B00008042344F3610020BDE8F0810220704736
:1034C0000220BDE8F0810220BDE8F0810120BDE8C6
:1034D000F0810220BDE8F0810220BDE8F0810220E9
:1034E000BDE8F0812DE9F04107460668884631B90C
:1034F000356985B1B3699D4228BF01250CE0FFF70E
:1035000027FF012846D9B0F1FF3F46D0B369984262
:1035100052D3454600E001252C460134B3699C4254
:1035200002D3012D3DD9022421463846FFF710FF72
:1035300038B1012838D0B0F1FF3F38D0AC42ECD1DF
:1035400039E04FF0FF3221463046FFF753FE034685
:10355000C8B9B8F1000F06D0224641463046FFF701
:1035600049FE034678B934617369B269023A9342FD
:103570009CBF03F1FF337361337943F0010333716F
:103580002046BDE8F081012B0CBF4FF0FF30012039
:10359000BDE8F0810120BDE8F0814FF0FF30BDE8CB
:1035A000F0810020BDE8F0810120BDE8F0814FF0FE
:1035B000FF30BDE8F0810020BDE8F0812DE9F04149
:1035C0000E46012930D9074611460468A3699E4278
:1035D0002DD22AB14FF0FF322046FFF70BFE48BB39
:1035E0004FF0000831463846FFF7B2FE054618B3E3
:1035F000012824D0B0F1FF3F24D042463146204676
:10360000FFF7F8FD08BB6369A269911E8B4205D2E2
:1036100001336361237943F0010323712E46954200
:10362000E0D30020BDE8F0810220BDE8F081022057
:10363000BDE8F081BDE8F0810020BDE8F081022006
:10364000BDE8F0810120BDE8F081BDE8F08100BF58
:103650008369002B77D02DE9F04705692035B5F552
:10366000001F72D2884604460668C5F30807002F7B
:1036700061D101338361416941B93389B3EB551F8E
:1036800059D8002383610420BDE8F0877389013B8A
:1036900013EA55234FD1FFF75BFE8146012857D926
:1036A000B0F1FF3F57D0B36998423DD3B8F1000F56
:1036B00004D10023A3610420BDE8F087616920469E
:1036C000FFF710FF8146002848D0012849D0B0F10B
:1036D000FF3F49D03046FFF765FC002847D106F18F
:1036E000340306F50D71002203F8012B8B42FBD148
:1036F00049463046FFF7DAFB30634FF000084FF0E1
:10370000010A0AE086F803A03046FFF74BFC88BBAD
:1037100008F10108336B0133336373899845F1D3A2
:10372000336BC8EB03033363C4F814904946304647
:10373000FFF7BCFBA061256106F134084744E7614F
:103740000020BDE8F087042070470420BDE8F08722
:103750000220BDE8F0870120BDE8F0870720BDE822
:10376000F0870220BDE8F0870120BDE8F087012046
:10377000BDE8F0870120BDE8F08700BF2DE9F843E0
:10378000044605680669C16AB1F1FF3F03D0FFF73F
:103790004BFE0346D8B94FF0E50801274FF000096A
:1037A000A1692846FFF732FC034668B9E26982F84E
:1037B0000080EF702269964209D949462046FFF7FA
:1037C00047FF03460028EBD0042B08BF022318460E
:1037D000BDE8F8832DE9F04F87B004460768002163
:1037E000FFF722FE002840F0B3804FF0FF33E36282
:1037F0004FF0FF0AD14698464FF6FF7BA169384645
:10380000FFF704FC002840F0A480E5692E78002E24
:1038100000F0A080EB7A03F03F02A271E52E04D005
:1038200013F0080F06D00F2A06D0C4F82C804FF0F2
:10383000FF0985E00F2A5BD194F82B3013F0400F7D
:103840007ED116F0400F06D095F80DA006F0BF0609
:103850002369E36204E0B14518BF4FF0FF096FD15F
:103860006B7B0193534569D1EA7EAB7E53EA022319
:1038700040F08480FB6802932B7803F03F03013B08
:1038800003EB430203EB8203DFF804A1012103975A
:1038900005961E4604941AF8013BEA185478EB5C2E
:1038A00043EA042481B1FE2E60D8204601F026FBB5
:1038B0008146771C029B33F8160001F01FFB8145FF
:1038C00057D121463E4601E05C4555D12F4B53452B
:1038D000E1D1039F3246059E049C2B7813F0400FE4
:1038E0003ED000293CD0029B33F81230C3B345E0F0
:1038F000B9F1000F04D12846FFF7E4FA82452BD036
:1039000094F82B3013F0010F13D1691C04F121003E
:1039100015F80B3B94F820209B1A06E011F8013BA8
:1039200010F8012B9B1AA94202D0002BF6D000E020
:10393000A3B1C4F82C804FF0FF0901E04FF0FF095C
:1039400000212046FFF784FE00283FF457AF1AE01D
:1039500019E018E0042016E0002014E0002012E036
:10396000013E5FFA86F9DDF804A0E9E7039F049CB5
:1039700004E0039F049C01E0039F049CDDF804A085
:103980004FF0FF09DCE707B0BDE8F08FCD5200082B
:10399000C052000890F82B3013F0A00F40F04D817A
:1039A0002DE9F04F8BB00668F3681A8842B14FF0EA
:1039B000000909F1010933F8022F002AF9D101E0C9
:1039C0004FF00009044600F120050C22294607A803
:1039D000FFF762FA9DF8273013F0010F7CD04023E7
:1039E00084F82B300B2207A92846FFF755FA4FF031
:1039F000010843464FF07E0A202722E0D6F80CB09B
:103A00000B2207A92846FFF747FAB8F1050F17D987
:103A1000ABF1020E43460EE0102102F0010000EB74
:103A20004303520813F4803F1CBF83F4883383F0B0
:103A300021030139F1D13EF8022F002AECD100E038
:103A400043460DF11C0E072203F00F0000F1300178
:103A5000392988BF00F13701013A0EF8011D1B0911
:103A6000F2D10AAB134403F814AC6AB194F82030D5
:103A7000202B0BD02946002301339A4207D011F89E
:103A8000010F2028F8D102E0002300E00023E9180C
:103A90000133072A05D80AA8104410F8140C013283
:103AA00000E0384601F8010B072BF1D92046FFF75B
:103AB00091FE30B908F10108B8F1640F9ED10720DA
:103AC000DBE0B8F1640F00F0BA80042840F0B98060
:103AD0009DF8273084F82B309DF8273013F0020F23
:103AE00007D009F10C09664FA7FB0937BF0801375A
:103AF00000E00127D4F8009000212046FFF794FC55
:103B00000346002840F0B2804FF000084FF0010A51
:103B1000A1694846FFF77AFA0346002840F0A680DC
:103B2000E3691B78E52B00D023B908F1010847456C
:103B300002D19EE04FF0000851462046FFF788FD75
:103B400003460028E4D091E02169019BA1EB4311D9
:103B50002046FFF769FC034600287ED12846FFF780
:103B6000B1F9029000230393A1693046FFF74EFAA2
:103B70000346002871D1D6F80C80E1699DF80490C5
:103B80009DF808304B734FF00F03CB724FF00003DA
:103B90000B738B76CB7609F1FF3303EB430003EB1A
:103BA0008000384A02F10D0C039B4FF6FF774FF06F
:103BB000FF0ABB4248D000F1010E38F810301078EF
:103BC00001EB000B0B54180A8BF8010013B9704677
:103BD0003B4600E0704601329445EAD14FF6FF7251
:103BE000934202D038F810300BB949F0400981F8FF
:103BF00000900123F37000212046FFF729FD0346C2
:103C000058BB019B013B0193AED128E0E36903F16E
:103C10002001002203F8012B9942FBD10B222946F7
:103C2000E069FFF739F9E26994F82B3003F01803E3
:103C300013730123F37000201FE006207047072054
:103C40001BE01AE0072018E092F800E001EB0E0BF1
:103C500001F80EA08BF801A0BDE718460DE0A169A0
:103C60003046FFF7D3F90028D0D006E0042BE9D086
:103C7000F3E77B1E0193F2D066E70BB0BDE8F08F4F
:103C80004FECC44EC052000810B504460023C37068
:103C90004FF0FF330363FFF7B9F930BB94F83322D9
:103CA00094F8323243EA02231BB2144A93421ED1E3
:103CB00094F83430E92B05D0636B03F0FF13104AFE
:103CC000934216D104F16A00FFF7DAF820F07F4042
:103CD0000C4B98420FD004F18600FFF7D1F80A4B45
:103CE000984214BF0220002010BD042010BD032004
:103CF00010BD022010BD002010BD00BF55AAFFFF5F
:103D0000EB00900046415400464154332DE9F04702
:103D100084B00E46174600230B60FFF7E3F8051E3C
:103D2000C0F22D81C14B53F82540002C00F02981B1
:103D3000346007F0FE07237883B16078FCF75CFB02
:103D400010F0010F0AD1002F00F01D8100F00400D7
:103D5000C0B200280CBF00200A2078E100232370A5
:103D6000E8B26070FCF754FB10F0010F40F00D81D9
:103D70001FB110F0040F40F00A8100212046FFF728
:103D800083FF022825D16E4604F5FD7504F23A281A
:103D90006F464FF0000915F8043C1BB12846FFF7A9
:103DA0006FF800E0484647F8040B1035A845F2D1FB
:103DB00004AF4FF0030856F8045B35B1294620469E
:103DC000FFF762FF012801D803E14046B742F2D174
:103DD00000E00025042800F0DC80012888BF0D20C9
:103DE00000F2358194F8402094F83F3043EA0223F2
:103DF0001BB2B3F5007F40F0CE8094F84B7094F87E
:103E00004A3053EA072704D104F15800FFF738F885
:103E10000746E76194F8449084F8029009F1FF3373
:103E2000DBB2012B00F2B98094F84160B3B2638138
:103E3000002B00F0B480731E334240F0B28094F83F
:103E4000468094F8453043EA0828A4F8088018F022
:103E50000F0F40F0A88094F8480094F8473053EAD8
:103E6000002003D104F15400FFF70AF894F843202E
:103E700094F8423053EA022300F0978007FB09F9D7
:103E800003EB18124A449042C0F09180801AB0FBB4
:103E9000F6F6002E00F08D804FF6F57A56458CBF71
:103EA0004FF0030A4FF0020A40F6F5718E4240F2DD
:103EB00094800236A66125622B4463622A44E26242
:103EC000BAF1030F15D194F85F2094F85E3053EAED
:103ED000022370D1B8F1000F6FD104F16000FEF73A
:103EE000CFFFA062B30003F2FF13B7EB532F66D3EB
:103EF0008BE0B8F1000F64D04B44A362BAF1020F1B
:103F000001D176007BE006EB460306F0010606EBE6
:103F1000530674E0691C2046FFF778F818BB0023AD
:103F2000237194F8332294F8323243EA02231BB20D
:103F30003F4A934217D104F13400FEF7A1FF3D4BF5
:103F4000984210D104F50670FEF79AFF3A4B98425A
:103F500009D104F50770FEF793FF606104F508705E
:103F6000FEF78EFF206184F800A0344A13880133E5
:103F70009BB21380E380324BE360002067E00B20AC
:103F800065E00C2063E0002061E003205FE00A2090
:103F90005DE001205BE00D2059E00D2057E00D2091
:103FA00055E00D2053E00D2051E00D204FE00D2095
:103FB0004DE00D204BE00D2049E00D2047E00D20A5
:103FC00045E00D2043E0012041E00D203FE00D20C1
:103FD0003DE004287FF406AFF5E70236A6612562CE
:103FE0002B4463622A44E262B8F1000FEDD029E06D
:103FF0004FF0FF336361236180232371B3E706F23F
:10400000FF16B7EB562FE2D3F2E74FF0FF336361B1
:1040100023618023237194F8652094F8643043EA87
:1040200002231BB2012B9ED174E700BF480F002072
:1040300055AAFFFF5252614172724161440D002046
:10404000480D00204B44A3624FF0010A5BE704B027
:10405000BDE8F0872DE9F04F83B004468946076834
:104060004FF0FF0A55460426D0464FF6FF7B7AE014
:104070003846FEF7CBFF0646002878D1E069037882
:10408000002B7ED0C27A02F03F02A271E52B5DD0F8
:104090002E2B5DD022F02001082914BF0021012120
:1040A000494557D10F2A48D113F0400F06D090F858
:1040B0000DA003F0BF032269E26203E09D4218BF36
:1040C00045464AD190F80DE0D64545D1C17E827E65
:1040D00052EA01224ED1FA6811460192027822F08A
:1040E0004002013A02EB420602EB8606284D05F13A
:1040F0000D0A4FF0010C009363468C4615F8012B16
:1041000081184978825C42EA012233B1FE2E31D80F
:104110002CF816201346013601E05A452AD1AA454B
:10412000ECD1009B027812F0400F26D0FE2E21D851
:104130000022019921F816201FE01DB9FEF7C2FEEA
:10414000824520D04FF0FF33E3621CE0454604E097
:10415000454602E0454600E0454600212046FFF77F
:1041600077FA064618B9A169002981D15EB100230A
:10417000A36108E0F2464546EFE7013BDDB2F246B7
:10418000EBE70426F3E7304603B0BDE8F08F00BF4D
:10419000C0520008CA7E8B7E43EA02230278032ABB
:1041A00005D1487D0A7D42EA002243EA02431846CF
:1041B000704700BF2DE9F04F85B00546D0F800905C
:1041C000884611F8013B2F2BFAD05C2BF8D0002346
:1041D000AB6098F800301F2B08D8802385F82B306F
:1041E00000212846FFF720F9034668E14FF0010A55
:1041F0002B68DE6898F800001F2840F23C812F28C9
:1042000009D05C280AD0A6F1020B474601241AE027
:104210002F2808D104E00024012301E00024012319
:1042200008EB030103E05C2808D1F9E7013311F83A
:10423000012B2F2AFAD05C2AF8D01FE0B3F5807F3B
:1042400000F033811C46514600F036FE014600283E
:1042500000F02B817F2809D8222800F0EC809A4AB0
:1042600012F8013F13B19842FAD1E4E02BF8021F93
:10427000631C17F8010F1F28CAD8FEE098442028B5
:1042800034BF04270027002C00F0FA8006EB44021C
:1042900032F8023D202B01D02E2B03D1013CF7D167
:1042A000B346EEE06000002326F81430002C00F046
:1042B000FC8005F1200305F12B01202203F8012BDE
:1042C0009942FBD1B11E002300E0013331F8022FE7
:1042D000202AFAD02E2AF8D0002B00F0D68047F002
:1042E0000307D2E0013C05D108220192002202928C
:1042F000039204E032F8021D2E29F3D1F4E703F112
:10430000010B36F81300002861D0202803D02E2896
:1043100005D1A34503D047F003075B46EFE7029BB7
:10432000019A934202D2A34519D1C0E0019B0B2B05
:1043300006D147F0030795F82030E52B58D14BE024
:10434000A34502D047F0030741D8039B9B00DBB293
:10435000039323460B22019208220292CFE77F2883
:1043600040F29A80002100F0A7FD0346002800F0EB
:10437000A380564A134413F8801C88B247F0020702
:1043800048B12B2907D0524A12F8013F002B00F008
:1043900085808B42F8D147F003075F200FE0039B35
:1043A00043F0020303930AE0A0F161039BB2192BCF
:1043B00005D8039B43F001030393203880B2029A8F
:1043C000AB1883F820005B460132029297E795F81C
:1043D0002030E52B05D101E00B230193052385F85F
:1043E0002030019B082B03D1039B9B00DBB203937E
:1043F000039A02F00C030C2B03D002F00302032AF1
:1044000001D147F0020717F0020F0AD1039A02F018
:104410000302012A08BF47F01007042B08BF47F02A
:10442000080785F82B702846FFF7D4F995F82B205C
:10443000034660B101E0062341E004283FD102F0C9
:104440000402D2B2002A14BF0346052337E012F05B
:10445000040F34D1AB7913F0100F0AD009F13401F5
:104460002B69C3F3080319444846FFF793FEA8607D
:10447000BEE6052323E0002401239844042702E735
:10448000B3460023ABF80030D5E702383218315A72
:104490002E293FF429AF25E7014672E7A0F1410339
:1044A0009BB2192B7FF67BAF7EE7062307E0019BCB
:1044B0000B2B7FF44AAF3CE747F002076BE7184647
:1044C00005B0BDE8F08F00BFAC520008D052000824
:1044D000B852000810B584B001900091144604A8A9
:1044E00040F8041DFEF7FEFC002816DB114B53F8C4
:1044F00020300BB100221A70019BA3B100221A7068
:10450000019B0C4A42F820304BB1012C09D100220A
:1045100001A96846FFF7FAFB0AE00B2008E000203B
:1045200006E0002004E00023024A42F8203018464A
:1045300004B010BD480F00202DE9F04391B0019167
:10454000002800F0CE800446154602F03F063246B1
:1045500003A901A8FFF7DAFB0346002840F0BD805D
:10456000039B0493019904A8FFF724FE0346002847
:1045700040F0B9809DF93B30002B80F2BF80B6E05F
:10458000042B40F0D38004A8FFF704FA46F0080695
:10459000034650B1A1E09DF8163013F0110F40F022
:1045A000DD8015F0040F40F0DB8016F0080F48D0D6
:1045B0000B9B00259D73DD732121197448225A74C9
:1045C0000B9B9D75DD7519765A7620220B9BDA724E
:1045D000039FDDF82C8041463846FFF7DBFD81461E
:1045E0002A4641463846FEF7A7FE0B9B1D775D77AE
:1045F0009D77DD770122039BDA70B9F1000F1ED0A1
:10460000039B1D6B0022494604A8FEF7D7FF034613
:10461000002862D129460398FEF7F8FC09F1FF3320
:10462000039A1361034650B157E015F0020F03D00F
:1046300013F0010F40F0968015F0080F01D046F0FE
:104640004006039B1B6B23620B9B6362DDF80C80AF
:104650000B9D29464046FFF79DFDA06005F11C001B
:10466000FEF70EFCE060C4F80080B8F80630A380C6
:10467000267400236374E361636104F1280704F581
:104680000A713B46002203F8012B9942FBD116F038
:10469000200F45D0E568002D42D06561B8F80A606A
:1046A0007602A168B54236D9AD1B00E01D46204612
:1046B000FEF74EFE0146012845D84BE0039E3046EA
:1046C000FEF7F4FB70B300EB5522E261012339469B
:1046D0007078FBF7B3FE38BB22E000222260184658
:1046E00044E0092042E015F01C0F0CD048E715F01B
:1046F0001C0F18BF062319D1062304E015F01C0F68
:104700007FF449AF15E0002BE7D19FE74FF0FF336F
:10471000A3610123E1E7A161C5F30803002BCDD11B
:10472000002023E00223D8E70123D6E746F008065D
:10473000E9E79DF8163013F0100F15D175E7AB1BA4
:10474000B542B3D8E7E7B0F1FF3FF8D1DEE7A161AA
:104750000223C2E7B0F1FF3FD8D0F8E70723BCE758
:104760000823BAE70723B8E70423B6E711B0BDE88A
:10477000F08300BF2DE9F04F85B00446884615460A
:104780001F4600233B60009003A9FEF7F1FB0028C1
:1047900040F0A580607C002840F0A580237C13F0C9
:1047A000010F00F09D80E36866699E1BAE4228BF42
:1047B0002E46002E00F0968004F128030193BA469D
:1047C0006369C3F30802002A6DD1039AB2F80A9014
:1047D00009F1FF3919EA532912D10BB9A06803E096
:1047E000A1690098FEF7B4FD012802D80220607488
:1047F00079E0B0F1FF3F02D10120607473E0A06165
:10480000DDF80CB0A1695846FEF750FB074610B919
:104810000220607467E04F44750A23D0BBF80A3069
:1048200009EB05029A4288BFC9EB03052B463A46BD
:1048300041469BF80100FBF701FE10B101206074B6
:1048400051E094F91030002B0ADAE069C01B854270
:1048500006D94FF40072019908EB4020FEF71CFBCB
:104860006D022EE0E26997421CD094F91030002BC3
:104870000DDA012301999BF80100FBF703FE10B14B
:10488000012060742FE0237C03F07F032374012355
:104890003A46019903984078FBF7D0FD10B101200A
:1048A000607420E0E7616169C1F30801C1F500753A
:1048B000B54228BF35462A46019B19444046FEF7BB
:1048C000EBFAA84463692B446361DAF800302B44A7
:1048D000CAF80030761B7FF473AF002003E002E0DB
:1048E000072000E0002005B0BDE8F08F2DE9F04F73
:1048F00085B00446884616461F4600233B6000905C
:1049000003A9FEF735FB002840F0C080607C00283A
:1049100040F0BE80237C13F0020F00F0B880636982
:10492000F34228BFDE43002E00F0AA8004F12803E2
:104930000193BA466369C3F30802002A7DD1039A42
:10494000B2F80A9009F1FF3919EA53291DD133B998
:10495000A06858B900210098FEF7C4FD03E0A169E2
:104960000098FEF7BFFD002800F08A80012802D1E0
:10497000022060748CE0B0F1FF3F02D1012060742E
:1049800086E0A061A36803B9A06094F91030002B01
:104990000EDA0123E269019903984078FBF772FD72
:1049A00010B10120607473E0237C03F07F03237453
:1049B000DDF80CB0A1695846FEF778FA074610B941
:1049C0000220607464E04F44750A23D0BBF80A30BB
:1049D00009EB05029A4288BFC9EB03052B463A460C
:1049E00041469BF80100FBF74DFD10B101206074BA
:1049F0004EE0E169C91B8D420AD94FF4007208EB01
:104A000041210198FEF748FA237C03F07F032374C9
:104A10006D0224E0E3699F420ED06269E3689A4226
:104A20000AD201233A4601999BF80100FBF706FDE3
:104A300010B1012060742BE0E7616069C0F30800E9
:104A4000C0F50075B54228BF35462A464146019B50
:104A50001844FEF721FA237C63F07F032374A844F3
:104A600063692B446361E268934238BF1346E36095
:104A7000DAF800302B44CAF80030761B7FF45AAFC6
:104A8000237C43F040032374002001E000E0072072
:104A900005B0BDE8F08F00BF70B582B004460E4689
:104AA0000A2902D10D21FFF7F7FF6368002B14DB01
:104AB0005D1C23441E733C2D0BDD01AB2A4604F123
:104AC0000C012068FFF712FF019B5D1B18BF4FF020
:104AD000FF356560A3680133A36002B070BD00BFFD
:104AE0004268002A0FDB10B582B0044601AB00F12A
:104AF0000C010068FFF7FAFE40B96268019B9A4218
:104B000007D1A06807E04FF0FF3070474FF0FF304B
:104B100001E04FF0FF3002B010BD00BF30B583B0F0
:104B2000044601A9FEF724FA00283ED1237C13F0A5
:104B3000400F3BD013F0800F0CD00123E26904F149
:104B4000280101984078FBF79DFC88BB237C03F08B
:104B50007F032374216A0198FEF758FA50BB656AF7
:104B6000EB7A43F02003EB72A26829462068FEF737
:104B7000E3FBE3682B771A0A6A771A0CAA771B0EF5
:104B8000EB770023AB75EB7521222A7648226A76F3
:104B9000AB74EB740122019BDA700198FEF7CEFA38
:104BA000237C23F04003237404E003E0002001E0B1
:104BB0000120FFE703B030BD10B582B00446FFF717
:104BC000ADFF034638B901A92046FEF7D1F90346E7
:104BD00008B900222260184602B010BDF0B583B0BB
:104BE00004460D46074601A9FEF7C2F9002840F029
:104BF000A680607C002840F0A880E268AA4206D225
:104C0000237C03F00203DBB2002B08BF1546636967
:104C100000226261002D00F09380019A568976028D
:104C20006BB1013B6A1EB2FBF6F2B3FBF6F18A42AE
:104C300005D3724213406361ED1AA16912E0A168C5
:104C400079B92046FEF74EFC0146012802D1022028
:104C500060747AE0B0F1FF3F02D10120607474E02B
:104C6000A060A161A9B3B54223D9AD1B63693344E8
:104C70006361237C13F0020F05D03846FEF732FC47
:104C8000014620B927E03846FEF762FB0146B1F144
:104C9000FF3F02D10120607457E0012903D9019B35
:104CA0009B69994202D3022060744EE0A161AE423A
:104CB000DBD363692B446361C5F308036BB10198CF
:104CC000FEF7F4F810B9022060743EE000EB5525C1
:104CD00004E0002502E0002500E000256369E268A9
:104CE000934204D9E360227C42F040022274C3F371
:104CF00008033BB3E269954226D094F91030002BAB
:104D00000EDA012304F1280101984078FBF7BAFB81
:104D100010B10120607418E0237C03F07F0323743A
:104D200001232A4604F1280101984078FBF786FB0D
:104D300010B10120607408E0E561002005E004E0A6
:104D4000002002E0002000E0002003B0F0BD00BF22
:104D500030B58FB001900D46002202A901A8FEF7E0
:104D6000D5FF044680B9019902A8FFF723FA04464B
:104D700050B99DF93330002B05DB2DB1294602A82F
:104D8000FEF760F900E0062420460FB030BD00BFFA
:104D900070B59CB00190022203A901A8FEF7B6FFEE
:104DA000039B10930346002843D1019910A8FFF7F5
:104DB00001FA034600283CD19DF96B30002B35DB0E
:104DC0009DF8464014F0010F32D11DE0049506967F
:104DD000002104A8FEF728FB034650BB002104A8CD
:104DE000FFF738F90346F8B1042816D021E036B1B0
:104DF0000022314610A8FEF7E1FB0346C8B903982C
:104E0000FEF79CF9034614E0039D17992846FFF727
:104E1000C1F9064614F0100FD8D110A8FEF7AEFC69
:104E200003460028E3D004E0072302E0062300E065
:104E3000072318461CB070BD2DE9F04182B08046B2
:104E40001746054600244E1E12E06B46012201A9BA
:104E50003846FFF78FFC009B012B0DD19DF80430E5
:104E60000D2B05D06A1C2B7001340A2B03D015467C
:104E7000B442EADB00E0154600232B709C4214BFCD
:104E80004046184602B0BDE8F08100BF10B594B0AE
:104E900004460191002302930393017831B101A8E4
:104EA000FFF7FAFD14F8011F0029F8D101A8FFF758
:104EB00017FE14B010BD00BF7F281BD911B9C72839
:104EC00008D112E0FF2814D8A0F180030A4A32F872
:104ED00013007047084A012332F8021F814205D0AF
:104EE00001339BB2802BF7D100E000238033D8B28E
:104EF00070470020704700BF00560008F0B52449F5
:104F0000244BB0F5805F38BF1946074604310C4684
:104F100031F8043C002B39D0984237D331F8022CB9
:104F2000150AD2B2BE46D618B04229DA082D2DD8BD
:104F3000DFE805F0050A101316191C1F2200C3EB49
:104F4000070E31F81E00F0BDC31A03F00103C01AAA
:104F500080B2F0BD103880B2F0BD203880B2F0BD14
:104F6000303880B2F0BD1A3880B2F0BD083080B25F
:104F7000F0BD503880B2F0BDA0F5E35080B2F0BD76
:104F80000431002DC3D104EB4201BFE7F0BD00BFE7
:104F9000505300080C54000808B5074B044613B1E1
:104FA0000021AFF30080054B1868836A03B198476E
:104FB000204600F033F800BF00000000045800084D
:104FC0000E4B70B51E460E4C0025E41AA410A542E7
:104FD00004D056F8253098470135F8E700F020F85E
:104FE000084B094C1E46E41AA4100025A54204D023
:104FF00056F8253098470135F8E770BD7800002055
:1050000078000020780000207C0000200346024445
:10501000934202D003F8011BFAE77047FEE7000055
:10502000F8B500BFF8BC08BC9E467047F8B500BF95
:10503000F8BC08BC9E4670472F70617374696C643D
:10504000612E7372656300002F626F6F746C6F67FF
:105050002E74787400000000000008001000180092
:105060002000280030003800400048005000580060
:1050700000800008004000000200000000C000089E
:1050800000400000030000000000010800000100D3
:1050900004000000000002080000020005000000FB
:1050A00000000408000002000600000000000608DE
:1050B00000000200070000000000080800000200D5
:1050C0000800000000000A080000020009000000BB
:1050D00000000C08000002000A00000000000E089A
:1050E000000002000B00000053443A002E2E5C2EFC
:1050F0002E5C536F757263655C66696C652E630028
:105100004669726D7761726520757064617465209F
:105110007265717565737420646574656374656424
:105120000A0D00004F70656E696E67206669726DCA
:10513000776172652066696C6520666F72207265A2
:105140006164696E672E2E2E000000004552524F9A
:10515000520A0D004F4B0A0D00000000537461729B
:1051600074696E67207468652070726F6772616D14
:105170006D696E672073657175656E63650A0D00F4
:1051800050617273696E67206669726D77617265CE
:105190002066696C6520746F206F627461696E208F
:1051A00065726173652073697A652E2E2E0000008A
:1051B00045726173696E6720000000002062797497
:1051C00065732066726F6D206D656D6F72792061F9
:1051D000742030780000000052656164696E6720B9
:1051E0006C696E652066726F6D2066696C652E2E27
:1051F0002E4552524F520A0D00000000496E766152
:105200006C696420636865636B73756D20666F7588
:105210006E642E2E2E4552524F520A0D0000000091
:1052200050726F6772616D6D696E672000000000DB
:1052300020627974657320746F206D656D6F72796B
:10524000206174203078000057726974696E67209D
:1052500070726F6772616D20636865636B73756DE3
:105260002E2E2E00436C6F73696E67206669726D17
:10527000776172652066696C650A0D004669726D1A
:1052800077617265207570646174652073756363FE
:1052900065737366756C6C7920636F6D706C657483
:1052A00065640A0D0000000053440000222A3A3CC5
:1052B0003E3F7C7F000000002B2C3B3D5B5D0000EF
:1052C00001030507090E10121416181C1E00000019
:1052D000809A45418E418F804545454949498E8F89
:1052E0009092924F994F555559999A9B9C9D9E9F8C
:1052F00041494F55A5A5A6A7A8A9AAABACADAEAF8D
:10530000B0B1B2B3B4B5B6B7B8B9BABBBCBDBEBF25
:10531000C0C1C2C3C4C5C6C7C8C9CACBCCCDCECF15
:10532000D0D1D2D3D4D5D6D7D8D9DADBDCDDDEDF05
:10533000E0E1E2E3E4E5E6E7E8E9EAEBECEDEEEFF5
:10534000F0F1F2F3F4F5F6F7F8F9FAFBFCFDFEFFE5
:105350007D1D0100632C001E9601A01E5A01001F36
:105360000806101F0606201F0806301F0806401FEB
:105370000606511F0700591F521F5B1F541F5D1F58
:10538000561F5F1F601F0806701F0E00BA1FBB1F4D
:10539000C81FC91FCA1FCB1FDA1FDB1FF81FF91F49
:1053A000EA1FEB1FFA1FFB1F801F0806901F08064D
:1053B000A01F0806B01F0400B81FB91FB21FBC1FF2
:1053C000CC1F0100C31FD01F0206E01F0206E51F0D
:1053D0000100EC1FF21F0100FC1F4E2101003221D1
:1053E00070211002842101008321D0241A05302C61
:1053F0002F04602C0201672C0601752C0201802C01
:105400006401002D260841FF1A03000061001A0301
:10541000E0001703F8000703FF0001007801000116
:10542000300132010601390110014A012E017901D2
:10543000060180014D004302810182018201840145
:10544000840186018701870189018A018B018B0113
:105450008D018E018F0190019101910193019401C1
:10546000F60196019701980198013D029B019C016C
:105470009D0120029F01A001A001A201A201A4019F
:10548000A401A601A701A701A901AA01AB01AC01D2
:10549000AC01AE01AF01AF01B101B201B301B30183
:1054A000B501B501B701B801B801BA01BB01BC0132
:1054B000BC01BE01F701C001C101C201C301C401A9
:1054C000C501C401C701C801C701CA01CB01CA0196
:1054D000CD011001DD0101008E01DE011201F30199
:1054E0000300F101F401F401F80128012202120184
:1054F0003A020900652C3B023B023D02662C3F024A
:1055000040024102410246020A0153024000810169
:105510008601550289018A0158028F015A029001C1
:105520005C025D025E025F0293016102620294010D
:105530006402650266026702970196016A02622CA4
:105540006C026D026E029C01700271029D01730279
:1055500074029F0176027702780279027A027B0256
:105560007C02642C7E027F02A60181028202A901D4
:105570008402850286028702AE014402B101B201B3
:1055800045028D028E028F0290029102B7017B03C9
:105590000300FD03FE03FF03AC030400860388033E
:1055A00089038A03B1031103C2030200A303A30307
:1055B000C4030803CC0303008C038E038F03D803BA
:1055C0001801F2030A00F903F303F403F503F603E9
:1055D000F703F703F903FA03FA0330042003500436
:1055E0001007600422018A043601C1040E01CF04B1
:1055F0000100C004D004440161052604000000003D
:10560000C700FC00E900E200E400E000E500E7007C
:10561000EA00EB00E800EF00EE00EC00C400C5007B
:10562000C900E600C600F400F600F200FB00F90035
:10563000FF00D600DC00A200A300A500A720920175
:10564000E100ED00F300FA00F100D100AA00BA0079
:10565000BF001023AC00BD00BC00A100AB00BB002C
:10566000912592259325022524256125622556251D
:1056700055256325512557255D255C255B2510257E
:10568000142534252C251C2500253C255E255F2569
:105690005A25542569256625602550256C256725E2
:1056A00068256425652559255825522553256B25E0
:1056B0006A2518250C25882584258C25902580258C
:1056C000B103DF009303C003A303C303B500C40306
:1056D000A6039803A903B4031E22C603B503292217
:1056E0006122B1006522642220232123F700482291
:1056F000B0001922B7001A227F20B200A025A00016
:105700000020202020202020202028282828282091
:105710002020202020202020202020202020202089
:1057200020881010101010101010101010101010F1
:1057300010040404040404040404041010101010E1
:1057400010104141414141410101010101010101AB
:1057500001010101010101010101010110101010FD
:10576000101042424242424202020202020202027D
:1057700002020202020202020202020210101010D1
:1057800020000000000000000000000000000000F9
:105790000000000000000000000000000000000009
:1057A00000000000000000000000000000000000F9
:1057B00000000000000000000000000000000000E9
:1057C00000000000000000000000000000000000D9
:1057D00000000000000000000000000000000000C9
:1057E00000000000000000000000000000000000B9
:1057F00000000000000000000000000000000000A9
:0C58000000430000180000200000000021
:08580C00D4A9FF7F0100000098
:10581400010000000000000001020304010203046F
:1058240006070809005700080000000000000000F7
:105834000000000000000000000000000000000064
:1058440000000000000000000158000800000000F3
:105854000000000000000000000000000000000044
:105864000000000000000000000000000000000034
:105874000000000000000000000000000000000024
:105884000000000000000000A901000885010008D4
:0400000508000000EF
:00000001FF
