S010000070617374696C64612E73726563C2
S3150800800000000220118B02080F8B0208078B02085A
S31508008010098B02080B8B02080D8B02080000000072
S3150800802000000000000000000000000031E0000829
S315080080300F8B020800000000D1E1000819E20008D1
S31508008040058B0208058B0208058B0208058B0208BA
S31508008050058B0208058B0208058B0208058B0208AA
S31508008060058B0208058B0208058B0208058B02089A
S31508008070058B0208058B0208058B0208058B02088A
S31508008080058B0208058B0208058B0208058B02087A
S31508008090058B0208058B0208058B0208058B02086A
S315080080A0058B0208058B0208058B0208058B02085A
S315080080B0058B0208058B0208058B0208058B02084A
S315080080C0058B0208058B0208058B0208058B02083A
S315080080D0058B0208058B0208058B0208058B02082A
S315080080E0058B0208058B0208058B0208058B02081A
S315080080F0058B0208058B0208058B0208058B02080A
S31508008100058B0208D9A70008058B0208058B02080B
S31508008110058B0208058B0208058B0208058B0208E9
S31508008120058B0208058B0208058B0208E5A70008DF
S31508008130058B0208058B0208058B0208058B0208C9
S31508008140058B0208058B0208058B0208FD680108E5
S31508008150058B0208058B0208058B0208058B0208A9
S31508008160058B0208058B0208058B0208058B020899
S31508008170058B0208058B0208058B0208058B020889
S31508008180058B0208058B0208058B0208058B020879
S31508008190058B0208058B0208058B0208058B020869
S315080081A0058B0208058B0208058B020880B582B08C
S315080081B000AF7860786851F0E3F803461846083748
S315080081C0BD4680BD80B582B000AF786039603B6837
S315080081D0002B04D03868FFF7E9FF024600E00022CA
S315080081E07B681A607B683A685A607B681846083765
S315080081F0BD4680BD80B483B000AF78607B681B68DD
S3150800820018460C37BD465DF8047B704780B483B0CA
S3150800821000AF78607B680C3318460C37BD465DF8AE
S31508008220047B704780B483B000AF78607B68043302
S3150800823018460C37BD465DF8047B704780B483B09A
S3150800824000AF78607B68143318460C37BD465DF876
S31508008250047B704780B483B000AF78607B681C33BA
S3150800826018460C37BD465DF8047B704780B483B06A
S3150800827000AF78607B6800221A607B68124A043374
S3150800828092E8030083E803007B680F4A0C3392E800
S31508008290030083E803007B680B4A143392E8030063
S315080082A083E803007B68084A1C3392E8030083E8E6
S315080082B003007B68002283F824207B6818460C3765
S315080082C0BD465DF8047B7047B015002080B483B0C6
S315080082D000AF78607B6818460C37BD465DF8047BAE
S315080082E0704700BF80B483B000AF78607B68002217
S315080082F01A607B6800225A607B6818460C37BD46B0
S315080083005DF8047B704700BF80B582B000AF786027
S3150800831039607B6804331846FFF7E4FF7B680C3343
S315080083201846FFF7DFFF7B6814331846FFF7DAFFB6
S315080083307B681C331846FFF7D5FF3868FFF75AFFE6
S3150800834002467B681A603868FFF76CFF02467B684E
S31508008350043392E8030083E803003868FFF756FF02
S3150800836002467B680C3392E8030083E8030038680A
S31508008370FFF764FF02467B68143392E8030083E83C
S3150800838003003868FFF766FF02467B681C3392E8ED
S31508008390030083E803007B68002283F824207B68B7
S315080083A018460837BD4680BD80B483B000AF7860F4
S315080083B00B46FB707B68FA7883F8242000BF0C37DD
S315080083C0BD465DF8047B704780B582B000AF786023
S315080083D039607B68012B08D13B684FF6FF729342E0
S315080083E003D104490448FFF7EDFE00BF0837BD4630
S315080083F080BD00BFD85A0608B015002080B500AF6A
S315080084004FF6FF710120FFF7DFFF80BD80B400AF94
S31508008410034B1B78DBB21846BD465DF8047B7047F4
S31508008420041C002080B483B000AFEFF311824FF034
S31508008430BF0383F31188BFF36F8FBFF34F8F7A6043
S315080084403B6000BF18460C37BD465DF8047B704795
S3150800845080B485B000AF78607B68FB60FB6883F307
S31508008460118800BF1437BD465DF8047B704700BF0E
S3150800847080B582B000AF786000F006FA04490020A3
S3150800848005F0A6F87B6818460837BD4680BD00BFCC
S31508008490B815002090B585B000AF786039604FF404
S315080084A00072002138684FF043F900F0ADF8034632
S315080084B01A467B689A4294BF01230023DBB2002B3D
S315080084C001D0012342E0FFF7A1FF0346002B02D0AB
S315080084D0FFF7A8FFF8607B685B024FF000041A46B6
S315080084E02346386800F044FA0346002B0CBF0123E4
S315080084F00023DBB2002B1FD000F0B2FC0346002B92
S315080085000CBF01230023DBB2002B15D000F068FD59
S315080085100346002B14BF01230023DBB2002B00D037
S31508008520F4E7FFF773FF0346002B03D0FB681846F2
S31508008530FFF78EFF002309E0FFF768FF0346002BCD
S3150800854003D0FB681846FFF783FF01231846143744
S31508008550BD4690BD90B585B000AF7860396000F033
S3150800856053F803461A467B689A4294BF01230023B0
S31508008570DBB2002B01D0012342E0FFF747FF034699
S31508008580002B02D0FFF74EFFF8607B685B024FF0C6
S3150800859000041A462346386800F078FA0346002B8A
S315080085A00CBF01230023DBB2002B1FD000F0B8FC60
S315080085B00346002B0CBF01230023DBB2002B15D08A
S315080085C000F00EFD0346002B14BF01230023DBB287
S315080085D0002B00D0F4E7FFF719FF0346002B03D062
S315080085E0FB681846FFF734FF002309E0FFF70EFF84
S315080085F00346002B03D0FB681846FFF729FF012323
S3150800860018461437BD4690BD90B400AF054AD2E966
S3150800861012124B0A43EAC253540A1846BD4690BC86
S31508008620704700BF4818002080B582B000AF786058
S31508008630396001223968786804F0F4FF0346184661
S315080086400837BD4680BD00BF80B582B000AF7860F0
S31508008650786805F081FB034618460837BD4680BD95
S3150800866080B586B000AFF860B9607A6007F1140388
S315080086707A68B968F86805F047F90346184618375E
S31508008680BD4680BD80B584B000AFF8603B1D83E869
S315080086900600F8683B1D93E8060008F0F7F8FB6843
S315080086A000220121184608F04DF9FB6818461037D4
S315080086B0BD4680BD80B582B000AF78607B6818463D
S315080086C008F01EF900BF0837BD4680BD80B582B0E8
S315080086D000AF78607B68184608F002F900BF0837D3
S315080086E0BD4680BD90B589B000AF78607B68012231
S315080086F01A732B4A07F1080392E8030083E803007C
S3150800870008200DF045FC03461C4607F1080393E8CC
S3150800871006002046FFF7B6FF7B681C60214A07F172
S31508008720100392E8030083E8030008200DF030FCEC
S3150800873003461C4607F1100393E806002046FFF798
S31508008740A1FF7B685C60184A07F1180392E80300EA
S3150800875083E8030008200DF01BFC03461C4607F1BE
S31508008760180393E806002046FFF78CFF7B689C6099
S315080087707B6811E00821204621F02EFB21F084FBBE
S315080087800821204621F028FB21F07EFB08212046FF
S3150800879021F022FB21F078FB18462437BD4690BD10
S315080087A0DC5A0608E45A0608EC5A060880B584B06E
S315080087B000AF78600B46FB70FB78FB730023BB6049
S315080087C0BB68022B1ADCFB7B03F00103002B07D0E6
S315080087D07B68BA6853F822301846FFF76BFF06E045
S315080087E07B68BA6853F822301846FFF76FFFFB7BA1
S315080087F05B10FB73BB680133BB60E1E700BF103752
S31508008800BD4680BD80B584B000AF78600023FB60AC
S31508008810FB68022B0ADC7B68FA6853F82230184694
S31508008820FFF754FFFB680133FB60F1E700BF103721
S31508008830BD4680BD80B584B000AF78607868FFF724
S31508008840E1FF7B681B7B19467868FFF7AFFF7B68FB
S315080088501B7B0133FB73FB7B072B01D90123FB73BE
S315080088607B68FA7B1A7300BF1037BD4680BD00BF10
S3150800887080B483B000AF78607B6818460C37BD4675
S315080088805DF8047B704700BF90B583B000AF01F078
S3150800889053FE0023FB7120F075F8324B00225A7004
S315080088A0304B00229A802F4B7622DA712D4B00220C
S315080088B01A702C4B00229A712A4B00229A7029486A
S315080088C020F064F800F038FC0346FB71FB79002BB6
S315080088D001D0FB7941E000F023FD0346FB71FB79EB
S315080088E0002B01D0FB7938E01E4B00225A701D4B35
S315080088F000229A801B4B0022DA711A4B00221A704A
S31508008900184B00229A71174B00229A70154820F0CE
S315080089103DF8154800F0B6FD0346FB71FB79002BC0
S315080089200BD1114BB3F854301B044FF00004184612
S31508008930214601F081F80346FB71FB79002B05D12E
S315080089404FF4006001F09CF80346FB71FB79002B9D
S3150800895002D1064B01221A70FB7918460C37BD4620
S3150800896090BD00BF2018002048180020A01800203D
S31508008970B0B586B000AFF860C7E900230023FB75E1
S315080089803B4B00221A703B4B00221A603A4B0022DE
S315080089901A603A4B00221A6040F22A3020F092F808
S315080089A020F088F84FF40071F86801F0A3FE344B04
S315080089B01B68022B07D1D7E90023540A44EAC3549B
S315080089C05D0AC7E900452F4B10221A702D4B4FF44C
S315080089D000725A602B4B40221A722A4B00225A7296
S315080089E0284B01229A7227481FF0FEFF102001F03B
S315080089F0C1F90346FB75FB7D002B01D0FB7D33E0F7
S31508008A00214B01225A72204B4FF0FF321A601E4B3F
S31508008A1090221A721C4B4FF400725A601A4B0022AD
S31508008A209A72194B0122DA72174820F01DF8154B75
S31508008A3011221A703B68134A5360124B40221A726D
S31508008A40104B00225A720F4B01229A720D481FF0E2
S31508008A50CBFF112001F08EF90346FB75FB7D002B39
S31508008A6001D0FB7D00E0FB7D18461837BD46B0BD3A
S31508008A701418002018180020101800202C2C01406B
S31508008A80E81700202818002034180020B0B586B052
S31508008A9000AFF860C7E900230023FB753B4B0022B3
S31508008AA01A703B4B00221A603A4B00221A603A4B66
S31508008AB000221A6040F22A3020F004F81FF0FAFF6C
S31508008AC04FF40071F86801F0A3FD344B1B68022BC4
S31508008AD007D1D7E90023540A44EAC3545D0AC7E913
S31508008AE000452F4B10221A702D4B4FF400725A6016
S31508008AF02B4B40221A722A4B00225A72284B01220B
S31508008B009A7227481FF070FF102001F033F90346C8
S31508008B10FB75FB7D002B01D0FB7D33E0204B182233
S31508008B201A703B681E4A53601D4B40221A721C4B32
S31508008B3000225A721A4B01229A7219481FF054FFE2
S31508008B40182001F017F90346FB75FB7D002B01D0B1
S31508008B50FB7D17E0134B00225A72124B4FF0FF327F
S31508008B601A60104B90221A720E4B4FF400725A601C
S31508008B700C4B00229A720B4B0122DA7209481FF03D
S31508008B8073FFFB7D18461837BD46B0BD1418002084
S31508008B9018180020101800202C2C0140E817002077
S31508008BA02818002034180020B0B586B000AFF86049
S31508008BB0C7E900230023FB753C4B00221A703C4B87
S31508008BC000221A603B4B01221A603B4B00221A60B6
S31508008BD040F22A301FF076FF1FF06CFFBB6A5B027B
S31508008BE01946F86801F086FD344B1B68022B07D13D
S31508008BF0D7E90023540A44EAC3545D0AC7E9004585
S31508008C002F4B10221A702E4B4FF400725A602C4BC1
S31508008C1040221A722A4B00225A72294B01229A7252
S31508008C2027481FF0E1FE102001F0A4F80346FB7563
S31508008C30FB7D002B01D0FB7D33E0224B01225A72CB
S31508008C40204B4FF0FF321A601E4B90221A72BB6AF5
S31508008C505B021C4A53601B4B00229A72194B012275
S31508008C60DA7218481FF000FF154B12221A703B687B
S31508008C70134A5360124B40221A72114B00225A7241
S31508008C800F4B01229A720E481FF0AEFE122001F019
S31508008C9071F80346FB75FB7D002B01D0FB7D00E0D8
S31508008CA0FB7D18461837BD46B0BD00BF1418002016
S31508008CB018180020101800202C2C0140E817002056
S31508008CC02818002034180020B0B586B000AFF86028
S31508008CD0C7E900230023FB75594B00221A70594B2C
S31508008CE000221A60584B01221A60584B00221A605B
S31508008CF040F22A301FF0E6FE1FF0DCFEBB6A5B027C
S31508008D001946F86801F084FC514B1B68022B07D101
S31508008D10D7E90023540A44EAC3545D0AC7E9004563
S31508008D204C4B10221A704B4B4FF400725A60494B49
S31508008D3040221A72474B00225A72464B01229A72F7
S31508008D4044481FF051FE102001F014F80346FB7545
S31508008D50FB7D002B01D0FB7D6DE03E4B37221A7060
S31508008D603D4B1B681B043B4A53603A4B40221A7220
S31508008D70384B00225A72374B01229A7235481FF037
S31508008D8033FE372000F0F6FF0346FB75FB7D002B0C
S31508008D9001D0FB7D4FE02F4B17221A702D4ABB6A74
S31508008DA053602C4B40221A722A4B00225A72294BC6
S31508008DB001229A7227481FF017FE172000F0DAFFE3
S31508008DC00346FB75FB7D002B01D0FB7D33E0214B71
S31508008DD019221A703B681F4A53601E4B40221A72AA
S31508008DE01C4B00225A721B4B01229A7219481FF01B
S31508008DF0FBFD192000F0BEFF0346FB75FB7D002B2B
S31508008E0001D0FB7D17E0154B00225A72134B4FF029
S31508008E10FF321A60114B90221A72BB6A5B020F4A24
S31508008E2053600E4B00229A720C4B0122DA720B48E1
S31508008E301FF01AFEFB7D18461837BD46B0BD00BFA9
S31508008E401418002018180020101800202C2C014097
S31508008E50E8170020281800200C18002034180020D5
S31508008E6080B582B000AF0023FB704FF0FF337B6004
S31508008E70264B1B68002B0ED1254B1B68002B0AD1ED
S31508008E80244B1B78002B06D17B68002B03D07B680C
S31508008E90013B7B60ECE71D4B00221A604FF0FF3365
S31508008EA07B601D4B1B6803F40053002B04D07B68C2
S31508008EB0002B01D0012300E00023002B03D07B68A0
S31508008EC0013B7B60EDE7154B1B68012B06D100F0D3
S31508008ED047FE0346FB70114B00221A607B68002B85
S31508008EE004D1FB78002B01D10423FB7040F2FF501C
S31508008EF01FF002FE074B1B78002B02D0054B1B7890
S31508008F0000E0FB7818460837BD4680BD1C180020CF
S31508008F101818002014180020342C014010180020BE
S31508008F2080B582B000AF0023FB704FF0FF337B6043
S31508008F30264B1B68002B0ED1254B1B68002B0AD12C
S31508008F40244B1B78002B06D17B68002B03D07B684B
S31508008F50013B7B60ECE71D4B00221A604FF0FF33A4
S31508008F607B601D4B1B6803F48053002B04D07B6881
S31508008F70002B01D0012300E00023002B03D07B68DF
S31508008F80013B7B60EDE7154B1B68012B06D100F012
S31508008F90E7FD0346FB70114B00221A607B68002B25
S31508008FA004D1FB78002B01D10423FB7040F2FF505B
S31508008FB01FF0A2FD074B1B78002B02D0054B1B7830
S31508008FC000E0FB7818460837BD4680BD1C1800200F
S31508008FD01818002014180020342C014010180020FE
S31508008FE080B582B000AF04237B6000F017FE03460D
S31508008FF07B607B68042B01D1002305E07B68FF2B8F
S3150800900001D1022300E0012318460837BD4680BD7A
S3150800901080B582B000AF0123FB71094807F080FCD8
S315080090200346002B14BF01230023DBB2002B01D01B
S315080090300023FB71FB7918460837BD4680BD00BF83
S315080090404018002080B500AF4FF480701FF04AFD2D
S315080090500346002B0AD02A4B00221A704FF4807060
S315080090601FF04AFD274B01221A6041E002201FF03B
S3150800907039FD0346002B06D002201FF03DFD204B8C
S3150800908002221A7034E008201FF02CFD0346002B3C
S3150800909006D008201FF030FD194B04221A7027E06D
S315080090A020201FF01FFD0346002B06D020201FF0AE
S315080090B023FD134B06221A701AE010201FF012FD2A
S315080090C00346002B06D010201FF016FD0C4B052278
S315080090D01A700DE04FF400701FF004FD0346002BD4
S315080090E006D04FF400701FF007FD054B07221A70D3
S315080090F04CF23A301FF0EEFC014B1B78184680BD47
S31508009100141800201818002080B500AF202203216B
S3150800911007481EF036FA0346002B07D0054B0122F6
S315080091201A602122032102481EF01CFA00BF80BDE6
S31508009130006402401C18002080B586B000AF0023EA
S31508009140FB7100237B6100233B610023FB60002346
S31508009150BB601FF043FC1FF039FC6F4B00221A70EE
S315080091606D4B00225A606C4B00221A726A4B002221
S315080091705A72694B01229A7267481FF035FC00F053
S3150800918075FD0346FB71FB79002B01D0FB79BEE028
S31508009190614B08221A70604B4FF4D5725A605E4BC9
S315080091A040221A725C4B00225A725B4B01229A7259
S315080091B059481FF019FC00F087FD0346FB71FB793F
S315080091C0002B06D1554B01221A604FF08043BB6035
S315080091D016E0514B37221A704F4B00225A604E4BFD
S315080091E040221A724C4B00225A724B4B01229A7239
S315080091F049481FF0F9FB372000F0BCFD0346FB7118
S31508009200454B37221A70444B00225A60424B402283
S315080092101A72414B00225A723F4B01229A723E48FB
S315080092201FF0E2FB372000F0A5FD0346FB71FB7932
S31508009230002B6BD1FB68002B4FD13B694FF6FE72B2
S3150800924093424AD8344B37221A70334B00225A605D
S31508009250314B40221A72304B00225A722E4B012291
S315080092609A722D481FF0C0FB372000F083FD034695
S31508009270FB71FB79002B01D0FB7948E0264B2922AC
S315080092801A70BB6843F0004343F48013224A5360C4
S31508009290214B40221A72204B00225A721E4B012281
S315080092A09A721D481FF0A0FB00F050FE0346FB71A2
S315080092B0FB79002B01D0FB7929E01FF0BDFB0346A3
S315080092C07B617B69DB0F012B01D1012300E00023C1
S315080092D0FB603B6901333B61ACE73B694FF6FE72C5
S315080092E0934203D91B23FB71FB7910E04FF08042B0
S315080092F07B6913407B617B69002B14BF0123002324
S31508009300DBB2002B02D0054B02221A60FB79184605
S315080093101837BD4680BD00BF28180020E817002072
S3150800932080B582B000AF0023FB710123BB80504B90
S315080093301B68042B2ED04F4B02221A704D4B00226D
S315080093405A604C4BC0221A724A4B00225A72494B39
S3150800935001229A7247481FF047FB00F033FE034686
S31508009360FB71FB79002B01D0FB797DE01FF064FBD4
S315080093700246414B1A601FF065FB02463E4B5A6097
S315080093801FF066FB02463C4B9A601FF067FB0246DD
S31508009390394BDA60364B1B68002B0BD0344B1B68F5
S315080093A0012B07D0324B1B68062B03D0304B1B68AA
S315080093B0022B1DD12F4B03221A702E4B00225A6006
S315080093C02C4B40221A722B4B00225A72294B01222F
S315080093D09A7228481FF008FB3B1D1946032000F027
S315080093E03BFE0346FB71FB79002B01D0FB793BE082
S315080093F01F4B1B68042B34D0BB881A461F4B1A60B8
S315080094001C4B09221A70BB881B041A46194B5A6052
S31508009410184BC0221A72174B00225A72154B01229A
S315080094209A7214481FF0E0FA00F0CCFD0346FB716F
S31508009430FB79002B01D0FB7916E01FF0FDFA0246F6
S315080094400F4B1A601FF0FEFA02460D4B5A601FF0CA
S31508009450FFFA02460A4B9A601FF000FB0246084BC9
S31508009460DA600023FB71FB7918460837BD4680BDD4
S31508009470E817002028180020FC1700200C180020E8
S31508009480EC170020B0B485B000AF78600022FA73FC
S315080094900022BA738B4A1268D1B27A6882F85610DB
S315080094A0894A126891B27A68A2F85410874A1268F3
S315080094B0120ED2B2BA73BA7B9209D1B27A68117017
S315080094C0BA7B9210D2B202F00F02D1B27A6851700A
S315080094D0BA7B02F00302D1B27A6891707B4A1268AD
S315080094E0120CD2B2BA73B97B7A68D170774A12680D
S315080094F0120AD2B2BA73B97B7A681171734A1268C2
S31508009500D2B2BA73B97B7A685171704A5268120E30
S31508009510D2B2BA73BA7B92B2120191B27A68D1808A
S315080095206A4A5268120CD2B2BA737A68D188BA7B80
S315080095301209D2B292B20A4391B27A68D180BA7B42
S3150800954002F00F02D1B27A681172604A5268120AA2
S31508009550D2B2BA73BA7BD209D1B27A685172BA7BDF
S315080095609211D2B202F00102D1B27A689172BA7B34
S315080095705211D2B202F00102D1B27A68D172BA7B24
S315080095801211D2B202F00102D1B27A6811737A6866
S31508009590002151734B4A1268002A04D0494A1268BE
S315080095A0012A40F09580BB7B9B0203F440627B68EE
S315080095B01A61464B5B68DBB2BB737B681B69BA7B77
S315080095C092001A437B681A61404B9B681B0EDBB2FC
S315080095D0BB737B681B69BA7B9209D2B21A437B6854
S315080095E01A61BB7BDB10DBB203F00703DAB27B68D8
S315080095F01A75BB7B03F00703DAB27B685A75334BDF
S315080096009B681B0CDBB2BB73BB7B5B09DAB27B685E
S315080096109A75BB7B9B10DBB203F00703DAB27B6853
S31508009620DA75BB7B5B00DBB203F00603DAB27B6854
S315080096301A76264B9B681B0ADBB2BB737B681A7EBD
S31508009640BB7BDB09DBB21343DAB27B681A767B682D
S315080096501B6901334FF000047A68C2E912347B684B
S31508009660D3E912127B681B7E0233012000FA03F34A
S315080096704FEAE37403FB02F501FB04F02844A1FB5F
S315080096800334021914467A68C2E912347B681B7AD5
S315080096901A46012393401A467B681A657B68D3E904
S315080096A012127B681B6D4FF0000403FB02F501FBE9
S315080096B004F02844A1FB0334021914467A68C2E967
S315080096C0123442E0E81700200C180020EC1700209E
S315080096D0A14A1268022A38D1A04A5268D2B2BA738D
S315080096E0BA7B120402F47C117A6811619B4A92686B
S315080096F0120ED2B2BA737A681269B97B090211439B
S315080097007A681161954A9268120CD2B2BA737A686D
S315080097101269B97B11437A681161904A9268120AF4
S31508009720D2B2BA737A68126911464FF00002013153
S3150800973042F10002D40444EA5134CB047A68C2E9FF
S3150800974012347B684FF400721A65BB7B9B11DBB23F
S3150800975003F00103DAB27B685A76BB7B5B00DBB2A7
S3150800976003F07E03DAB27B689A767C4B9B68DBB2A1
S31508009770BB737B689A7EBB7BDB09DBB21343DAB229
S315080097807B689A76BB7B03F07F03DAB27B68DA766E
S31508009790724BDB681B0EDBB2BB73BB7BDB09DAB231
S315080097A07B681A77BB7B5B11DBB203F00303DAB283
S315080097B07B685A77BB7B9B10DBB203F00703DAB2F0
S315080097C07B689A77BB7B9B00DBB203F00C03DAB2AB
S315080097D07B68DA77614BDB681B0CDBB2BB737B6893
S315080097E0DA7FBB7B9B09DBB21343DAB27B68DA7795
S315080097F0BB7B5B11DBB203F00103DAB27B6883F84B
S3150800980020207B68002283F82120BB7B03F001031C
S31508009810DAB27B6883F82220504BDB681B0ADBB27E
S31508009820BB73BB7BDB09DAB27B6883F82320BB7B7F
S315080098309B11DBB203F00103DAB27B6883F82420BC
S31508009840BB7B5B11DBB203F00103DAB27B6883F8FA
S315080098502520BB7B1B11DBB203F00103DAB27B6860
S3150800986083F82620BB7B9B10DBB203F00303DAB236
S315080098707B6883F82720BB7B03F00303DAB27B6897
S3150800988083F82820354BDB68DBB2BB73BB7B5B08F0
S31508009890DAB27B6883F829207B68012283F82A20BC
S315080098A02F4B1B681B0EDBB2BB73BA7B7B6883F836
S315080098B02C202B4B1B681B0CDBB2BB73BB7B9BB2F0
S315080098C01B029AB27B68DA85254B1B681B0ADBB23A
S315080098D0BB737B68DA8DBB7B9BB213439AB27B68FA
S315080098E0DA851F4B1B68DBB2BB73BB7B1B061A46AC
S315080098F07B681A631A4B5B681B0EDBB2BB737B680B
S315080099001B6BBA7B12041A437B681A63144B5B6899
S315080099101B0CDBB2BB737B681B6BBA7B12021A4348
S315080099207B681A630E4B5B681B0ADBB2BB737B68EA
S315080099301B6BBA7B1A437B681A63094B5B68DBB2FD
S31508009940BB73BA7B7B6883F83420054B9B681B0E78
S31508009950DBB2BB73BA7B05E0E8170020EC170020E2
S31508009960FC1700207B6883F83520324B9B681B0C5C
S31508009970DBB2BB73BB7B1B061A467B689A632D4B0F
S315080099809B681B0ADBB2BB737B689B6BBA7B1204B2
S315080099901A437B689A63274B9B68DBB2BB737B6869
S315080099A09B6BBA7B12021A437B689A63214BDB686E
S315080099B01B0EDBB2BB737B689B6BBA7B1A437B6857
S315080099C09A631C4BDB681B0CDBB2BB737B6893F892
S315080099D03C20BB7B1B09DBB21343DAB27B6883F8F6
S315080099E03C20BB7B1B029BB203F470639AB27B6874
S315080099F0DA87104BDB681B0ADBB2BB737B68DA8F2E
S31508009A00BB7B9BB213439AB27B68DA87094BDB6848
S31508009A10DBB2BB73BB7B5B08DAB27B6883F840209A
S31508009A207B68012283F84120FB7B18461437BD4624
S31508009A30B0BC7047FC17002080B584B000AFC7E9FA
S31508009A4000010E4B07221A703B680C4A53600B4BF9
S31508009A5040221A72094B00225A72084B01229A7246
S31508009A6006481EF0C1FF072000F084F90346FB7381
S31508009A70FB7B18461037BD4680BD00BF281800205E
S31508009A8080B584B000AF0346FB800023FB73324BDE
S31508009A901B68032B03D12723FB73FB7B57E02E4B55
S31508009AA01B68002B07D02C4B1B68012B03D02A4BB5
S31508009AB01B68022B4AD1FB88B3F5006F06D0B3F5B5
S31508009AC0805F22D12723FB73FB7B40E0012000F057
S31508009AD045FB0346FB73FB7B002B34D11F4B00224F
S31508009AE05A701E4B4FF400629A801C4B0022DA71A2
S31508009AF01A4B00221A70194B00229A71174B002232
S31508009B009A7016481EF042FF1DE0002000F026FB62
S31508009B100346FB73FB7B002B17D1104B00225A70B0
S31508009B200E4B00229A800D4B0022DA710B4B002255
S31508009B301A700A4B00229A71084B00229A7007483D
S31508009B401EF024FF01E000BF00E000BFFB7B1846C3
S31508009B501037BD4680BD00BFE8170020201800203A
S31508009B6080B582B000AF0023FB710E4B0C221A7031
S31508009B700C4B00225A600B4B40221A72094B0022EA
S31508009B805A72084B01229A7206481EF02DFF0C20C5
S31508009B9000F0F0F80346FB71FB7918460837BD4616
S31508009BA080BD00BF2818002080B584B000AF78605B
S31508009BB00023FB737B68002B03D12623FB73FB7BF7
S31508009BC023E0144B0D221A70134B1B681B04114A11
S31508009BD05360104B40221A720E4B00225A720D4BDC
S31508009BE001229A720B481EF0FFFE0D2000F0C2F803
S31508009BF00346FB73FB7B002B01D0FB7B05E01EF0C5
S31508009C001BFF02467B681A60FB7B18461037BD4669
S31508009C1080BD00BF281800200C18002080B582B02F
S31508009C2000AF00237B60FFF7F3F90346012B0CBF57
S31508009C3001230023DBB2002B12D03B1D1846FFF789
S31508009C40B3FF0346002B14BF01230023DBB2002B0E
S31508009C5001D0FF2305E07B685B0A03F00F0300E0F1
S31508009C60FF2318460837BD4680BD00BF80B582B0C1
S31508009C7000AF0023FB704FF480337B607B68002BBA
S31508009C800AD080201EF02EFF034683F00103DBB2C4
S31508009C90002B01D0012300E00023002B03D07B68B2
S31508009CA0013B7B60EAE77B68002B03D10323FB704B
S31508009CB0FB7804E040F2FF501EF01EFFFB781846C2
S31508009CC00837BD4680BD00BF80B582B000AF00230F
S31508009CD0FB704FF480337B6001201EF003FF0346C0
S31508009CE083F00103DBB2002B16D040201EF0FAFEEB
S31508009CF0034683F00103DBB2002B0DD004201EF0CF
S31508009D00F1FE034683F00103DBB2002B04D07B6827
S31508009D10002B01D0012300E00023002B03D07B6831
S31508009D20013B7B60D8E77B68002B05D004201EF03A
S31508009D30D9FE0346002B01D0012300E00023002BA7
S31508009D4006D00323FB7004201EF0D6FEFB780DE038
S31508009D5040201EF0C7FE0346002B06D00023FB70EA
S31508009D6040201EF0C9FEFB7800E0FB78184608374D
S31508009D70BD4680BD80B584B000AF0346FB710023A5
S31508009D80FB7201201EF0AEFE034683F00103DBB230
S31508009D90002B13D040201EF0A5FE034683F00103D6
S31508009DA0DBB2002B0AD004201EF09CFE034683F08B
S31508009DB00103DBB2002B01D0012300E00023002BB6
S31508009DC000D0DEE704201EF08DFE0346002B06D0E9
S31508009DD00323FB7204201EF08FFEFB7AAFE00120FE
S31508009DE01EF080FE0346002B06D00123FB720120DD
S31508009DF01EF082FEFB7AA2E01EF018FE03461A4603
S31508009E00FB79934214BF01230023DBB2002B03D056
S31508009E101023FB72FB7A92E040F2FF501EF06CFEB4
S31508009E201EF00AFE0346FB60FA68474B1340002BF8
S31508009E3001D1FB7A83E0FB68002B01DA1C237EE064
S31508009E40FB6803F08043002B01D0092377E0FB6809
S31508009E5003F00053002B01D00A2370E0FB6803F0DF
S31508009E608053002B01D00B2369E0FB6803F00063E5
S31508009E70002B01D00C2362E0FB6803F08063002B03
S31508009E8001D00D235BE0FB6803F08073002B01D043
S31508009E900E2354E0FB6803F40003002B01D00F23C4
S31508009EA04DE0FB6803F48003002B01D0102346E045
S31508009EB0FB6803F40013002B01D011233FE0FB6875
S31508009EC003F48013002B01D0122338E0FB6803F457
S31508009ED00023002B01D0132331E0FB6803F4802311
S31508009EE0002B01D014232AE0FB6803F40033002B6F
S31508009EF001D0152323E0FB6803F48033002B01D03F
S31508009F0016231CE0FB6803F40043002B01D017233B
S31508009F1015E0FB6803F48043002B01D018230EE0FC
S31508009F20FB6803F40053002B01D0192307E0FB68F4
S31508009F3003F00803002B01D01A2300E0FB7A184629
S31508009F401037BD4680BD00BF08E0FFFD80B582B072
S31508009F5000AF0023FB7101201EF0C4FD034683F009
S31508009F600103DBB2002B13D040201EF0BBFD0346D5
S31508009F7083F00103DBB2002B0AD004201EF0B2FDE9
S31508009F80034683F00103DBB2002B01D0012300E076
S31508009F900023002B00D0DEE704201EF0A3FD0346B5
S31508009FA0002B06D00323FB7104201EF0A5FDFB79C8
S31508009FB004E040F2FF501EF09FFDFB791846083773
S31508009FC0BD4680BD80B582B000AF0023FB7101207D
S31508009FD01EF088FD034683F00103DBB2002B13D085
S31508009FE040201EF07FFD034683F00103DBB2002B01
S31508009FF00AD004201EF076FD034683F00103DBB287
S3150800A000002B01D0012300E00023002B00D0DEE75F
S3150800A01004201EF067FD0346002B06D00323FB71C0
S3150800A02004201EF069FDFB7911E001201EF05AFD9F
S3150800A0300346002B06D00123FB7101201EF05CFDB0
S3150800A040FB7904E040F2FF501EF056FDFB791846F6
S3150800A0500837BD4680BD00BF80B584B000AF034653
S3150800A0603960FB710023FB7201201EF03BFD03469D
S3150800A07083F00103DBB2002B13D040201EF032FD23
S3150800A080034683F00103DBB2002B0AD004201EF03E
S3150800A09029FD034683F00103DBB2002B01D001231F
S3150800A0A000E00023002B00D0DEE704201EF01AFD96
S3150800A0B00346002B06D00323FB7204201EF01CFD6A
S3150800A0C0FB7A46E001201EF00DFD0346002B06D064
S3150800A0D00123FB7201201EF00FFDFB7A39E01EF00A
S3150800A0E0A5FC03461A46FB79934214BF01230023B5
S3150800A0F0DBB2002B03D01023FB72FB7A29E040F277
S3150800A100FF501EF0F9FC1EF097FC0346FB60FB6847
S3150800A11003F46043002B06D1FB681B0C9AB23B681C
S3150800A1201A80FB7A15E0FB6803F40053002B01D074
S3150800A13013230EE0FB6803F48043002B01D01023A1
S3150800A14007E0FB6803F40043002B01D00F2300E06F
S3150800A150FB7A18461037BD4680BD00BF80B586B06D
S3150800A16000AF0346FB710023FB750023FB60002349
S3150800A1703B611EF061FC034603F00073002B14BF1D
S3150800A18001230023DBB2002B03D00E23FB75FB7DD6
S3150800A1909FE040F2FF501EF0AFFC504B1B689BB28D
S3150800A1A007F10C021146184600F09CF80346FB75A9
S3150800A1B0FB7D002B01D0FB7D8BE0FB79002B44D087
S3150800A1C03B6903F48023002B3BD0454B37221A709A
S3150800A1D0424B1B681B04424A5360414B40221A7289
S3150800A1E03F4B00225A723E4B01229A723C481EF09F
S3150800A1F0FBFB3720FFF7BEFD0346FB75FB7D002BF7
S3150800A20001D0FB7D65E0364B06221A70344B0222DC
S3150800A2105A60334B40221A72314B00225A72304B25
S3150800A22001229A722E481EF0DFFB0620FFF7A2FDD8
S3150800A2300346FB75FB7D002B01D0FB7D49E0FB7DCA
S3150800A24047E02523FB75FB7D43E03B6903F4803338
S3150800A250002B3BD0224B37221A70204B1B681B045D
S3150800A2601F4A53601E4B40221A721D4B00225A7217
S3150800A2701B4B01229A721A481EF0B6FB3720FFF7CD
S3150800A28079FD0346FB75FB7D002B01D0FB7D20E0A5
S3150800A290134B06221A70124B00225A60104B4022AA
S3150800A2A01A720F4B00225A720D4B01229A720C48F1
S3150800A2B01EF09AFB0620FFF75DFD0346FB75FB7D46
S3150800A2C0002B01D0FB7D04E0FB7D02E02523FB7516
S3150800A2D0FB7D18461837BD4680BD00BF0C18002008
S3150800A2E02818002090B587B000AF03463960FB8078
S3150800A2F000237B610023FB740023BB600023FB6003
S3150800A3008A4B10221A70894B08225A60874B4022C2
S3150800A3101A72864B00225A72844B01229A7283481B
S3150800A3201EF062FB1020FFF725FD0346FB74FB7C3D
S3150800A330002B01D0FB7CF5E07C4B37221A707C4B56
S3150800A3401B681B04794A5360784B40221A72774B74
S3150800A35000225A72754B01229A7274481EF044FB09
S3150800A3603720FFF707FD0346FB74FB7C002B01D063
S3150800A370FB7CD7E06F4B01225A726E4B4FF0FF32CF
S3150800A3801A606C4B30221A726A4B08225A60694B63
S3150800A39000229A72674B0122DA7266481EF064FB45
S3150800A3A0624B33221A70614B00225A605F4B40227F
S3150800A3B01A725E4B00225A725C4B01229A725B48F3
S3150800A3C01EF012FB3320FFF7D5FC0346FB74FB7C1B
S3150800A3D0002B01D0FB7CA5E020201EF083FB034662
S3150800A3E083F00103DBB2002B27D002201EF07AFB94
S3150800A3F0034683F00103DBB2002B1ED008201EF0B3
S3150800A40071FB034683F00103DBB2002B15D04FF432
S3150800A41080601EF067FB034683F00103DBB2002B66
S3150800A4200BD04FF400701EF05DFB034683F001036A
S3150800A430DBB2002B01D0012300E00023002B13D050
S3150800A4404FF400101EF04EFB0346002BC4D07B6968
S3150800A4509B0007F10802D4181EF026FB034623606A
S3150800A4607B6901337B61B7E708201EF03BFB034697
S3150800A470002B06D008201EF03FFB0423FB74FB7C50
S3150800A48050E002201EF02EFB0346002B06D00220C9
S3150800A4901EF032FB0223FB74FB7C43E020201EF0F7
S3150800A4A021FB0346002B06D020201EF025FB0623A1
S3150800A4B0FB74FB7C36E04FF400701EF013FB03467A
S3150800A4C0002B07D04FF400701EF016FB0723FB7411
S3150800A4D0FB7C27E040F2FF501EF00EFB3B6804337E
S3150800A4E0BA681106BA68120202F47F021143BA6802
S3150800A4F0120A02F47F421143BA68120E0A431A601E
S3150800A5003B68FA681106FA68120202F47F021143E0
S3150800A510FA68120A02F47F421143FA68120E0A43D5
S3150800A5201A60FB7C18461C37BD4690BD28180020CB
S3150800A5300C18002034180020B0B590B000AF314B8D
S3150800A54007F10C041D460FCD0FC40FCD0FC495E8B7
S3150800A5500F0084E80F003B1D1846FEF789F9002313
S3150800A56087F83F3097F83F30052B2DD897F83F30BE
S3150800A570DB0007F140021344381D343B93E806001C
S3150800A58006F09AF93B1D0C21184606F053FA97F87F
S3150800A5903F30052B06D03B1D01220221184606F046
S3150800A5A0D1F905E03B1D00220221184606F0CAF93A
S3150800A5B03B1D02220021184606F002FA97F83F30A2
S3150800A5C0013387F83F30CDE70F4B93E806000F4875
S3150800A5D006F072F9012200210C4806F0B3F90021B1
S3150800A5E031201EF021FB80213B201EF01DFB31206F
S3150800A5F01EF0FEFA3B201EF0FBFA00BF4037BD46B0
S3150800A600B0BD00BFFC5A0608F45A060840180020D8
S3150800A61080B582B000AF78603960012203213348E3
S3150800A6201CF0A0FF032131481DF056F803212F48DE
S3150800A6301CF072FF4FF0006203212C481CF0FCFF4F
S3150800A6402B4A032129481DF050F87B681A46032136
S3150800A65026481DF052F84022032124481CF0A5FF85
S3150800A6603B689BB21A46032120481DF053F8032184
S3150800A6701E481CF0D8FF03211C481CF0CBFF4FF4E2
S3150800A6808052032119481CF0B9FF4FF48042032178
S3150800A69016481CF0A7FF4FF44032032113481CF05C
S3150800A6A095FF032111481CF0FBFF032203210F48E5
S3150800A6B01CF0FFFF4FF4000203210C481CF0C4FFF6
S3150800A6C04FF40012032109481CF0C8FF032107486C
S3150800A6D01CF0D7FF032105481CF0CAFF03210348D5
S3150800A6E01CF0F1FF00BF0837BD4680BD006402407C
S3150800A6F0802C014080B582B000AF786039600122B5
S3150800A700032133481CF02EFF032131481CF0E4FFD7
S3150800A71003212F481CF000FF4FF0006203212C484C
S3150800A7201CF08AFF2B4A032129481CF0DEFF7B68B0
S3150800A7301A46032126481CF0E0FF0022032124487C
S3150800A7401CF033FF3B689BB21A46032120481CF0D5
S3150800A750E1FF03211E481CF066FF03211C481CF07C
S3150800A76059FF4FF48052032119481CF047FF4FF454
S3150800A7708042032116481CF035FF4FF4403203216E
S3150800A78013481CF023FF032111481CF089FF0322FC
S3150800A79003210F481CF08DFF4FF4000203210C48DB
S3150800A7A01CF052FF4FF40012032109481CF056FF13
S3150800A7B0032107481CF065FF032105481CF058FFD4
S3150800A7C0032103481CF07FFF00BF0837BD4680BD44
S3150800A7D000640240802C014080B500AFFEF732FCD1
S3150800A7E000BF80BD80B500AFFEF78EFC00BF80BD00
S3150800A7F080B582B000AF786039607B68012B07D1DD
S3150800A8003B684FF6FF72934202D10348FEF730F8D1
S3150800A81000BF0837BD4680BD4018002080B500AF90
S3150800A8204FF6FF710120FFF7E3FF80BDB0B500AF1B
S3150800A830174B1B6803F00103002B18D114481FF0AF
S3150800A840A3FC0346002B14BF01230023DBB2002B15
S3150800A8500DD0002501200BF09BFB03461C46204625
S3150800A860FDF706FE0B4B1C6009481FF0ADFC094BB3
S3150800A8701B680BE0012120461FF0AEFAFFE7002D0A
S3150800A88002D103481FF09CFC1FF0FEFA1846B0BD23
S3150800A890A8180020A418002080B58AB004AF7860F4
S3150800A8A01E4B07F1100093E8060005F0EFFF1C4B5E
S3150800A8B007F1080093E8060005F0E8FF07F1100322
S3150800A8C000220221184606F03DF807F10803002287
S3150800A8D00221184606F036F807F110030A21184631
S3150800A8E006F0A8F807F108030A21184606F0A2F8A8
S3150800A8F07B6804334FF4FA720292019303230093A0
S3150800A900084B094A09490A481DF06EF802467B6851
S3150800A9101A607B6818461837BD4680BD2C5B06084A
S3150800A920345B06082C5C06081C5C06088C5B06086B
S3150800A930808E060890B58BB008AF7860FFF776FF73
S3150800A9407B681C68FDF760FE03461A460B4B0693A8
S3150800A9500B4B059304920B4B03930B4B02930B4B38
S3150800A96001934023009303234022832120461DF0B0
S3150800A970D3FF00BF0C37BD4690BD00BF5585000804
S3150800A98095840008885C0608905C06089C5C0608A6
S3150800A99080B500AFB02143201EF046F943201EF0D3
S3150800A9A027F900BF80BD00BF80B500AF43201EF069
S3150800A9B02DF900BF80BD00BF80B483B000AF7860BA
S3150800A9C0074B1B6803F00103002B14BF0123002368
S3150800A9D0DBB218460C37BD465DF8047B704700BFEE
S3150800A9E00808005080B483B000AF78600B46FB704F
S3150800A9F0FB78002B06D0094A084B1B6843F0010375
S3150800AA00136005E0054A054B1B6823F00103136034
S3150800AA1000BF0C37BD465DF8047B7047040800503C
S3150800AA2080B582B000AF78600B46FB70FB78013BBF
S3150800AA300D2B00F2908001A252F823F075AA0008A7
S3150800AA4085AA000897AA0008A7AA0008B7AA0008B6
S3150800AA50C7AA0008D7AA0008E7AA0008F7AA0008A4
S3150800AA6007AB000817AB000827AB000837AB000890
S3150800AA7047AB00087B683A4A1A604FF490601CF0AE
S3150800AA809FFF68E07B684FF080421A604FF4806051
S3150800AA901CF096FF5FE07B68324A1A6040F201407C
S3150800AAA01CF08EFF57E07B682F4A1A6040F202407E
S3150800AAB01CF086FF4FE07B682C4A1A6040F2034080
S3150800AAC01CF07EFF47E07B68294A1A6040F2044082
S3150800AAD01CF076FF3FE07B68264A1A6040F2054084
S3150800AAE01CF06EFF37E07B68234A1A6040F281400B
S3150800AAF01CF066FF2FE07B68204A1A604FF49260CC
S3150800AB001CF05EFF27E07B681D4A1A6040F2914000
S3150800AB101CF056FF1FE07B681A4A1A6040F2924002
S3150800AB201CF04EFF17E07B68174A1A6040F2064091
S3150800AB301CF046FF0FE07B68144A1A6040F2074093
S3150800AB401CF03EFF07E07B68114A1A604FF48160EB
S3150800AB501CF036FF00BF7B6818460837BD4680BD27
S3150800AB60000001400004004000080040000C0040BE
S3150800AB70001000400014004000040140004001405D
S3150800AB80004401400048014000180040001C0040F5
S3150800AB900020004090B587B000AF78603960042087
S3150800ABA00BF0F6F903461C4606212046FFF738FF48
S3150800ABB07B681C607B681B6842F2CF01184605F06B
S3150800ABC0C5FF7B681B684FF6FF71184605F0D0FF76
S3150800ABD07B681B68184605F095FF2A4B07F110009D
S3150800ABE093E8060005F052FE274B07F1080093E8A4
S3150800ABF0060005F04BFE07F1100300220221184655
S3150800AC0005F0A0FE07F1080300220221184605F008
S3150800AC1099FE07F110030C21184605F00BFF07F102
S3150800AC2008030C21184605F005FF184B1B6803F0AE
S3150800AC300103002B10D115481FF0A6FA0346002B76
S3150800AC4014BF01230023DBB2002B05D0104A3B6852
S3150800AC5013600E481FF0B8FA0D4806F079FD07F0A4
S3150800AC601DF90C490C4806F061F97B6805E00421DA
S3150800AC7020461FF0B1F81FF007F918461C37BD46E5
S3150800AC8090BD00BFA85C0608B05C0608AC1800209A
S3150800AC90B0180020C05C0608B85C060880B582B00B
S3150800ACA000AF78607B681B68184605F03FFF0346CF
S3150800ACB01A46642303FB02F318460837BD4680BDCF
S3150800ACC080B483B000AF78600B46FB707B68FA7877
S3150800ACD01A707B6818460C37BD465DF8047B7047CA
S3150800ACE080B485B000AF0346FB71FB79FB73FB7B31
S3150800ACF0202B04D9FB7B213B044AD35C00E00023CC
S3150800AD0018461437BD465DF8047B704700000020DE
S3150800AD1080B485B000AF0346FB71FB79FB73FB7B00
S3150800AD20202B04D9FB7B213B044AD35C00E000239B
S3150800AD3018461437BD465DF8047B7047600000204E
S3150800AD4080B582B000AF0346FB71FB791846FFF762
S3150800AD50DFFF0346002B14BF01230023DBB218468E
S3150800AD600837BD4680BD00BF80B582B000AF7860A9
S3150800AD7039603B681B781846FFF7B2FF0346194649
S3150800AD807868FFF79DFF78680837BD4680BD00BF25
S3150800AD9080B582B000AF786039603B681B7818468A
S3150800ADA0FFF7B6FF034619467868FFF789FF786804
S3150800ADB00837BD4680BD00BF80B582B000AF786059
S3150800ADC07B681B781846FFF7BBFF0346184608370B
S3150800ADD0BD4680BD80B588B004AFF860B9607A60BA
S3150800ADE03B603B6A0393FB690293FB690193BB696A
S3150800ADF000933B687A68B968F86800F005F800BF00
S3150800AE001037BD4680BD00BF80B58EB000AFF86074
S3150800AE10B9607A603B603B687B63FB68002B04D0B3
S3150800AE20BB681A687B689A4201D34AF029FE3B68D8
S3150800AE30002B04D13B6C002B01D04AF021FE7B6C21
S3150800AE40002B02D0FB6C002B01D14AF019FEBB681F
S3150800AE501B68002B58D03B6C002B55D0BB681B6871
S3150800AE607A68D31A3B633B6BFB623B6CBB62BA6A7C
S3150800AE70FB6A934228BF13467B62BB681B68FA6865
S3150800AE8013447A6A796B18464CF054FB7A6B7B6AE2
S3150800AE9013447B633A6C7B6AD31A3B64BB681A68B3
S3150800AEA07B6A1A44BB681A60BB681A687B689A4250
S3150800AEB02AD13B6C002B04D1BB6CF968F86C984717
S3150800AEC003E07B6CF968F86C9847BB6800221A6047
S3150800AED01AE0BB681B68002B01D04AF0D1FD3A6C1A
S3150800AEE07B689A4204D1BB6C796BF86C984703E08F
S3150800AEF07B6C796BF86C98477A6B7B6813447B6339
S3150800AF003A6C7B68D31A3B643A6C7B689A42E0D207
S3150800AF102CE0BB681B687A68D31A3B623B6AFB6104
S3150800AF203B6CBB61BA69FB69934228BF13467B61D8
S3150800AF30BB681B68FA6813447A69796B18464CF043
S3150800AF40F9FA7A6B7B6913447B633A6C7B69D31A8B
S3150800AF503B64BB681A687B691A44BB681A60BB689D
S3150800AF601A687B689A4201D34AF08AFD3B6C002B2B
S3150800AF70CFD100BF3837BD4680BD00BF80B58AB087
S3150800AF8000AFF860B9607A60FB7000237B623AE034
S3150800AF90BB681B683B623B6BFB617A683B6AD31AEA
S3150800AFA0BB61BA69FB69934228BF13467B617B6A1A
S3150800AFB0002B07D1FA683B6A1344F9787A69184670
S3150800AFC04CF0B6FB3B6A002B05D17A697B689A423E
S3150800AFD001D101237B623A6A7B691A447B689A42EB
S3150800AFE007D17B6BF968B86B9847BB6800221A6073
S3150800AFF005E0BB681A687B691A44BB681A603A6B35
S3150800B0007B69D31A3B633B6B002BC1D100BF283742
S3150800B010BD4680BD80B588B004AFF860B9607A6077
S3150800B020FB703B6A012B04D0012B6ED3022B13D085
S3150800B0302EE0FA783B7F5340DBB2FB70FA1CBB6A02
S3150800B04002937B6A01930123009313467A68B968D1
S3150800B050F868FFF7BFFE59E0FA1CBB6A02937B6AE1
S3150800B06001930123009313467A68B968F868FFF7D5
S3150800B070B1FE07F11C02BB6A02937B6A01930123A6
S3150800B080009313467A68B968F868FFF7A3FE3DE0AF
S3150800B090FA1CBB6A02937B6A019301230093134649
S3150800B0A07A68B968F868FFF795FE3B7F3A7E9A4258
S3150800B0B01CD03B6A023B397EBA6A02927A6A0192CE
S3150800B0C000930B467A68B968F868FFF757FF07F1E7
S3150800B0D01C02BB6A02937B6A019301230093134601
S3150800B0E07A68B968F868FFF775FE0FE03B6A013BB6
S3150800B0F0397EBA6A02927A6A019200930B467A6896
S3150800B100B968F868FFF73AFF00E000BF00BF1037DC
S3150800B110BD4680BD80B483B000AF786039607A6878
S3150800B1203B6862FA03F318460C37BD465DF8047BA4
S3150800B130704700BF80B483B000AF78607B681B7827
S3150800B1401A067B6801331B781B041A437B68023393
S3150800B1501B781B0213437A68033212781343184686
S3150800B1600C37BD465DF8047B704700BF80B483B0DA
S3150800B17000AF786039603B685A1C3A607A68120EEC
S3150800B180D2B21A703B685A1C3A607A68120CD2B26C
S3150800B1901A703B685A1C3A607A68120AD2B21A7058
S3150800B1A07B68DAB23B681A7000BF0C37BD465DF89B
S3150800B1B0047B70472DE9F00F8CB000AFC7E90A0190
S3150800B1C07A627A6A531C7B62D7E90A34230EBB611A
S3150800B1D00023FB613B7E13707A6A531C7B62D7E9B6
S3150800B1E00A34230C3B6100237B613B7C13707A6A2B
S3150800B1F0531C7B62D7E90A34230ABB600023FB6031
S3150800B2003B7A13707A6A531C7B62D7E90A342300A7
S3150800B2103B6000237B603B7813707A6A531C7B6221
S3150800B220D7E90A344FEA136A4AEA042A4FEA146B42
S3150800B2305FFA8AF313707A6A531C7B62D7E90A3479
S3150800B2404FEA134848EA04484FEA14495FFA88F374
S3150800B25013707A6A531C7B62D7E90A341D0A45EAD9
S3150800B2600465260AEBB2137097F828207B6A1A70D1
S3150800B27000BF3037BD46BDE8F00F704780B582B0D5
S3150800B28000AF78606822002178684CF051FA7B6834
S3150800B2900D4A1A607B680D4A5A607B680C4A9A60A8
S3150800B2A07B680C4ADA607B680B4A1A617B680B4A32
S3150800B2B05A617B680A4A9A617B680A4ADA6100BF62
S3150800B2C00837BD4680BD00BF67E6096A85AE67BB1D
S3150800B2D072F36E3C3AF54FA57F520E518C68059B6A
S3150800B2E0ABD9831F19CDE05BB0B5A0B000AF7860CD
S3150800B2F039607B687B657B6D1B68FB677B6D5B686C
S3150800B300BB677B6D9B687B677B6DDB683B677B6D8B
S3150800B3101B69FB667B6D5B69BB667B6D9B697B66A0
S3150800B3207B6DDB693B660023BB65E6E0BB6D0F2BD7
S3150800B3300FD83868FFF7FEFEF865BB6D9B0007F16E
S3150800B34080021344FA6D43F8742C3B6804333B605F
S3150800B35078E0BB6D023B03F00F039B0007F1800208
S3150800B360134453F8743C11211846FFF7D3FE0446DC
S3150800B370BB6D023B03F00F039B0007F180021344E9
S3150800B38053F8743C13211846FFF7C4FE034684EAB3
S3150800B3900302BB6D023B03F00F039B0007F180011C
S3150800B3A00B4453F8743C9B0A5A40BB6D073B03F0A9
S3150800B3B00F039B0007F180010B4453F8743CD41823
S3150800B3C0BB6D0F3B03F00F039B0007F1800213448C
S3150800B3D053F8743C07211846FFF79CFE0546BB6DDB
S3150800B3E00F3B03F00F039B0007F18002134453F849
S3150800B3F0743C12211846FFF78DFE034685EA0302C0
S3150800B400BB6D0F3B03F00F039B0007F180010B4454
S3150800B41053F8743CDB085340E218BB6D03F00F0386
S3150800B4209B0007F180010B4453F8743C1344FB65F9
S3150800B430BB6D03F00F039B0007F180021344FA6DFE
S3150800B44043F8742C0621F86EFFF764FE04460B21B8
S3150800B450F86EFFF75FFE03465C401921F86EFFF7AA
S3150800B46059FE034684EA03023B6E1A44F96EBB6E24
S3150800B4701940FB6ED8437B6E03404B401A443D4946
S3150800B480BB6D51F823301A44FB6D13443B6502210A
S3150800B490F86FFFF73FFE04460D21F86FFFF73AFEF7
S3150800B4A003465C401621F86FFFF734FE034684EA2C
S3150800B4B00302F96FBB6F1940F86F7B6F0340594061
S3150800B4C0B86F7B6F03404B401344FB647B6E3B664F
S3150800B4D0BB6E7B66FB6EBB663A6F3B6D1344FB66C1
S3150800B4E07B6F3B67BB6F7B67FB6FBB673A6DFB6C1C
S3150800B4F01344FB67BB6D0133BB65BB6D3F2B7FF602
S3150800B50015AF7B6D1A68FB6F1A447B6D1A607B6DED
S3150800B5105A68BB6F1A447B6D5A607B6D9A687B6F5D
S3150800B5201A447B6D9A607B6DDA683B6F1A447B6DB3
S3150800B530DA607B6D1A69FB6E1A447B6D1A617B6D46
S3150800B5405A69BB6E1A447B6D5A617B6D9A697B6E2C
S3150800B5501A447B6D9A617B6DDA693B6E1A447B6D82
S3150800B560DA617B6D1B6E5A1C7B6D1A6600BF8037CD
S3150800B570BD46B0BDCC5C060880B588B004AFF8609F
S3150800B580B9607A60FB6803F12000FB6803F1640187
S3150800B590FB680293054B01937B680093BB684022C6
S3150800B5A0FFF718FC00BF1037BD4680BDE9B200089A
S3150800B5B0F0B591B006AF786039607A68126E1146B8
S3150800B5C04FF00002C7E90812D7E90812960146EAC1
S3150800B5D091668D017A68526E11464FF0000249193C
S3150800B5E042EB0602C7E90812D7E90812D40044EA72
S3150800B5F05174CB00C7E906343B6A083303F03F03AE
S3150800B600C3F140037B617B6803F120007B6803F18B
S3150800B61064017B680493334B03937B69029300238D
S3150800B62001930023009380234022FFF7F3FC07F1E0
S3150800B6300C031A46D7E90601FFF7BCFD07F10C0310
S3150800B640082219467868FFF797FF7B685B6E002B20
S3150800B65001D04AF015FA7B681B6839681846FFF767
S3150800B66085FD7B685A683B68043319461046FFF720
S3150800B6707DFD7B689A683B68083319461046FFF7D4
S3150800B68075FD7B68DA683B680C3319461046FFF788
S3150800B6906DFD7B681A693B68103319461046FFF73B
S3150800B6A065FD7B685A693B68143319461046FFF7EF
S3150800B6B05DFD7B689A693B68183319461046FFF7A3
S3150800B6C055FD7B68DA693B681C3319461046FFF757
S3150800B6D04DFD6822002178684CF02AF800BF2C3707
S3150800B6E0BD46F0BDE9B2000880B483B000AF78600B
S3150800B6F07B68DB681A467B689B68D31A9B101846DA
S3150800B7000C37BD465DF8047B704700BF80B582B034
S3150800B71000AF0346FB710A4B1B78002B06D0FDF7DA
S3150800B72077FC0346012B01D1012300E00023002BFF
S3150800B73001D0002300E0012318460837BD4680BD26
S3150800B740A018002080B483B000AF0346FB71FB79D4
S3150800B750002B01D0012300E0002318460C37BD4614
S3150800B7605DF8047B704700BF90B587B002AFB9603B
S3150800B7707A601A460346FB731346BB737B685B0203
S3150800B7804FF00004BA7B00921A462346B868FDF7C4
S3150800B7900BFA0346002B0CBF01230023DBB2002B58
S3150800B7A016D0FDF75DFB0346002B0CBF01230023D3
S3150800B7B0DBB2002B0CD0FDF713FC0346002B14BF9D
S3150800B7C001230023DBB2002B00D0F4E7002300E0BE
S3150800B7D0012318461437BD4690BD00BF90B587B003
S3150800B7E002AFB9607A601A460346FB731346BB7309
S3150800B7F07B685B024FF00004BA7B00921A46234628
S3150800B800B868FDF761FA0346002B0CBF0123002335
S3150800B810DBB2002B16D0FDF783FB0346002B0CBFCB
S3150800B82001230023DBB2002B0CD0FDF7D9FB03461E
S3150800B830002B14BF01230023DBB2002B00D0F4E752
S3150800B840002300E0012318461437BD4690BD00BF0B
S3150800B85080B483B000AF03463A60FB710B46BB71F8
S3150800B860FB79002B01D0042305E0BB79002B01D11D
S3150800B870002300E0042318460C37BD465DF8047B18
S3150800B880704700BF80B487B000AFF860B9607A60CF
S3150800B890FB687B61BB683B617B685A1E7A60002B3C
S3150800B8A014BF01230023DBB2002B08D07B695A1C86
S3150800B8B07A613A69511C396112781A70ECE700BF4F
S3150800B8C01C37BD465DF8047B704700BF80B487B05F
S3150800B8D000AFF860B9607A60FB687B617B685A1EC6
S3150800B8E07A60002B14BF01230023DBB2002B06D09D
S3150800B8F07B695A1C7A61BA68D2B21A70EEE700BF41
S3150800B9001C37BD465DF8047B704700BF80B489B01C
S3150800B91000AFF860B9607A60FB68FB61BB68BB6121
S3150800B92000237B617B685A1E7A60002B0FD0FB6967
S3150800B9305A1CFA611B781946BB695A1CBA611B78EE
S3150800B940CB1A7B617B69002B01D1012300E0002320
S3150800B950002B00D0E6E77B6918462437BD465DF81C
S3150800B960047B704780B483B000AF786039607B6829
S3150800B9701B78002B09D07B681B781A463B689A42CD
S3150800B98003D07B6801337B60F1E77B681B78184638
S3150800B9900C37BD465DF8047B704700BF80B584B0A0
S3150800B9A000AF786039607B68DB6AFB60FA683B68E1
S3150800B9B09A4252D07B681B79002B35D07B68587821
S3150800B9C07B6803F130010123FA68FFF707FF034696
S3150800B9D0002B14BF01230023DBB2002B01D0012367
S3150800B9E03CE07B6800221A717B681A6A7B68DB690F
S3150800B9F01A44FB689A4217D97B68DB78FB72FB7A94
S3150800BA00012B11D97B68DB69FA681344FB607B68F4
S3150800BA1058787B6803F130010123FA68FFF7DEFEE8
S3150800BA20FB7A013BFB72EAE73B68002B15D07B6883
S3150800BA3058787B6803F1300101233A68FFF794FED2
S3150800BA400346002B14BF01230023DBB2002B01D0D1
S3150800BA50012303E07B683A68DA6200231846103748
S3150800BA60BD4680BD80B584B000AF78600021786897
S3150800BA70FFF794FF0346FB73FB7B002B40F0918096
S3150800BA807B681B78032B7BD17B685B79002B77D08F
S3150800BA907B680022DA627B6830334FF4007200213B
S3150800BAA01846FFF713FF7B68552283F82E227B681A
S3150800BAB0AA2283F82F227B68522283F830207B68DB
S3150800BAC0522283F831207B68612283F832207B6812
S3150800BAD0412283F833207B68722283F814227B681C
S3150800BAE0722283F815227B68412283F816227B6826
S3150800BAF0612283F817227B681B69DAB27B6883F8B0
S3150800BB0018227B681B699BB21B12DAB27B6883F822
S3150800BB1019227B681B691B0CDAB27B6883F81A2228
S3150800BB207B681B691B0EDAB27B6883F81B227B686D
S3150800BB30DB68DAB27B6883F81C227B68DB689BB219
S3150800BB401B12DAB27B6883F81D227B68DB681B0C44
S3150800BB50DAB27B6883F81E227B68DB681B0EDAB2D2
S3150800BB607B6883F81F227B6858787B6803F130016D
S3150800BB707B685A690123FFF731FE7B6800225A71F8
S3150800BB807B685B78002200211846FFF761FE0346B2
S3150800BB90002B14BF01230023DBB2002B01D00123A5
S3150800BBA0FB73FB7B18461037BD4680BD80B483B057
S3150800BBB000AF786039603B68023B3B607B689B69F5
S3150800BBC09A1E3B689A4201D8002308E07B689B7856
S3150800BBD01A463B6803FB02F27B689B6A13441846C5
S3150800BBE00C37BD465DF8047B704700BF80B586B04C
S3150800BBF000AF786039603B68012B04D97B689A6985
S3150800BC003B689A4201D80123B0E07B681B78022B77
S3150800BC1051D0032B74D0012B40F0A6803B687B6182
S3150800BC207B695B087A6913447B617B681A6A7B695E
S3150800BC305B0A134419467868FFF7B0FE0346002BE3
S3150800BC4014BF01230023DBB2002B40F086807B69FA
S3150800BC50C3F308037A68134493F830303B617B6971
S3150800BC6001337B617B681A6A7B695B0A1344194650
S3150800BC707868FFF793FE0346002B14BF01230023C1
S3150800BC80DBB2002B6BD17B69C3F308037A681344D4
S3150800BC9093F830301B021A463B6913433B613B68F5
S3150800BCA003F00103002B02D03B691B095EE03B69E8
S3150800BCB0C3F30B035AE07B681A6A3B681B0A1344F2
S3150800BCC019467868FFF76AFE0346002B14BF01235E
S3150800BCD00023DBB2002B44D13B685B0003F4FF73FF
S3150800BCE030337A681344FB60FB6801331B781B0208
S3150800BCF01AB2FB681B781BB213431BB29BB235E022
S3150800BD007B681A6A3B68DB09134419467868FFF7AB
S3150800BD1045FE0346002B14BF01230023DBB2002B8C
S3150800BD2021D13B689B0003F4FE7330337A681344D1
S3150800BD30FB60FB6803331B781A06FB6802331B7823
S3150800BD401B041343FA680132127812021343FA6885
S3150800BD501278134323F0704308E000BF04E000BFE5
S3150800BD6002E000BF00E000BF4FF0FF331846183767
S3150800BD70BD4680BD80B588B000AFF860B9607A600E
S3150800BD80BB68012B04D9FB689A69BB689A4202D83A
S3150800BD900223FB77E7E0FB681B78022B70D0032BA6
S3150800BDA000F09080012B40F0D180BB68BB61BB6975
S3150800BDB05B08BA691344BB61FB681A6ABB695B0A0C
S3150800BDC013441946F868FFF7E9FD0346FB77FB7F3E
S3150800BDD0002B40F0BE80BB69C3F308033033FA6812
S3150800BDE013447B617A69BB6803F00103002B0DD00D
S3150800BDF07B691B785BB203F00F0359B27B68DBB231
S3150800BE001B015BB20B435BB2DBB201E07B68DBB2C2
S3150800BE101370BB690133BB61FB6801221A71FB68A9
S3150800BE201A6ABB695B0A13441946F868FFF7B6FD38
S3150800BE300346FB77FB7F002B40F08D80BB69C3F37D
S3150800BE4008033033FA6813447B617A69BB6803F0E8
S3150800BE500103002B03D07B681B09DBB20EE07B696C
S3150800BE601B785BB223F00F0359B27B681B0A5BB2DF
S3150800BE7003F00F035BB20B435BB2DBB213706FE0E8
S3150800BE80FB681A6ABB681B0A13441946F868FFF769
S3150800BE9085FD0346FB77FB7F002B5ED1BB685B0005
S3150800BEA003F4FF733033FA6813447B617B697A685D
S3150800BEB0D2B21A707B6901337A6892B21212D2B280
S3150800BEC01A704DE0FB681A6ABB68DB091344194609
S3150800BED0F868FFF763FD0346FB77FB7F002B3ED12F
S3150800BEE0BB689B0003F4FE733033FA6813447B6126
S3150800BEF07B6903331B781A067B6902331B781B049C
S3150800BF0013437A6901321278120213437A69127856
S3150800BF10134303F070427B6813437B607B697A683E
S3150800BF20D2B21A707B6901337A6892B21212D2B20F
S3150800BF301A707B6902337A68120CD2B21A707B695E
S3150800BF4003337A68120ED2B21A7009E00223FB771D
S3150800BF5006E000BF04E000BF02E000BF00E000BF4B
S3150800BF60FB6801221A71FB7F18462037BD4680BD43
S3150800BF7080B584B000AF786039603B68012B04D97E
S3150800BF807B689A693B689A4202D80223FB7339E0B8
S3150800BF900023FB737B689A693B689A4232D93968F1
S3150800BFA07868FFF723FE0346BB60BB68002B26D0E4
S3150800BFB0BB68012B02D10223FB7323E0BB68B3F1F4
S3150800BFC0FF3F02D10123FB731CE000223968786821
S3150800BFD0FFF7D0FE0346FB73FB7B002B11D17B6872
S3150800BFE01B69B3F1FF3F07D07B681B695A1C7B6846
S3150800BFF01A617B6801225A71BB683B60CAE700BFB9
S3150800C00000E000BFFB7B18461037BD4680BD00BF69
S3150800C01080B586B000AF786039603B68002B0DD1DB
S3150800C0207B68DB683B613B69002B04D07B689A69B7
S3150800C0303B699A4216D801233B6113E03968786850
S3150800C040FFF7D4FD0346BB60BB68012B01D801236B
S3150800C05065E07B689A69BB689A4201D9BB685EE06D
S3150800C0603B683B613B697B617B6901337B617B682C
S3150800C0709A697B699A4207D802237B617A693B6988
S3150800C0809A4201D900234AE079697868FFF7AEFD3C
S3150800C0900346BB60BB68002B0ED0BB68B3F1FF3FFD
S3150800C0A002D0BB68012B01D1BB6838E07A693B69CD
S3150800C0B09A42D9D1002332E000BF6FF07042796905
S3150800C0C07868FFF757FE0346FB73FB7B002B09D105
S3150800C0D03B68002B06D07A6939687868FFF74AFE0C
S3150800C0E00346FB73FB7B002B10D17B687A69DA6009
S3150800C0F07B681B69B3F1FF3F10D07B681B695A1E2A
S3150800C1007B681A617B6801225A7107E0FB7B012B69
S3150800C11002D14FF0FF3300E001237B617B691846AB
S3150800C1201837BD4680BD00BF80B584B000AF7860C3
S3150800C1300B467B807B687A88DA807B689B68FB6025
S3150800C140FB68012B05D07B681B689A69FB689A42D5
S3150800C15001D8022367E0FB68002B08D17B681B68BF
S3150800C1601B78032B03D17B681B685B6AFB60FB6843
S3150800C170002B14D17B68FA68DA607B681B681B8918
S3150800C1807A889A4201D302234DE07B681B685B6A72
S3150800C1907A88120992B21A447B681A6137E07B687A
S3150800C1A01B689B789BB21B017B817A887B899A42A4
S3150800C1B01DD37B681B68F9681846FFF717FD034609
S3150800C1C0FB60FB68B3F1FF3F01D101232BE0FB685D
S3150800C1D0012B05D97B681B689A69FB689A4201D8C6
S3150800C1E0022320E07A887B89D31A7B80DDE77B6887
S3150800C1F0FA68DA607B681B68F9681846FFF7D6FCA8
S3150800C20002467B881B099BB21A447B681A617B68C5
S3150800C2101B6803F130027B8803F00F035B011A44A5
S3150800C2207B685A61002318461037BD4680BD00BF9B
S3150800C23090B585B000AF786039607B68DB880133DC
S3150800C2403B813B89002B03D07B681B69002B01D1FE
S3150800C2500423C8E03B8903F00F03002B40F0B480A9
S3150800C2607B681B695A1C7B681A617B68DB68002B34
S3150800C27008D17B681B681B893A899A42C0F0A4805A
S3150800C2800423B0E03B891B099BB21A467B681B68EE
S3150800C2909B78013B1340002B40F096807B681A6818
S3150800C2A07B68DB6819461046FFF7A0FC0346FB606F
S3150800C2B0FB68012B01D8022395E0FB68B3F1FF3F29
S3150800C2C001D101238FE07B681B689A69FB689A4253
S3150800C2D06ED83B68002B01D1042384E07B681A687A
S3150800C2E07B68DB6819461046FFF792FE0346FB603B
S3150800C2F0FB68002B01D1072375E0FB68012B01D1F0
S3150800C300022370E0FB68B3F1FF3F01D101236AE025
S3150800C3107B681B6800211846FFF740FB0346002B85
S3150800C32014BF01230023DBB2002B01D001235AE0FE
S3150800C3307B681B6830334FF4007200211846FFF7FC
S3150800C340C5FA7B681C687B681B68F9681846FFF79E
S3150800C3502DFC0346E3620023FB727B681B689B780F
S3150800C360FA7A9A421CD27B681B6801221A717B688A
S3150800C3701B6800211846FFF711FB0346002B14BF64
S3150800C38001230023DBB2002B01D001232BE07B68BD
S3150800C3901B68DA6A0132DA62FB7A0133FB72DCE780
S3150800C3A07B681B687A681268D16AFA7A8A1ADA622E
S3150800C3B07B68FA68DA607B681B68F9681846FFF7D5
S3150800C3C0F5FB02467B681A617B683A89DA807B68E6
S3150800C3D01B6803F130023B8903F00F035B011A4423
S3150800C3E07B685A61002318461437BD4690BD00BFC6
S3150800C3F080B586B000AF786039603B681B7803F07B
S3150800C400BF035A1E13465B0013449B0013447B610B
S3150800C41000233B610123FB81304A3B6913441B78A7
S3150800C42001333A6813441B781B021AB22B493B693D
S3150800C4300B441B7819463B680B441B781BB2134305
S3150800C4401BB2BB81FB89002B1ED0BB89184601F0A5
S3150800C450A9FC0346FB817B69FE2B0ED87B695A1C17
S3150800C4607A615B007A6813441B88184601F09AFCC7
S3150800C47003461A46FB89934201D0012300E00023B4
S3150800C480002B08D0002325E0BB894FF6FF729342A4
S3150800C49001D000231EE03B6901333B613B690C2B4D
S3150800C4A094BF01230023DBB2002B00D0B4E73B681E
S3150800C4B01B7803F04003002B0BD0FB89002B08D018
S3150800C4C07B695B007A6813441B88002B01D0002324
S3150800C4D000E0012318461837BD4680BDCC5D060826
S3150800C4E080B489B000AFF860B96011461A460B46A9
S3150800C4F0FB711346BB71BB680D33BA791A70BB68FA
S3150800C5000B330F221A70BB680C3300221A70BB68F3
S3150800C5101A3300221A70BB681B3300221A70FB7983
S3150800C5205A1E13465B0013449B001344FB61002309
S3150800C530FB820023BB61FB8A4FF6FF72934207D04A
S3150800C540FB695A1CFA615B00FA6813441B88FB8274
S3150800C5501F4ABB6913441B781A46BB681344FA8AF8
S3150800C560D2B21A701A4ABB6913441B780133BA68E7
S3150800C5701344FA8A1212D2B21A70FB8A002B02D11D
S3150800C5804FF6FF73FB82BB690133BB61BB690C2B9A
S3150800C59094BF01230023DBB2002B00D0CBE7FB8A34
S3150800C5A04FF6FF72934206D0FB695B00FA681344A4
S3150800C5B01B88002B03D1FB7943F04003FB71BB6852
S3150800C5C0FA791A7000BF2437BD465DF8047B7047B8
S3150800C5D0CC5D060880B58AB000AFF860B9607A60AD
S3150800C5E07B800B22B968F868FFF74CF97B88052B26
S3150800C5F012D97B885B109AB27B88DB039BB2134403
S3150800C6009AB27B68991C79601B8813447B807B6887
S3150800C6101B88002B00D0ECE707233B627B88DBB244
S3150800C62003F00F03DBB2303387F8273097F827304B
S3150800C630392B04D997F82730073387F827303B6A10
S3150800C6405A1E3A6207F12802134497F8272003F87E
S3150800C650142C7B881B097B807B88002B00D0DDE7A8
S3150800C66007F114023B6A13447E221A700023FB6109
S3150800C670FA693B6A9A4209D2FA68FB6913441B783D
S3150800C680202B03D0FB690133FB61F1E7FB695A1CD8
S3150800C690FA61FA681A443B6A072B08D83B6A591CA0
S3150800C6A0396207F128010B4413F8143C00E02023F3
S3150800C6B01370FB69072B00D8E8E700BF2837BD468B
S3150800C6C080BD00BF80B485B000AF78600023FB73DF
S3150800C6D00B23BB60FB7B5B10DAB2FB7BDB01DBB2B7
S3150800C6E01344DAB27B68591C79601B781344FB73D0
S3150800C6F0BB68013BBB60BB68002B14BF012300234A
S3150800C700DBB2002B00D0E5E7FB7B18461437BD46A5
S3150800C7105DF8047B704700BF80B586B000AF7860CF
S3150800C72000217868FFF700FD0346FB75FB7D002BAB
S3150800C73001D0FB7DA1E0FF233B753B7D7B757B68C4
S3150800C7401A687B681B6919461046FFF727F90346DE
S3150800C750FB75FB7D002B40F08A807B685B693B613B
S3150800C7603B691B78BB75BB7D002B02D10423FB7587
S3150800C77082E03B690B331B7803F03F03FB73BB7DF9
S3150800C780E52B07D0FB7B03F00803002B05D0FB7BCA
S3150800C7900F2B02D0FF237B755FE0FB7B0F2B2FD17E
S3150800C7A07B68DB69002B58D0BB7D03F04003002B68
S3150800C7B00CD03B695B7B3B75BB7D23F04003BB75A7
S3150800C7C0BB7D7B757B68DA887B681A84BA7D7B7D3E
S3150800C7D09A4212D13B690D331B783A7D9A420CD1A5
S3150800C7E07B68DB6939691846FFF702FE0346002BAA
S3150800C7F003D07B7D013BDBB200E0FF237B752CE099
S3150800C8007B7D002B09D13869FFF75CFF03461A4682
S3150800C8103B7D934201D1012300E00023002B28D160
S3150800C820FF237B757B684FF6FF721A847B689B69CA
S3150800C8300B331B7803F00103002B0BD17B689B6934
S3150800C8400B2219463869FFF761F80346002B01D118
S3150800C850012300E00023002B0DD100217868FFF7A3
S3150800C860E7FC0346FB75FB7D002B05D167E700BF98
S3150800C87002E000BF00E000BFFB7D18461837BD4642
S3150800C88080BD00BF80B58CB000AF78607B689B69BF
S3150800C8907B627B68DB693B6207F10C030C22796AD1
S3150800C8A01846FEF7EFFFFB7D03F00103002B34D09B
S3150800C8B07B6A0B3300221A707B680022DA61012337
S3150800C8C0BB85BB8D632B15D8BB8D07F10C013A6A66
S3150800C8D0786AFFF77FFE7868FFF71EFF034687F83A
S3150800C8E02F3097F82F30002B03D1BB8D0133BB8532
S3150800C8F0E7E700BFBB8D642B01D10723FBE097F860
S3150800C9002F30042B02D097F82F30F4E07B6A0B33D4
S3150800C910FA7D1A707B683A6ADA61FB7D03F00203D6
S3150800C920002B16D000237B857B8D5B003A6A134467
S3150800C9301B88002B03D07B8D01337B85F4E77B8D29
S3150800C94019336F4A82FB03129210DB17D31A7B85C1
S3150800C95001E001237B8500217868FFF7E5FB0346A4
S3150800C96087F82F3097F82F30002B02D097F82F3002
S3150800C970C1E000233B853B8DBB857B681A687B68D5
S3150800C9801B6919461046FFF709F8034687F82F3042
S3150800C99097F82F30002B2AD17B685B691B78FB77C9
S3150800C9A0FB7FE52B02D0FB7F002B12D1BB8D002B22
S3150800C9B002D17B68DB883B85BB8D0133BB85BA8D8D
S3150800C9C07B8D9A420CBF01230023DBB2002B02D0D9
S3150800C9D00EE00023BB8501217868FFF729FC034692
S3150800C9E087F82F3097F82F30002B01D1C5E700BF05
S3150800C9F097F82F30002B4CD17B8D012B49D93B8DD5
S3150800CA0019467868FFF790FB034687F82F3097F8A2
S3150800CA102F30002B3DD17B689B691846FFF752FEE5
S3150800CA200346BB777B8D013B7B857B681A687B68F1
S3150800CA301B6919461046FEF7B1FF034687F82F30E3
S3150800CA4097F82F30002B23D17B68D8697B68596902
S3150800CA507B8DDAB2BB7FFFF743FD7B681B6801223B
S3150800CA601A7100217868FFF7E3FB034687F82F3031
S3150800CA7097F82F30002B07D17B8D013B7B857B8D6B
S3150800CA80002B01D0012300E00023002B01D0CCE7C6
S3150800CA9000BF97F82F30002B2BD17B681A687B686C
S3150800CAA01B6919461046FEF779FF034687F82F30AB
S3150800CAB097F82F30002B1CD17B685B69BB6120225D
S3150800CAC00021B869FEF702FF7B689B690B221946AD
S3150800CAD0B869FEF7D7FEBB690C337A6892690B32E0
S3150800CAE0127802F01802D2B21A707B681B6801220B
S3150800CAF01A7197F82F3018463037BD4680BD00BFEB
S3150800CB004FECC44E80B58AB000AF78603960002318
S3150800CB107B617B69BB613B681B683B617B68DB6942
S3150800CB20FB60BB695A1CBA613A6913441B789BB20D
S3150800CB307B817B891F2B35D97B892F2B32D07B892B
S3150800CB405C2B2FD07B69FE2B01D9062389E17B89D3
S3150800CB50DBB29BB27B817B890121184601F010F973
S3150800CB6003467B817B89002B01D1062379E17B89EA
S3150800CB707F2B09D87B8919469248FEF7F3FE0346B0
S3150800CB80002B01D0012300E00023002B01D006234F
S3150800CB9067E17B695A1C7A615B00FA6813447A89F3
S3150800CBA01A80BEE73A69BB691A443B681A607B89F2
S3150800CBB01F2B01D8042300E0002387F826307B6961
S3150800CBC0002B13D07B6903F10043013B5B00FA6835
S3150800CBD013441B887B817B89202B02D07B892E2BD3
S3150800CBE003D17B69013B7B61E9E700BF7B69002BC9
S3150800CBF001D1062335E17B695B00FA6813440022FC
S3150800CC001A807B689B690B2220211846FEF75EFE78
S3150800CC100023BB61BB695B00FA6813441B88202BA1
S3150800CC2006D0BB695B00FA6813441B882E2B03D118
S3150800CC30BB690133BB61EDE7BB69002B05D097F8EB
S3150800CC40263043F0030387F826307B69002B0DD086
S3150800CC507B6903F10043013B5B00FA6813441B88B8
S3150800CC602E2B03D07B69013B7B61EEE700233B62F9
S3150800CC70002387F827300823FB61BB695A1CBA6171
S3150800CC805B00FA6813441B887B817B89002B00F0C4
S3150800CC9096807B89202B06D07B892E2B0AD1BA69F0
S3150800CCA07B699A4206D097F8263043F0030387F843
S3150800CCB0263083E03A6AFB699A4203D2BA697B69ED
S3150800CCC09A4223D1FB690B2B06D197F8263043F0FD
S3150800CCD0030387F826307CE0BA697B699A4205D057
S3150800CCE097F8263043F0030387F82630BA697B693C
S3150800CCF09A426DD87B69BB6108233B620B23FB61B3
S3150800CD0097F827309B0087F8273057E07B897F2BD9
S3150800CD1015D97B890021184601F032F803467B8134
S3150800CD207B89002B05D07B89803B274AD35C9BB245
S3150800CD307B8197F8263043F0020387F826307B89F3
S3150800CD40002B07D07B8919462048FEF70BFE0346C1
S3150800CD50002B01D0012300E00023002B08D05F231D
S3150800CD607B8197F8263043F0030387F826301CE0CA
S3150800CD707B89402B09D97B895A2B06D897F8273007
S3150800CD8043F0020387F827300FE07B89602B0CD924
S3150800CD907B897A2B09D897F8273043F0010387F85F
S3150800CDA027307B89203B9BB27B817B689A693B6AEB
S3150800CDB0591C396213447A89D2B21A705DE700BFEA
S3150800CDC007E000BFDC5D0608F05D0608E85D0608BA
S3150800CDD000BF7B689B691B78E52B03D17B689B6941
S3150800CDE005221A70FB69082B04D197F827309B0097
S3150800CDF087F8273097F8273003F00C030C2B05D05B
S3150800CE0097F8273003F00303032B05D197F826304C
S3150800CE1043F0020387F8263097F8263003F002031A
S3150800CE20002B17D197F8273003F00303012B05D100
S3150800CE3097F8263043F0100387F8263097F82730FE
S3150800CE4003F00C03042B05D197F8263043F00803AA
S3150800CE5087F826307B689B690B3397F826201A706B
S3150800CE60002318462837BD4680BD00BF80B584B06C
S3150800CE7000AF786039603B681B782F2B03D03B687E
S3150800CE801B785C2B02D13B6801333B607B68002230
S3150800CE909A603B681B781F2B09D800217868FFF732
S3150800CEA043F90346FB737B6800225A6156E03B460A
S3150800CEB019467868FFF726FE0346FB73FB7B002BB3
S3150800CEC045D17868FFF728FC0346FB737B689B69A6
S3150800CED0DB7ABB73FB7B002B0AD0FB7B042B38D198
S3150800CEE0BB7B03F00403002B35D10523FB7332E02B
S3150800CEF0BB7B03F00403002B2FD17B685B69BB6007
S3150800CF00BB680B331B7803F01003002B02D10523F3
S3150800CF10FB7323E0BB6815331B781B021AB2BB6888
S3150800CF2014331B781BB213431BB29BB21B04BA689B
S3150800CF301B321278120211B2BA681A32127812B279
S3150800CF400A4312B292B21A437B689A60AFE700BFEF
S3150800CF5004E000BF02E000BF00E000BFFB7B18460C
S3150800CF601037BD4680BD00BF80B582B000AF78607F
S3150800CF7039607B6858787B6803F1300101233A6889
S3150800CF80FEF7F2FB0346002B14BF01230023DBB296
S3150800CF90002B01D003234AE07B6803F22E230133DA
S3150800CFA01B781B021AB27B6893F82E321BB2134306
S3150800CFB01BB2214A934201D0022338E07B686633CC
S3150800CFC003331B781A067B68663302331B781B0407
S3150800CFD013437A68663201321278120213437A686A
S3150800CFE092F86620134323F07F43144A934201D1F3
S3150800CFF000231CE07B68823303331B781A067B68A0
S3150800D000823302331B781B0413437A688232013257
S3150800D0101278120213437A6892F88220134323F097
S3150800D0207F43064A934201D1002300E001231846B4
S3150800D0300837BD4680BD00BF55AAFFFF46415400CC
S3150800D04080B592B000AFF860B9601346FB71FB6813
S3150800D0501B683B633B6B1B78303B7B617B69092B09
S3150800D0600BD83B6B01331B783A2B06D13B6B02334B
S3150800D0703B63FB683A6B1A6001E000237B617B69BE
S3150800D080002B01D00B236CE27B69AA4A52F82330A5
S3150800D090FB62BB68FA6A1A60FB6A002B01D10C2393
S3150800D0A05FE2FB6A1B78002B1AD0FB6A5B7818468E
S3150800D0B0FEF748FB034687F82B3097F82B3003F02A
S3150800D0C00103002B0CD1FB79002B07D097F82B30E6
S3150800D0D003F00403002B01D00A2342E2002340E2B6
S3150800D0E0FB6A00221A707B69DAB2FB6A5A70FB6A1D
S3150800D0F05B781846FEF70AFB034687F82B3097F845
S3150800D1002B3003F00103002B01D0032329E2FB791E
S3150800D110002B07D097F82B3003F00403002B01D01F
S3150800D1200A231EE200233B64396CF86AFFF71CFFEA
S3150800D130034687F8473097F84730012B22D1FB6A18
S3150800D14003F5F7737B627B6A04331B78002B19D0CF
S3150800D1507B6A0B331B781A067B6A0A331B781B0417
S3150800D16013437A6A09321278120213437A6A08322A
S3150800D170127813433B64396CF86AFFF7F5FE0346E9
S3150800D18087F8473097F84730032B01D10123E8E1A8
S3150800D19097F84730002B01D00D23E2E1FB6A93F89C
S3150800D1A03C301B021AB2FB6A93F83B301BB213439E
S3150800D1B01BB2B3F5007F01D00D23D2E1FB6A93F8C9
S3150800D1C047301B021AB2FB6A93F846301BB2134368
S3150800D1D01BB29BB2FB63FB6B002B12D1FB6A93F865
S3150800D1E057301A06FB6A93F856301B041343FA6A3B
S3150800D1F092F8552012021343FA6A92F85420134300
S3150800D200FB63FB6AFA6BDA61FB6A93F8403087F8CE
S3150800D2102330FB6A97F82320DA7097F82330012B1E
S3150800D22005D097F82330022B01D00D2399E197F802
S3150800D2302320FB6B02FB03F3FB63FB6A93F83D3089
S3150800D24087F82330FB6A97F823209A7097F82330DB
S3150800D250002B07D097F8232097F82330013B13407B
S3150800D260002B01D00D237CE1FB6A93F842301B02A8
S3150800D2701AB2FB6A93F841301BB213431BB29AB237
S3150800D280FB6A1A81FB6A1B8903F00F03002B01D086
S3150800D2900D2366E1FB6A93F844301B021AB2FB6A57
S3150800D2A093F843301BB213431BB29BB2BB63BB6BF1
S3150800D2B0002B12D1FB6A93F853301A06FB6A93F8CF
S3150800D2C052301B041343FA6A92F851201202134390
S3150800D2D0FA6A92F850201343BB63FB6A93F83F300F
S3150800D2E01B021AB2FB6A93F83E301BB213431BB2F9
S3150800D2F03B843B8C002B01D10D2332E13A8CFB6B2E
S3150800D3001344FA6A1289120992B21344FB61BA6B82
S3150800D310FB699A4201D20D2323E1BA6BFB69D31A42
S3150800D320FA6A9278B3FBF2F3BB61BB69002B03D1AF
S3150800D3300D2316E1B4180020012387F84730BB698E
S3150800D34040F6F572934202D9022387F84730BB6943
S3150800D3504FF6F572934202D9032387F84730BB6923
S3150800D3609A1CFB6A9A613A6CFB691A44FB6A9A62D0
S3150800D3703A8C3B6C1A44FB6A1A6297F84730032BBF
S3150800D3801ED1FB6A1B89002B01D00D23E9E0FB6A3D
S3150800D39093F85F301A06FB6A93F85E301B04134352
S3150800D3A0FA6A92F85D2012021343FA6A92F85C2030
S3150800D3B01A43FB6A5A62FB6A9B699B007B631FE000
S3150800D3C0FB6A1B89002B01D10D23CAE0FB6A1A6A86
S3150800D3D0FB6B1A44FB6A5A6297F84730022B03D153
S3150800D3E0FB6A9B695B000AE0FB6A9A6913465B0065
S3150800D3F013445A08FB6A9B6903F0010313447B63D1
S3150800D400FB6ADA697B6B03F2FF135B0A9A4201D265
S3150800D4100D23A6E0FB6A4FF0FF321A61FB6A002271
S3150800D420DA6097F84730032B40F08680FB6A0022C3
S3150800D4305A71FB6A93F861301B021AB2FB6A93F8B9
S3150800D44060301BB213431BB29BB21A463B6C1A449C
S3150800D450FB6A5A61FB6A5878FB6A03F13001FB6A7A
S3150800D4605A690123FEF780F90346002B39D1FB6A76
S3150800D47093F82F321B021AB2FB6A93F82E321BB2AC
S3150800D48013431BB2394A93422BD1FB6A93F83330C4
S3150800D4901A06FB6A93F832301B041343FA6A92F8A9
S3150800D4A0312012021343FA6A92F830201343304AA5
S3150800D4B0934216D1FB6A93F817321A06FB6A93F859
S3150800D4C016321B041343FA6A92F815221202134302
S3150800D4D0FA6A92F814221343264A934201D1012389
S3150800D4E000E00023002B27D0FB6A93F81F321A06A8
S3150800D4F0FB6A93F81E321B041343FA6A92F81D223C
S3150800D50012021343FA6A92F81C221A43FB6ADA607B
S3150800D510FB6A93F81B321A06FB6A93F81A321B0445
S3150800D5201343FA6A92F8192212021343FA6A92F816
S3150800D53018221A43FB6A1A61FB6A97F847201A7081
S3150800D5400D4B1B8801339AB20B4B1A800A4B1A886B
S3150800D550FB6ADA80FB6A0022DA62FB6A00221A7129
S3150800D560002318464837BD4680BD00BF55AAFFFFB1
S3150800D5705252614172724161B818002080B582B07A
S3150800D58000AF78600B467B807B68002B08D07B68F1
S3150800D5901B78002B04D07B68DB887A889A4201D0F6
S3150800D5A0092311E07B685B781846FEF7CBF803463B
S3150800D5B003F00103002B14BF01230023DBB2002B69
S3150800D5C001D0032300E0002318460837BD4680BD76
S3150800D5D080B485B000AF03463960FB71FB79002B38
S3150800D5E001D00B2316E0FB790D4A52F82330FB6075
S3150800D5F0FB68002B02D0FB6800221A703B68002BE0
S3150800D60002D03B6800221A70FB7905493A6841F84E
S3150800D6102320002318461437BD465DF8047B70475F
S3150800D620B418002080B594B000AFF860B96013460E
S3150800D630FB71FB6800221A60FB7903F01F03FB717C
S3150800D640FB7923F00103DAB207F1200107F1080399
S3150800D6501846FFF7F5FC034687F84F3007F1140321
S3150800D660BB63A74BFB6397F84F30002B09D1BA6809
S3150800D67007F1200311461846FFF7F8FB034687F81B
S3150800D6804F307B6BBB6497F84F30002B05D1BB6CD2
S3150800D690002B02D1062387F84F30FB7903F01C03D1
S3150800D6A0002B00F0B18097F84F30002B12D097F876
S3150800D6B04F30042B07D107F120031846FFF7E2F88D
S3150800D6C0034687F84F30FB7943F00803FB717B6B01
S3150800D6D0BB6412E0FB7903F00403002B03D0082394
S3150800D6E087F84F3009E0BB6C0B331B7803F0110346
S3150800D6F0002B02D0072387F84F3097F84F30002BBE
S3150800D70040F0A080FB7903F00803002B00F09A8014
S3150800D7107C4B3B61BB6C0E333A69D2B21A70BB6C58
S3150800D7200F333A6992B21212D2B21A70BB6C103326
S3150800D7303A69120CD2B21A70BB6C11333A69120EDE
S3150800D740D2B21A70BB6C0B3300221A70BB6C1C3336
S3150800D75000221A70BB6C1D3300221A70BB6C1E3374
S3150800D76000221A70BB6C1F3300221A70BB6C15336B
S3150800D7701B781B021AB2BB6C14331B781BB21343FB
S3150800D7801BB29BB21B04BA6C1B321278120211B27E
S3150800D790BA6C1A32127812B20A4312B292B2134310
S3150800D7A07B64BB6C1A3300221A70BB6C1B330022D5
S3150800D7B01A70BB6C143300221A70BB6C1533002226
S3150800D7C01A703B6A01221A717B6C002B3AD03B6AAD
S3150800D7D0DB6A3B613B6A796C1846FEF7C9FB034670
S3150800D7E087F84F3097F84F30002B2BD13B6A7A6C6D
S3150800D7F0013ADA603B6A3A6911461846FEF7CEF8EE
S3150800D800034687F84F301DE097F84F30002B19D1A3
S3150800D810BB6C0B331B7803F01003002B03D00423D7
S3150800D82087F84F300EE0FB7903F00203002B09D08E
S3150800D830BB6C0B331B7803F00103002B02D00723C4
S3150800D84087F84F3097F84F30002B0FD1FB7903F04C
S3150800D8500803002B03D0FB7943F02003FB713B6AD6
S3150800D860DA6AFB68DA61FB68BA6C1A6297F84F30B5
S3150800D870002B3FD1FB68FA799A71BB6C15331B787C
S3150800D8801B021AB2BB6C14331B781BB213431BB2B0
S3150800D8909BB21B04BA6C1B321278120211B2BA6C14
S3150800D8A01A32127812B20A4312B292B21A43FB68BB
S3150800D8B01A61BB6C1F331B781A06BB6C1E331B78A8
S3150800D8C01B041343BA6C1D32127812021343BA6C46
S3150800D8D01C3212781A43FB68DA60FB6800229A60E9
S3150800D8E0FB6800229A613A6AFB681A603B6ADA8822
S3150800D8F0FB689A8097F84F3018465037BD4680BD6A
S3150800D900BC180020C0B3493480B58CB000AFF860AD
S3150800D910B9607A603B60BB687B623B6800221A602C
S3150800D920FB681A68FB689B8819461046FFF726FEAF
S3150800D930034687F8233097F82330002B02D097F850
S3150800D940233043E1FB689B795BB2002B01DA0223A3
S3150800D9503CE1FB689B7903F00103002B01D1072307
S3150800D96034E1FB68DA68FB689B68D31AFB617A685E
S3150800D970FB699A4201D9FB697B607B68002B00F042
S3150800D9802481FB689B68C3F30803002B40F0EE80F4
S3150800D990FB689B685B0ADAB2FB681B689B78013BED
S3150800D9A0DBB21340FB76FB7E002B2CD1FB689B6811
S3150800D9B0002B02D1FB681B6908E0FB681A68FB6844
S3150800D9C05B6919461046FEF711F903463B613B6948
S3150800D9D0012B08D8FB689B7963F07F03DAB2FB68F2
S3150800D9E09A710223F2E03B69B3F1FF3F08D1FB6865
S3150800D9F09B7963F07F03DAB2FB689A710123E5E04D
S3150800DA00FB683A695A61FB681A68FB685B691946DC
S3150800DA101046FEF7CBF878617B69002B08D1FB68C6
S3150800DA209B7963F07F03DAB2FB689A710223CDE033
S3150800DA30FB7E7A6913447B617B685B0ABB62BB6ABF
S3150800DA40002B47D0FA7EBB6A1344FA6812689278AC
S3150800DA50934206D9FB681B689B781A46FB7ED31A45
S3150800DA60BB62FB681B685878BB6ADBB27A69796A5D
S3150800DA70FDF77AFE0346002B14BF01230023DBB211
S3150800DA80002B08D0FB689B7963F07F03DAB2FB684A
S3150800DA909A7101239AE0FB689B7903F04003002BF7
S3150800DAA014D0FB689A697B69D21ABB6A9A420DD26E
S3150800DAB0FB689A697B69D31A5B027A6AD018FB6895
S3150800DAC024334FF400721946FDF7DCFEBB6A5B028D
S3150800DAD0FB6265E0FB689B7903F04003002B22D0CC
S3150800DAE0FB681B685878FB6803F12401FB689A6990
S3150800DAF00123FDF773FE0346002B14BF0123002301
S3150800DB00DBB2002B08D0FB689B7963F07F03DAB29F
S3150800DB10FB689A71012359E0FB689B7923F040035F
S3150800DB20DAB2FB689A71FB689A697B699A421AD0DD
S3150800DB30FB681B685878FB6803F1240101237A699E
S3150800DB40FDF712FE0346002B14BF01230023DBB2A8
S3150800DB50002B08D0FB689B7963F07F03DAB2FB6879
S3150800DB609A71012332E0FB687A699A61FB689B68BF
S3150800DB70C3F30803C3F50073FB62FA6A7B689A422B
S3150800DB8001D97B68FB62FB689B68C3F308032033F3
S3150800DB90FA6813440433FA6A1946786AFDF772FE7E
S3150800DBA07A6AFB6A13447B62FB689A68FB6A1A44C2
S3150800DBB0FB689A603B681A68FB6A1A443B681A60F5
S3150800DBC07A68FB6AD31A7B60D7E600231846303793
S3150800DBD0BD4680BD80B586B000AF78607B681A68A0
S3150800DBE07B689B8819461046FFF7C8FC0346FB75F9
S3150800DBF0FB7D002B40F0A8807B689B7903F020030F
S3150800DC00002B00F0A1807B689B7903F04003002B72
S3150800DC101BD07B681B6858787B6803F124017B68F6
S3150800DC209A690123FDF7DAFD0346002B14BF012389
S3150800DC300023DBB2002B01D0012386E07B689B79A9
S3150800DC4023F04003DAB27B689A717B681A687B68AE
S3150800DC50DB6919461046FDF7A1FE0346FB75FB7DF9
S3150800DC60002B71D17B681B6A3B613B690B333A69B0
S3150800DC700B32127842F02002D2B21A703B691C337A
S3150800DC807A68D268D2B21A703B691D337A68D2684C
S3150800DC9092B21212D2B21A703B691E337A68D268EF
S3150800DCA0120CD2B21A703B691F337A68D268120E08
S3150800DCB0D2B21A703B691A337A681269D2B21A70EC
S3150800DCC03B691B337A68126992B21212D2B21A7081
S3150800DCD03B6914337A681269120CD2B21A703B691E
S3150800DCE015337A681269120C92B21212D2B21A70ED
S3150800DCF0184BFB603B691633FA68D2B21A703B6957
S3150800DD001733FA6892B21212D2B21A703B691833F4
S3150800DD10FA68120CD2B21A703B691933FA68120EF5
S3150800DD20D2B21A707B689B7923F02003DAB27B683B
S3150800DD309A717B681B6801221A717B681B681846F2
S3150800DD40FDF790FE0346FB75FB7D18461837BD4662
S3150800DD5080BD00BFC0B3493480B584B000AF7860D9
S3150800DD607868FFF737FF0346FB73FB7B002B02D16E
S3150800DD707B6800221A60FB7B18461037BD4680BDBB
S3150800DD8080B483B000AF03463960FB80FB887F2BE5
S3150800DD9001D8FB8800E0002318460C37BD465DF81D
S3150800DDA0047B704780B483B000AF0346FB80FB88D2
S3150800DDB07F2B0BD8FB88602B06D9FB887A2B03D8D8
S3150800DDC0FB8823F02003FB80FB8800E0002318462D
S3150800DDD00C37BD465DF8047B704700BF80B584B03C
S3150800DDE000AF786001F02AFA786848F0E5FF034644
S3150800DDF0FB6001F031FAFB68002B01D108F078F9D5
S3150800DE00FB6818461037BD4680BD00BF80B582B096
S3150800DE1000AF78607B68002B06D001F00FFA7868AF
S3150800DE2048F0D2FF01F018FA00BF0837BD4680BD9A
S3150800DE3080B483B000AF78607B6803F108027B6822
S3150800DE405A607B684FF0FF329A607B6803F10802DC
S3150800DE507B68DA607B6803F108027B681A617B6875
S3150800DE6000221A6000BF0C37BD465DF8047B704778
S3150800DE7080B483B000AF78607B6800221A6100BF67
S3150800DE800C37BD465DF8047B704700BF80B485B08B
S3150800DE9000AF786039607B685B68FB603B68FA684E
S3150800DEA05A60FB689A683B689A60FB689B683A68A0
S3150800DEB05A60FB683A689A603B687A681A617B68B8
S3150800DEC01B685A1C7B681A6000BF1437BD465DF88C
S3150800DED0047B704780B485B000AF786039603B68D2
S3150800DEE01B68BB60BB68B3F1FF3F03D17B681B6946
S3150800DEF0FB600CE07B680833FB6002E0FB685B684C
S3150800DF00FB60FB685B681A68BB689A42F6D9FB68CF
S3150800DF105A683B685A603B685B683A689A603B682F
S3150800DF20FA689A60FB683A685A603B687A681A61C8
S3150800DF307B681B685A1C7B681A6000BF1437BD468D
S3150800DF405DF8047B704700BF80B485B000AF786089
S3150800DF507B681B69FB607B685B687A6892689A6075
S3150800DF607B689B687A6852685A60FB685A687B685F
S3150800DF709A4203D17B689A68FB685A607B680022DC
S3150800DF801A61FB681B685A1EFB681A60FB681B68E7
S3150800DF9018461437BD465DF8047B704780B485B0D3
S3150800DFA000AFF860B9607A60FB68043BFB60FB6809
S3150800DFB04FF080721A60FB68043BFB60BB6823F075
S3150800DFC00102FB681A60FB68043BFB60094AFB68B0
S3150800DFD01A60FB68143BFB607A68FB681A60FB688A
S3150800DFE0203BFB60FB6818461437BD465DF8047B8A
S3150800DFF0704700BFF9DF000880B582B000AF094B53
S3150800E0001B68B3F1FF3F03D0F221074808F068F810
S3150800E0104FF0BF0383F31188BFF36F8FBFF34F8FA2
S3150800E0207B60FEE7C0000020705E06080000000066
S3150800E030074B19680868B0E8F00F80F30988BFF342
S3150800E0406F8F4FF0000080F311884EF00D0E704769
S3150800E050C41A002000BF00BF06480068006880F3A5
S3150800E060088862B661B6BFF34F8FBFF36F8F00DFC4
S3150800E07000BF00BF08ED00E080B584B000AF284BB4
S3150800E080FB60FB681B78DBB2BB60FB68FF221A707B
S3150800E090FB681B78DBB2FB71FB79DBB223F040032C
S3150800E0A0DAB2204B1A70204B07221A6009E01E4B81
S3150800E0B01B68013B1C4A1360FB79DBB25B00DBB2D1
S3150800E0C0FB71FB79DBB25BB2002BF0DB164B1B68EE
S3150800E0D01B02154A1360144B1B6803F4E063124ACB
S3150800E0E01360BB68DAB2FB681A70104A0F4B1B68DC
S3150800E0F043F47F0313600D4A0C4B1B6843F07F43C0
S3150800E100136000F0A9F80A4B00221A60FFF7A4FF73
S3150800E110FFF772FF002318461037BD4680BD00BFC3
S3150800E12000E400E0BC1A0020C01A002020ED00E040
S3150800E130C000002080B582B000AF4FF0BF0383F364
S3150800E1401188BFF36F8FBFF34F8F7B600B4B1B6834
S3150800E15001330A4A1360094B1B68012B09D1084B86
S3150800E1601B68DBB2002B04D040F27F11054807F08C
S3150800E170B7FF00BF0837BD4680BD00BFC0000020FE
S3150800E18004ED00E0705E060880B582B000AF0D4B66
S3150800E1901B68002B04D14FF4C3710B4807F0A0FF8E
S3150800E1A0084B1B68013B074A1360064B1B68002B8C
S3150800E1B004D100237B607B6883F3118800BF08378E
S3150800E1C0BD4680BDC0000020705E06080000000045
S3150800E1D0EFF30980BFF36F8F0D4B1A6820E9F00F34
S3150800E1E010602DE908404FF0BF0080F3118801F058
S3150800E1F087F94FF0000080F31188BDE808401968D8
S3150800E2000868B0E8F00F80F30988BFF36F8F70478E
S3150800E210C41A002000BF00BF80B582B000AF4FF01F
S3150800E220BF0383F31188BFF36F8FBFF34F8F3B6034
S3150800E23001F0BCF80346002B03D0064B4FF0805282
S3150800E2401A6000237B607B6883F3118800BF083758
S3150800E250BD4680BD04ED00E080B400AF054B064A1C
S3150800E2601A60064B07221A6000BFBD465DF8047B9C
S3150800E270704700BF14E000E07FA2190010E000E03C
S3150800E28080B582B000AFEFF305837B607B680F2B08
S3150800E2900ED9104A7B6813441B78FB700E4B1B780B
S3150800E2A0FA789A4204D240F29E210C4807F018FFE9
S3150800E2B00B4B1B6803F4E0620A4B1B689A4204D9AD
S3150800E2C040F2AE21054807F00BFF00BF0837BD46F0
S3150800E2D080BD00BFF0E300E0BC1A0020705E0608AF
S3150800E2E00CED00E0C01A002080B584B000AF78605D
S3150800E2F039607B68FB60FB68002B04D140F21B1178
S3150800E300294807F0EDFEFFF715FFFB681A68FB685A
S3150800E310DB6BF968096C01FB03F31A44FB685A6066
S3150800E320FB6800229A63FB681A68FB689A60FB68B8
S3150800E3301A68FB68DB6B013BF968096C01FB03F3A0
S3150800E3401A44FB68DA60FB68FF2283F84420FB68FE
S3150800E350FF2283F845203B68002B14D1FB681B6914
S3150800E360002B1AD0FB681033184601F069F90346EA
S3150800E370002B12D00D4B4FF080521A60BFF34F8F0F
S3150800E380BFF36F8F09E0FB6810331846FFF750FD9F
S3150800E390FB6824331846FFF74BFDFFF7F5FE01230C
S3150800E3A018461037BD4680BD885E060804ED00E0B5
S3150800E3B080B58AB002AFF860B9601346FB71FB6896
S3150800E3C0002B04D14FF4C471134807F089FEBB68CB
S3150800E3D0002B02D10023FB6104E0FB68BA6802FB4C
S3150800E3E003F3FB61FB6948331846FFF7F7FCB8618E
S3150800E3F0BB69002B0BD0BB6948337B61FA79BB69D3
S3150800E400009313467A69B968F86800F007F8BB699B
S3150800E41018462037BD4680BD885E060880B584B09C
S3150800E42000AFF860B9607A60FB70BB68002B03D157
S3150800E430BB69BA691A6002E0BB697A681A60BB6987
S3150800E440FA68DA63BB69BA681A640121B869FFF722
S3150800E4504BFF00BF1037BD4680BD00BF80B582B0F8
S3150800E46000AF78607B68002B0ED07B6800225A606C
S3150800E4707B6800221A607B680022DA60002300228B
S3150800E4800021786800F01CF800BF0837BD4680BD3B
S3150800E49080B586B000AF0346FB7101237B6100237C
S3150800E4A03B61FB791A4639697869FFF781FFF8609D
S3150800E4B0F868FFF7D3FFFB6818461837BD4680BDD6
S3150800E4C080B58AB000AFF860B9607A603B60002317
S3150800E4D07B62FB683B623B6A002B04D140F2D92180
S3150800E4E0694807F0FDFDBB68002B03D13B6A1B6C2E
S3150800E4F0002B01D1012300E00023002B04D140F2B8
S3150800E500DA21614807F0ECFD3B68022B03D13B6A30
S3150800E510DB6B012B01D1012300E00023002B04D182
S3150800E52040F2DB21584807F0DBFD01F033FA0346D9
S3150800E530002B02D17B68002B01D1012300E00023C8
S3150800E540002B04D140F2DE214F4807F0C9FDFFF742
S3150800E550F1FD3B6A9A6B3B6ADB6B9A4202D33B68D6
S3150800E560022B29D13A68B968386A00F0B1FAF8611D
S3150800E5703B6A5B6A002B10D03B6A2433184601F0CD
S3150800E5805FF80346002B13D0404B4FF080521A60B9
S3150800E590BFF34F8FBFF36F8F0AE0FB69002B07D0DD
S3150800E5A03A4B4FF080521A60BFF34F8FBFF36F8F0D
S3150800E5B0FFF7EAFD012363E07B68002B03D1FFF731
S3150800E5C0E3FD00235CE07B6A002B06D107F1140308
S3150800E5D0184601F095F801237B62FFF7D5FD00F098
S3150800E5E02DFEFFF7A7FD3B6A93F844305BB2B3F103
S3150800E5F0FF3F03D13B6A002283F844203B6A93F825
S3150800E60045305BB2B3F1FF3F03D13B6A002283F882
S3150800E6104520FFF7B9FD3A1D07F1140311461846C0
S3150800E62001F08CF80346002B24D1386A00F048FB29
S3150800E6300346002B18D03B6A10337A6811461846F1
S3150800E64000F0B6FF386A00F0D3FA00F005FE03467C
S3150800E650002B7FF47CAF0D4B4FF080521A60BFF34E
S3150800E6604F8FBFF36F8F72E7386A00F0C1FA00F078
S3150800E670F3FD6CE7386A00F0BBFA00F0EDFD002305
S3150800E68018462837BD4680BD885E060804ED00E0BA
S3150800E69080B58CB000AFF860B9607A603B60FB6803
S3150800E6A0BB62BB6A002B04D140F29F313A4807F09F
S3150800E6B017FDBB68002B03D1BB6A1B6C002B01D16D
S3150800E6C0012300E00023002B04D14FF4687132487F
S3150800E6D007F006FD3B68022B03D1BB6ADB6B012BF7
S3150800E6E001D1012300E00023002B04D140F2A1311F
S3150800E6F0294807F0F5FCFFF7C3FDEFF311824FF049
S3150800E700BF0383F31188BFF36F8FBFF34F8FBA61CF
S3150800E7107B61BB693B62BB6A9A6BBB6ADB6B9A42DD
S3150800E72002D33B68022B2AD1BB6A93F84530FB77A4
S3150800E7303A68B968B86A00F0CBF997F91F30B3F1AF
S3150800E740FF3F12D1BB6A5B6A002B15D0BB6A243324
S3150800E750184600F075FF0346002B0DD07B68002B8A
S3150800E7600AD07B6801221A6006E0FB7F0133DBB220
S3150800E7705AB2BB6A83F845200123FB6201E00023F5
S3150800E780FB623B6A7B627B6A83F31188FB6A1846E5
S3150800E7903037BD4680BD00BF885E060880B58AB0A2
S3150800E7A000AF786039607B683B623B6A002B04D116
S3150800E7B040F23C41354807F093FC3B6A1B6C002B42
S3150800E7C004D04FF48861314807F08AFC3B6A1B681D
S3150800E7D0002B03D13B6A5B68002B01D1012300E0C3
S3150800E7E00023002B04D140F24541284807F078FC65
S3150800E7F0FFF746FDEFF311824FF0BF0383F311884D
S3150800E800BFF36F8FBFF34F8FFA60BB60FB68BB61C6
S3150800E8103B6A9B6B7B613B6ADA6B7B699A4229D9B7
S3150800E8203B6A93F84530FB747B695A1C3B6A9A63CA
S3150800E83097F91330B3F1FF3F12D13B6A5B6A002B9D
S3150800E84015D03B6A2433184600F0FAFE0346002B1F
S3150800E8500DD03B68002B0AD03B6801221A6006E0FF
S3150800E860FB7C0133DBB25AB23B6A83F845200123AD
S3150800E8707B6201E000237B62BB69FB61FB6983F372
S3150800E88011887B6A18462837BD4680BD885E06080B
S3150800E89080B58AB000AFF860B9607A603B60002343
S3150800E8A07B62FB683B623B6A002B04D140F2DC4189
S3150800E8B0784807F015FCBB68002B03D13B6A1B6C34
S3150800E8C0002B01D1012300E00023002B04D140F2E4
S3150800E8D0DD41704807F004FC01F05CF80346002BA4
S3150800E8E002D17B68002B01D1012300E00023002B15
S3150800E8F004D14FF49C61674807F0F2FBFFF71AFC56
S3150800E9003B6A9B6BFB61FB69002B46D03B6ADB6865
S3150800E910BB61B968386A00F045F93B68002B21D11C
S3150800E920FB695A1E3B6A9A633B6A1B68002B04D133
S3150800E93001F010F902463B6A5A603B6A1B69002BD4
S3150800E94027D03B6A1033184600F07AFE0346002BA0
S3150800E9501FD0514B4FF080521A60BFF34F8FBFF351
S3150800E9606F8F16E03B6ABA69DA603B6A5B6A002B0E
S3150800E9700FD03B6A2433184600F062FE0346002B8C
S3150800E98007D0454B4FF080521A60BFF34F8FBFF345
S3150800E9906F8FFFF7F9FB012377E07B68002B03D124
S3150800E9A0FFF7F2FB002370E07B6A002B06D107F124
S3150800E9B01003184600F0A4FE01237B62FFF7E4FB70
S3150800E9C000F03CFCFFF7B6FB3B6A93F844305BB2B9
S3150800E9D0B3F1FF3F03D13B6A002283F844203B6A28
S3150800E9E093F845305BB2B3F1FF3F03D13B6A00228F
S3150800E9F083F84520FFF7C8FB3A1D07F110031146B7
S3150800EA00184600F09BFE0346002B31D1386A00F009
S3150800EA1041F90346002B25D03B6A1B68002B08D119
S3150800EA20FFF788FB3B6A5B68184600F0D1FFFFF7E3
S3150800EA30ABFB3B6A24337A681146184600F0B8FDEA
S3150800EA40386A00F0D5F800F007FC0346002B7FF47F
S3150800EA5055AF114B4FF080521A60BFF34F8FBFF37B
S3150800EA606F8F4BE7386A00F0C3F800F0F5FB45E70F
S3150800EA70386A00F0BDF800F0EFFB386A00F00AF9D2
S3150800EA800346002B3FF43AAF002318462837BD4605
S3150800EA9080BD00BF885E060804ED00E080B584B03E
S3150800EAA000AF78607B68FB60FB68002B04D140F2FE
S3150800EAB05D61064807F014FBF86800F041F9F8684C
S3150800EAC0FFF7A4F900BF1037BD4680BD885E06086B
S3150800EAD080B586B000AFF860B9607A6000237B61C4
S3150800EAE0FB689B6B3B61FB681B6C002B0DD1FB68BD
S3150800EAF01B68002B4DD1FB685B68184600F0C6FF03
S3150800EB007861FB6800225A6043E07B68002B19D1C4
S3150800EB10FB689868FB681B6C1A46B96848F00AFDDA
S3150800EB20FB689A68FB681B6C1A44FB689A60FB686A
S3150800EB309A68FB685B689A422BD3FB681A68FB687D
S3150800EB409A6026E0FB68D868FB681B6C1A46B968A9
S3150800EB5048F0F0FCFB68DA68FB681B6C5B421A44F9
S3150800EB60FB68DA60FB68DA68FB681B689A4207D2BA
S3150800EB70FB685A68FB681B6C5B421A44FB68DA60E0
S3150800EB807B68022B05D13B69002B02D03B69013B10
S3150800EB903B613B695A1CFB689A637B6918461837C0
S3150800EBA0BD4680BD80B582B000AF786039607B68AD
S3150800EBB01B6C002B18D07B68DA687B681B6C1A44C0
S3150800EBC07B68DA607B68DA687B685B689A4203D39D
S3150800EBD07B681A687B68DA607B68D9687B681B6C17
S3150800EBE01A46386848F0A6FC00BF0837BD4680BDFF
S3150800EBF080B584B000AF7860FFF79CFA7B6893F81D
S3150800EC004530FB7311E07B685B6A002B12D07B688A
S3150800EC102433184600F014FD0346002B01D000F0FB
S3150800EC20E3FDFB7B013BDBB2FB7397F90F30002B4F
S3150800EC30E9DC00E000BF7B68FF2283F84520FFF788
S3150800EC40A3FAFFF777FA7B6893F84430BB7311E0B1
S3150800EC507B681B69002B12D07B681033184600F0BE
S3150800EC60EFFC0346002B01D000F0BEFDBB7B013B49
S3150800EC70DBB2BB7397F90E30002BE9DC00E000BF6E
S3150800EC807B68FF2283F84420FFF77EFA00BF10371F
S3150800EC90BD4680BD80B584B000AF7860FFF74AFAFC
S3150800ECA07B689B6B002B02D10123FB6001E00023EC
S3150800ECB0FB60FFF769FAFB6818461037BD4680BD4A
S3150800ECC080B584B000AF7860FFF734FA7B689A6B3A
S3150800ECD07B68DB6B9A4202D10123FB6001E00023CB
S3150800ECE0FB60FFF751FAFB6818461037BD4680BD32
S3150800ECF080B485B000AF786039600023FB6014E00B
S3150800ED000E4AFB6852F83330002B0BD10B49FB68CF
S3150800ED103A6841F83320094AFB68DB0013447A68ED
S3150800ED205A6005E0FB680133FB60FB68092BE7D9ED
S3150800ED3000BF1437BD465DF8047B7047404000208D
S3150800ED4080B485B000AF78600023FB6016E0104AF7
S3150800ED50FB68DB0013445A687B689A420BD10C4A5D
S3150800ED60FB68002142F83310094AFB68DB001344AC
S3150800ED7000225A6005E0FB680133FB60FB68092B3B
S3150800ED80E5D900BF1437BD465DF8047B704700BF60
S3150800ED904040002080B586B000AFF860B9607A6060
S3150800EDA0FB687B61FFF7C6F97B6993F844305BB271
S3150800EDB0B3F1FF3F03D17B69002283F844207B69C6
S3150800EDC093F845305BB2B3F1FF3F03D17B6900226C
S3150800EDD083F84520FFF7D8F97B699B6B002B06D192
S3150800EDE07B6924337A68B968184600F001FC7869AB
S3150800EDF0FFF7FEFE00BF1837BD4680BD80B58CB054
S3150800EE0004AFF860B9603B601346FB80FB889B0043
S3150800EE101846FEF7E3FF78617B69002B0ED0782051
S3150800EE20FEF7DCFFF861FB69002B03D0FB697A6902
S3150800EE301A6305E07869FEF7E9FF01E00023FB6144
S3150800EE40FB69002B13D0FA8800230393FB6902930E
S3150800EE50FB6A0193BB6A00933B68B968F86800F0DF
S3150800EE600FF8F86900F098F80123BB6102E04FF04B
S3150800EE70FF33BB61BB6918462037BD4680BD00BF5E
S3150800EE8080B586B000AFF860B9607A603B60BB6A4F
S3150800EE901A6B7B6803F18043013B9B0013443B617B
S3150800EEA03B6923F007033B613B6903F00703002B2B
S3150800EEB004D040F22B31374807F012F900237B6162
S3150800EEC012E0BA687B6913441978BA6A7B691344F5
S3150800EED034330A461A70BA687B6913441B78002BC8
S3150800EEE006D07B6901337B617B691F2BE9D900E07A
S3150800EEF000BFBB6A002283F853203B6A042B01D962
S3150800EF0004233B62BB6A3A6ADA62BB6A3A6A5A65A2
S3150800EF10BB6A00229A65BB6A04331846FEF7A8FF47
S3150800EF20BB6A18331846FEF7A3FFBB6ABA6A1A61AA
S3150800EF303B6AC3F10502BB6A9A61BB6ABA6A5A623E
S3150800EF4000237B6109E0BA6A7B6916339B00134488
S3150800EF5000225A607B6901337B617B69042BF2D9F5
S3150800EF60BB6A00221A67BB6A002283F874203A68D3
S3150800EF70F9683869FFF712F80246BB6A1A607B6AB5
S3150800EF80002B02D07B6ABA6A1A6000BF1837BD46E2
S3150800EF9080BD00BFA05E060880B582B000AF78606D
S3150800EFA0FFF7C8F82B4B1B6801332A4A13602A4B14
S3150800EFB01B68002B09D1284A7B681360254B1B6800
S3150800EFC0012B10D100F034FC0DE0244B1B68002BFC
S3150800EFD009D1214B1B68DA6A7B68DB6A9A4202D838
S3150800EFE01D4A7B6813601E4B1B6801331C4A13605D
S3150800EFF07B68DA6A1B4B1B689A4203D97B68DB6A13
S3150800F000184A13607B68DA6A13469B0013449B0010
S3150800F010154A1A447B68043319461046FEF736FF2C
S3150800F020FFF7B2F80D4B1B68002B0ED00A4B1B6876
S3150800F030DA6A7B68DB6A9A4207D20C4B4FF0805239
S3150800F0401A60BFF34F8FBFF36F8F00BF0837BD46F7
S3150800F05080BD00BF9C1B0020C41A0020A81B0020EE
S3150800F060B81B0020A41B0020C81A002004ED00E0ED
S3150800F07080B584B000AF7860FFF75CF87B68002B3A
S3150800F08002D1294B1B6800E07B68FB60FB680433F0
S3150800F0901846FEF759FFFB689B6A002B04D0FB68ED
S3150800F0A018331846FEF750FF204B1B6801331F4ADA
S3150800F0B013601D4B1B68FA689A420BD1FB68043330
S3150800F0C019461B48FEF7E2FE1A4B1B680133194A1C
S3150800F0D0136009E0184B1B68013B174A1360F86870
S3150800F0E000F022FC00F030FCFFF74EF8134B1B68CB
S3150800F0F0002B15D00C4B1B68FA689A4210D1104B9E
S3150800F1001B68002B04D040F265410E4806F0E8FF64
S3150800F1100D4B4FF080521A60BFF34F8FBFF36F8FBE
S3150800F12000BF1037BD4680BDC41A0020B81B00209A
S3150800F130701B0020841B00209C1B0020A81B00209D
S3150800F140C41B0020A05E060804ED00E080B584B06C
S3150800F15000AF78600023FB607B68002B11D0104B52
S3150800F1601B68002B04D040F2CF410E4806F0B8FFCA
S3150800F17000F064F80021786800F000FD00F06CF8F3
S3150800F180F860FB68002B07D1074B4FF080521A60D6
S3150800F190BFF34F8FBFF36F8F00BF1037BD4680BDDB
S3150800F1A0C41B0020A05E060804ED00E080B584B00C
S3150800F1B002AF1B4B019300230093002380221949B9
S3150800F1C01948FFF71BFE78607B68012B02D100F017
S3150800F1D029FD78607B68012B15D14FF0BF0383F3B7
S3150800F1E01188BFF36F8FBFF34F8F3B600F4B4FF004
S3150800F1F0FF321A600E4B01221A600E4B00221A606B
S3150800F200FEF73AFF08E07B68B3F1FF3F04D140F20E
S3150800F2108471094806F064FF00BF0837BD4680BD03
S3150800F220C01B0020B85E060801F80008BC1B0020B9
S3150800F230A81B0020A01B0020A05E060880B400AF13
S3150800F240044B1B680133034A136000BFBD465DF8D3
S3150800F250047B7047C41B002080B584B000AF002330
S3150800F260FB600023BB603F4B1B68002B04D14FF4A7
S3150800F270FD613D4806F034FFFEF75CFF394B1B681D
S3150800F280013B384A1360374B1B68002B62D1374B5A
S3150800F2901B68002B5ED02FE0354BDB68DB68FB6014
S3150800F2A0FB6818331846FEF74FFEFB68043318460A
S3150800F2B0FEF74AFEFB68DA6A2E4B1B689A4203D9A8
S3150800F2C0FB68DB6A2B4A1360FB68DA6A13469B0005
S3150800F2D013449B00284A1A44FB680433194610460F
S3150800F2E0FEF7D4FDFB68DA6A244B1B68DB6A9A4290
S3150800F2F002D3234B01221A601D4B1B68002BCBD16E
S3150800F300FB68002B01D000F01FFB1E4B1B687B60BF
S3150800F3107B68002B10D000F049F80346002B02D07A
S3150800F320174B01221A607B68013B7B607B68002BC8
S3150800F330F1D1144B00221A60114B1B68002B09D01F
S3150800F3400123BB60104B4FF080521A60BFF34F8FFA
S3150800F350BFF36F8FFEF718FFBB6818461037BD4618
S3150800F36080BD00BFC41B0020A05E06089C1B0020B1
S3150800F3705C1B0020A41B0020C81A0020C41A002009
S3150800F380B01B0020AC1B002004ED00E080B483B065
S3150800F39000AF054B1B687B607B6818460C37BD467B
S3150800F3A05DF8047B704700BFA01B002080B586B0BF
S3150800F3B000AF00237B61464B1B68002B78D1454B79
S3150800F3C01B6801333B61434A3B6913603B69002B69
S3150800F3D01AD1414B1B681B68002B04D040F6D91183
S3150800F3E03E4806F07DFE3C4B1B68FB603C4B1B68A9
S3150800F3F0394A13603A4AFB6813603A4B1B68013373
S3150800F400384A136000F0A0FA374B1B683A699A42EB
S3150800F41053D3314B1B681B68002B01D1012300E035
S3150800F4200023002B04D0304B4FF0FF321A6044E023
S3150800F430294B1B68DB68DB68BB60BB685B687B6065
S3150800F4403A697B689A4203D2274A7B68136034E09C
S3150800F450BB6804331846FEF777FDBB689B6A002B2A
S3150800F46004D0BB6818331846FEF76EFDBB68DA6A27
S3150800F4701E4B1B689A4203D9BB68DB6A1B4A13609A
S3150800F480BB68DA6A13469B0013449B00184A1A4461
S3150800F490BB68043319461046FEF7F8FCBB68DA6AFF
S3150800F4A0144B1B68DB6A9A42B3D301237B61B0E72E
S3150800F4B0114B1B680133104A1360104B1B68002B55
S3150800F4C001D001237B617B6918461837BD4680BD8C
S3150800F4D0C41B0020A01B0020541B0020A05E0608A9
S3150800F4E0581B0020B41B0020BC1B0020A41B0020B6
S3150800F4F0C81A0020C41A0020AC1B0020B01B00202C
S3150800F50080B582B000AF244B1B68002B03D0234B79
S3150800F51001221A603BE0214B00221A60204B1B682F
S3150800F5207B600AE07B68002B04D140F6F6211D4873
S3150800F53006F0D6FD7B68013B7B601B497A6813465B
S3150800F5409B0013449B000B441B68002BEAD07A6887
S3150800F55013469B0013449B00134A13443B603B68C5
S3150800F5605B685A683B685A603B685A683B68083368
S3150800F5709A4204D13B685B685A683B685A603B68A4
S3150800F5805B68DB68094A1360054A7B68136000BF3D
S3150800F5900837BD4680BD00BFC41B0020B01B002035
S3150800F5A0A41B0020A05E0608C81A0020C41A002062
S3150800F5B080B582B000AF786039607B68002B04D1D3
S3150800F5C040F60631084806F08BFD084B1B681833D1
S3150800F5D019467868FEF77EFC0121386800F0CEFAF5
S3150800F5E000BF0837BD4680BDA05E0608C41A0020C5
S3150800F5F080B584B000AFF860B9607A60FB68002B0C
S3150800F60004D140F631310C4806F06AFD0B4B1B68F5
S3150800F61018331946F868FEF739FC7B68002B02D0C8
S3150800F6204FF0FF33BB607968B86800F0A7FA00BFEF
S3150800F6301037BD4680BD00BFA05E0608C41A00206C
S3150800F64080B584B000AF78607B68DB68DB68BB6038
S3150800F650BB68002B04D140F66131224806F040FD14
S3150800F660BB6818331846FEF76FFC1F4B1B68002B48
S3150800F6701DD1BB6804331846FEF766FCBB68DA6A18
S3150800F6801A4B1B689A4203D9BB68DB6A174A136090
S3150800F690BB68DA6A13469B0013449B00144A1A4453
S3150800F6A0BB68043319461046FEF7F0FB05E0BB6855
S3150800F6B0183319460F48FEF7E9FBBB68DA6A0E4BA2
S3150800F6C01B68DB6A9A4205D90123FB600B4B0122B2
S3150800F6D01A6001E00023FB60FB6818461037BD4638
S3150800F6E080BD00BFA05E0608C41B0020A41B002026
S3150800F6F0C81A00205C1B0020C41A0020B01B00207A
S3150800F70080B582B000AF78607B68002B04D140F6E4
S3150800F710C131074806F0E4FC064B1A687B681A6094
S3150800F720054B1A687B685A6000BF0837BD4680BD1E
S3150800F730A05E0608B41B0020A01B002080B584B07C
S3150800F74000AF786039607B68002B04D140F6CB3176
S3150800F750224806F0C5FC3B68002B04D140F6CC31A4
S3150800F7601E4806F0BDFCFEF7E5FC1D4B1B68BB609A
S3150800F7703B681B68B3F1FF3F02D10023FB6026E01C
S3150800F7807B681A68174B1B689A4207D07B685A68C9
S3150800F790BB689A4202D80123FB6018E07B685B6865
S3150800F7A0BA68D21A3B681B689A420ED23B681A6836
S3150800F7B07B685968BB68CB1A1A443B681A60786834
S3150800F7C0FFF79EFF0023FB6001E00123FB60FEF7C5
S3150800F7D0DBFCFB6818461037BD4680BDA05E0608F0
S3150800F7E0A01B0020B41B002080B400AF034B0122ED
S3150800F7F01A6000BFBD465DF8047B7047B01B002049
S3150800F80080B582B000AF786000F052F8064B1B68EE
S3150800F810012BF9D9054B4FF080521A60BFF34F8F71
S3150800F820BFF36F8FF0E700BFC81A002004ED00E0B1
S3150800F83080B582B000AF00237B600CE07A6813467F
S3150800F8409B0013449B00124A13441846FEF7F0FA2D
S3150800F8507B6801337B607B68042BEFD90D48FEF784
S3150800F860E7FA0D48FEF7E4FA0C48FEF7E1FA0C4809
S3150800F870FEF7DEFA0B48FEF7DBFA0B4B054A1A6071
S3150800F8800A4B054A1A6000BF0837BD4680BD00BF4F
S3150800F890C81A00202C1B0020401B00205C1B0020DF
S3150800F8A0701B0020881B0020541B0020581B0020BA
S3150800F8B080B582B000AF28E0FFF7C0FC174B1B6885
S3150800F8C0002B0CBF01230023DBB27B60FFF7C4FCCF
S3150800F8D07B68002B19D1FEF72DFC104BDB68DB6823
S3150800F8E03B603B6804331846FEF72EFB0C4B1B683F
S3150800F8F0013B0B4A13600B4B1B68013B094A13601B
S3150800F900FEF742FC386800F00FF8064B1B68002B20
S3150800F910D2D100BF0837BD4680BD00BF701B00208E
S3150800F9209C1B0020841B002080B582B000AF786045
S3150800F9307B681B6B1846FEF769FA7868FEF766FA65
S3150800F94000BF0837BD4680BD80B483B000AF0F4BFB
S3150800F9501B681B68002B01D1012300E00023002B44
S3150800F96004D00B4B4FF0FF321A6008E0074B1B68B8
S3150800F970DB68DB687B607B685B68054A136000BFF1
S3150800F9800C37BD465DF8047B704700BF541B00204A
S3150800F990BC1B002080B483B000AF0B4B1B68002B48
S3150800F9A002D101237B6008E0084B1B68002B02D1BB
S3150800F9B002237B6001E000237B607B6818460C37D6
S3150800F9C0BD465DF8047B7047A81B0020C41B0020B9
S3150800F9D080B584B000AF78607B68FB607B68002BDD
S3150800F9E04AD0FB68DA6A264B1B68DB6A9A4243D21E
S3150800F9F0FB689B69002B06DB214B1B68DB6AC3F19E
S3150800FA000502FB689A61FB685969FB68DA6A13465E
S3150800FA109B0013449B001B4A1344994201D10123BE
S3150800FA2000E00023002B22D0FB6804331846FEF7BB
S3150800FA308BFA134B1B68DA6AFB68DA62FB68DA6AC8
S3150800FA40114B1B689A4203D9FB68DB6A0E4A13609E
S3150800FA50FB68DA6A13469B0013449B00094A1A445A
S3150800FA60FB68043319461046FEF710FA04E0044B07
S3150800FA701B68DA6AFB68DA6200BF1037BD4680BDCC
S3150800FA80C41A0020C81A0020A41B002080B584B020
S3150800FA9000AF78607B68BB600023FB607B68002B47
S3150800FAA04AD0284B1B68BA689A4204D040F6C76108
S3150800FAB0254806F015FBBB689B6D002B04D140F664
S3150800FAC0C961214806F00CFBBB689B6D5A1EBB68D2
S3150800FAD09A65BB68DA6ABB685B6D9A422CD0BB68CC
S3150800FAE09B6D002B28D1BB6804331846FEF72CFA09
S3150800FAF0BB685A6DBB68DA62BB68DB6AC3F105028C
S3150800FB00BB689A61BB68DA6A104B1B689A4203D9CC
S3150800FB10BB68DB6A0D4A1360BB68DA6A13469B004A
S3150800FB2013449B000A4A1A44BB6804331946104614
S3150800FB30FEF7ACF90123FB60FB6818461037BD4693
S3150800FB4080BD00BFC41A0020A05E0608A41B0020C2
S3150800FB50C81A002080B400AF074B1B68002B04D0DE
S3150800FB60054B1B689A6D01329A65034B1B6818464C
S3150800FB70BD465DF8047B7047C41A002080B584B082
S3150800FB8000AF78603960214B1B68FB60204B1B680F
S3150800FB9004331846FEF7D8F97B68B3F1FF3F0AD15C
S3150800FBA03B68002B07D01A4B1B68043319461948C3
S3150800FBB0FEF76CF926E0FA687B681344BB60144BC1
S3150800FBC01B68BA685A60BA68FB689A4209D2124B2F
S3150800FBD01A680F4B1B68043319461046FEF77AF964
S3150800FBE010E00E4B1A680A4B1B6804331946104678
S3150800FBF0FEF770F90A4B1B68BA689A4202D2084A9D
S3150800FC00BB68136000BF1037BD4680BDA01B00202F
S3150800FC10C41A0020881B0020581B0020541B0020F3
S3150800FC20BC1B002080B584B002AF00237B6000F0C7
S3150800FC307BFA0E4B1B68002B0AD00D4B019303234E
S3150800FC400093002380220B490B48FFF7D7F878600A
S3150800FC507B68002B04D140F23311084806F040FABD
S3150800FC607B6818460837BD4680BD00BFF81B0020D4
S3150800FC70FC1B0020C05E06088DFD0008C85E06084D
S3150800FC8080B588B000AFF860B9607A603B60002341
S3150800FC90FB61FB68002B04D14FF4D3711B4806F0B7
S3150800FCA01FFA1B4B1B68002B2AD0BB683B617B687D
S3150800FCB07B61FB68BB61BB68052B18DCFFF76AFE36
S3150800FCC00346022B09D1124B186807F110010023CD
S3150800FCD0BA6AFEF7F5FBF86112E00D4B186807F1F2
S3150800FCE0100100230022FEF7EBFBF86108E0084B41
S3150800FCF0186807F1100100233A68FEF7C9FCF86195
S3150800FD00FB6918462037BD4680BD00BFC85E060899
S3150800FD10F81B002080B586B002AF78603960194BB1
S3150800FD201B68DB68DB68FB60FB6804331846FEF774
S3150800FD300BF9FB68DB69012B1CD1FB689A697B68A8
S3150800FD40D1187B683A68F86800F0C4F80346002BB7
S3150800FD5010D00023009300237A680021F868FFF783
S3150800FD608FFFB860BB68002B04D14FF402710648B8
S3150800FD7006F0B6F9FB685B6AF868984700BF103763
S3150800FD80BD4680BDF01B0020C85E060880B584B05D
S3150800FD9000AF786007F10803184600F057F8F860D6
S3150800FDA0BB681946F86800F003F800F0D5F8F1E7E3
S3150800FDB080B584B000AF78603960FFF73FFA07F185
S3150800FDC00803184600F066F8F860BB68002B30D1C7
S3150800FDD03B68002B0AD17A68FB689A4206D8FFF777
S3150800FDE03BFAF9687868FFF795FF24E03B68002B33
S3150800FDF008D0134B1B681B68002B0CBF012300237C
S3150800FE00DBB23B600F4B18687A68FB68D31A3A680E
S3150800FE101946FEF7BFFFFFF71FFA0346002B0AD164
S3150800FE20094B4FF080521A60BFF34F8FBFF36F8FA5
S3150800FE3001E0FFF711FA00BF1037BD4680BD00BFCD
S3150800FE40F41B0020F81B002004ED00E080B485B008
S3150800FE5000AF78600E4B1B681B68002B0CBF012394
S3150800FE600023DBB21A467B681A607B681B68002B86
S3150800FE7005D1074B1B68DB681B68FB6001E00023A4
S3150800FE80FB60FB6818461437BD465DF8047B70476F
S3150800FE90F01B002080B584B000AF7860FFF776FAD3
S3150800FEA0F8600B4B1B68FA689A4205D200F0DEF838
S3150800FEB07B6801221A6002E07B6800221A60044A05
S3150800FEC0FB681360FB6818461037BD4680BD00BF47
S3150800FED0001C002080B586B000AFF860B9607A6073
S3150800FEE03B6000237B61FB68BA685A60FB68FA6866
S3150800FEF01A61BA687B689A4212D87A683B68D21A3D
S3150800FF00FB689B699A4202D301237B611BE0104B75
S3150800FF101A68FB68043319461046FDF7DBFF12E042
S3150800FF207A683B689A4206D2BA683B689A4202D314
S3150800FF3001237B6107E0074B1A68FB6804331946FF
S3150800FF401046FDF7C7FF7B6918461837BD4680BDC2
S3150800FF50F41B0020F01B002080B58AB002AF71E0C8
S3150800FF60BB68002B6EDB3B69FB61FB695B69002B99
S3150800FF7004D0FB6904331846FDF7E6FF3B1D184617
S3150800FF80FFF788FFB861BB68092B5AD801A252F857
S3150800FF9023F000BFBDFF0008BDFF0008BDFF000835
S3150800FFA0450001080F0001083B000108BDFF0008D5
S3150800FFB0BDFF0008450001080F000108FA68FB6943
S3150800FFC09B69D118FB68BA69F869FFF783FF03468E
S3150800FFD0002B37D0FB695B6AF8699847FB69DB69D0
S3150800FFE0012B2FD1FA68FB699B691A4400230093F9
S3150800FFF000230021F869FFF743FE78617B69002B2F
S3150801000020D140F22131174806F06AF81AE0FA6859
S31508010010FB699A61FB699B69002B04D14FF44E7108
S31508010020104806F05DF8FB699A69BB69D118BB6986
S31508010030BA69F869FFF74EFF04E0F869FDF7E6FECD
S3150801004000E000BF084B186807F1080100230022E9
S31508010050FEF71EFC0346002B82D100BF2037BD46A2
S3150801006080BD00BFC85E0608F81B002080B588B0B1
S3150801007002AF3FE0294B1B68DB681B687B61274B96
S315080100801B68DB68DB683B613B6904331846FDF78F
S315080100905BFF3B695B6A386998473B69DB69012BFA
S315080100A028D13B699A697B691344FB60FA687B69C5
S315080100B09A420ED93B69FA685A603B693A691A61EC
S315080100C0164B1A683B69043319461046FDF702FFB9
S315080100D010E00023009300237A6900213869FFF7AD
S315080100E0CFFDB860BB68002B04D140F292310C48B1
S315080100F005F0F6FF094B1B681B68002BBAD1074BA5
S315080101001B687B60074B1B68044A1360054A7B68BA
S31508010110136000BF1837BD4680BD00BFF01B002025
S31508010120C85E0608F41B002080B500AFFEF702F88A
S31508010130124B1B68002B1DD11148FDF779FE11489A
S31508010140FDF776FE104B0E4A1A60104B0D4A1A60DF
S3150801015000220C210A20FEF72BF90246074B1A60EA
S31508010160064B1B68002B05D0044B1B68084918462B
S31508010170FEF7BEFDFEF708F800BF80BDF81B00209C
S31508010180C81B0020DC1B0020F01B0020F41B0020EC
S31508010190E45E060880B483B000AF7860044A7B68E1
S315080101A01A607B6818460C37BD465DF8047B7047B4
S315080101B03C5F060880B582B000AF7860094A7B6863
S315080101C01A607B685B681846FEF768FC0023002BFB
S315080101D003D00821786819F0FFFD7B6818460837AF
S315080101E0BD4680BD3C5F060880B582B000AF786029
S315080101F07B681846FFF7CEFF0E4A7B681A60012016
S31508010200FEF746F902467B685A607B685B68002BF5
S3150801021003D15E21084805F063FF7B6805E07B682A
S315080102201846FFF7C7FF19F02FFE18460837BD46CF
S3150801023080BD00BF245F0608EC5E060880B584B061
S3150801024000AF786039607B6858683A6800230021F6
S31508010250FEF71EFB0346FB60FB68012B0CBF01235F
S315080102600023DBB218461037BD4680BD80B584B081
S3150801027000AF78607B685868002300220021FEF7EA
S315080102801FF90346FB60FB68012B0CBF0123002302
S31508010290DBB218461037BD4680BD00BF80B582B0B7
S315080102A000AF786039607B683A681A607B681B68BA
S315080102B01B681B687A6812684FF0FF311046984729
S315080102C07B6818460837BD4680BD00BF80B582B039
S315080102D000AF78607B681B681B6804331B687A6803
S315080102E01268104698477B6818460837BD4680BD90
S315080102F080B582B000AF7860094A7B681A607B686E
S315080103001846FFF757FF0023002B03D0082178680A
S3150801031019F062FD7B6818460837BD4680BD00BFE7
S31508010320245F060880B582B000AF78607868FFF769
S31508010330DFFF0821786819F04FFD7B6818460837F2
S31508010340BD4680BD80B584B000AFF860B9607A60FB
S315080103500C4AFB681A60BB68796800221846FEF7E2
S3150801036027F80246FB685A60FB685B68002B03D1D5
S315080103705321054805F0B4FEFB6818461037BD46FB
S3150801038080BD00BFD05F0608985F060880B582B0B9
S3150801039000AF7860094A7B681A607B685B68184613
S315080103A0FEF77CFB0023002B03D00821786819F09F
S315080103B013FD7B6818460837BD4680BDD05F060821
S315080103C080B582B000AF78607868FFF7DFFF082153
S315080103D0786819F001FD7B6818460837BD4680BD67
S315080103E080B584B000AF786039607B685868396831
S315080103F000234FF0FF32FEF763F80346FB60FB6804
S31508010400012B0CBF01230023DBB218461037BD466A
S3150801041080BD00BF80B586B000AFF860B9607A606C
S31508010420FB685868B9687A680023FEF749F80346F5
S315080104307B617B69012B0CBF01230023DBB21846C4
S315080104401837BD4680BD00BF80B586B000AFF860DD
S31508010450B9607A60FB685868B9687A680023FEF75C
S3150801046017FA03467B617B69012B0CBF0123002325
S31508010470DBB218461837BD4680BD00BF80B586B0C9
S3150801048000AFF860B9607A60FB685868B9687A683D
S315080104900023FEF7FDF803467B617B69012B0CBF40
S315080104A001230023DBB218461837BD4680BD00BFBD
S315080104B080B584B000AF786039607B6858683A685F
S315080104C000230021FEF7E4F90346FB60FB68012BD4
S315080104D00CBF01230023DBB218461037BD4680BD89
S315080104E080B584B000AF78607B6858680023002225
S315080104F00021FDF7E5FF0346FB60FB68012B0CBFF6
S3150801050001230023DBB218461037BD4680BD00BF64
S3150801051080B584B000AF786039607B685B683A68FB
S3150801052011461846FEF73AF90346FB60FB68012BAC
S315080105300CBF01230023DBB218461037BD4680BD28
S3150801054080B483B000AF7860044A7B681A607B6820
S3150801055018460C37BD465DF8047B7047506006089F
S3150801056080B582B000AF7860094A7B681A607B68FB
S315080105705B681846FEF792FA0023002B03D0082180
S31508010580786819F029FC7B6818460837BD4680BD8E
S315080105905060060880B582B000AF78607868FFF7CA
S315080105A0DFFF0821786819F017FC7B6818460837B9
S315080105B0BD4680BD80B582B000AF78600B46FB7042
S315080105C07B681846FFF7BCFF144A7B681A6003224A
S315080105D000210120FDF7ECFE02467B685A607B6824
S315080105E05B68002B03D186210D4805F079FDFB7860
S315080105F0002B06D07B685868002300220021FDF7EE
S315080106005FFF7B6805E07B681846FFF7A9FF19F0CD
S315080106103BFC18460837BD4680BD00BF406006084A
S315080106200460060880B582B000AF7860094A7B6825
S315080106301A607B681846FFF793FF0023002B03D047
S315080106400821786819F0C8FB7B6818460837BD4643
S3150801065080BD00BF4060060880B582B000AF7860F3
S315080106607868FFF7DFFF0821786819F0B5FB7B6822
S3150801067018460837BD4680BD80B487B000AFF8601C
S31508010680B9603B601346FB801A4AFB681A60FB682F
S31508010690FA881A85FB683A68DA62FB68002283F8E9
S315080106A0302000237B617B691E2B13DCBB6819781C
S315080106B0FA687B69134408330A461A70BB681B78C3
S315080106C0002B06D0BB680133BB607B6901337B61B4
S315080106D0E9E700BFFB68002283F82720FB680022B0
S315080106E083F83120FB6818461C37BD465DF8047B44
S315080106F0704700BFB4600608B0B586B002AF78602F
S31508010700244B1B78DBB2002B1AD007F108032249C8
S315080107101846FFF7C3FD7B6893F83030002B02D0EB
S315080107200024002504E07B68012283F83020012596
S3150801073007F108031846FFF7C9FD012D0CD024E07F
S315080107407B6893F83030002B01D000241DE07B68CC
S31508010750012283F8302000E000BF7B6803F108011D
S315080107607B68188D7B68DB6A7A680432019200938C
S315080107707B6802460948FEF741FB0346FB60FB68B6
S31508010780012B0CBF01230023DCB223461846103780
S31508010790BD46B0BD041C0020081C0020F107010855
S315080107A080B483B000AF786000BF0C37BD465DF8F2
S315080107B0047B704780B582B000AF78600B4A7B68CE
S315080107C01A607B685B681846FEF752FC7B684FF037
S315080107D0FF325A600023002B03D03821786819F0BC
S315080107E0FBFA7B6818460837BD4680BDB460060823
S315080107F080B584B000AF78607B68FB60FB681B68D6
S3150801080008331B68F8689847FB681B680C331B6834
S31508010810F8689847FB685B681846FEF729FC00BF2D
S315080108201037BD4680BD00BF80B582B000AF786085
S3150801083039607B68012B07D13B684FF6FF729342FB
S3150801084002D10948FFF7D0FC7B68002B07D13B682A
S315080108504FF6FF72934202D10348FFF749FD00BFE5
S315080108600837BD4680BD00BF081C002080B500AF13
S315080108704FF6FF710120FFF7D7FF80BD80B500AFA6
S315080108804FF6FF710020FFF7CFFF80BD80B485B01A
S3150801089000AFF8603B1D83E80600FB681A463B1D5E
S315080108A093E8030082E80300FB6818461437BD463F
S315080108B05DF8047B704700BF80B485B000AFF8606F
S315080108C03B1D83E80600FB681A463B1D93E80300B7
S315080108D082E8030000BF1437BD465DF8047B704704
S315080108E080B582B000AF78607B681A687B689B88A0
S315080108F01946104616F014FF00BF0837BD4680BDDD
S3150801090080B582B000AF78607B681A687B689B887F
S315080109101946104616F006FF00BF0837BD4680BDCA
S3150801092080B582B000AF78607B681A687B689B885F
S315080109301946104616F0F9FE034618460837BD460D
S3150801094080BD00BF80B584B000AF78600B46FB70F0
S315080109501346BB70FB78032B16D801A252F823F075
S3150801096071090108770901087D0901088309010848
S315080109700023FB7308E00123FB7305E00223FB73E5
S3150801098002E00323FB7300BFBB78012B06D0022BC1
S3150801099007D0002B08D10023BB7305E00123BB73E5
S315080109A002E00223BB7300BF7B6818687B689B88DB
S315080109B0BA7BF97B16F0BCFE00BF1037BD4680BD79
S315080109C080B584B000AF78600B46FB701346BB70E8
S315080109D0FB78002B02D0012B03D005E00023FB7323
S315080109E002E00123FB7300BFBB78032B16D801A2D3
S315080109F052F823F0050A01080B0A0108110A010831
S31508010A00170A01080023BB7308E00123BB7305E03D
S31508010A100223BB7302E00323BB7300BF7B6818681C
S31508010A207B689B88BA7BF97B16F0A4FE00BF10375A
S31508010A30BD4680BD80B584B000AF78600B46FB70BB
S31508010A40FB780F2B52D801A252F823F08D0A010820
S31508010A50930A0108990A01089F0A0108A50A0108CB
S31508010A60AB0A0108B10A0108B70A0108BD0A01085B
S31508010A70C30A0108C90A0108CF0A0108D50A0108EB
S31508010A80DB0A0108E10A0108E70A01080023FB73EA
S31508010A902CE00123FB7329E00223FB7326E00323E1
S31508010AA0FB7323E00423FB7320E00523FB731DE09E
S31508010AB00623FB731AE00723FB7317E00823FB736E
S31508010AC014E00923FB7311E00A23FB730EE00B23E1
S31508010AD0FB730BE00C23FB7308E00D23FB7305E0A6
S31508010AE00E23FB7302E00F23FB7300BF7B681868B4
S31508010AF07B689A88FB7B194616F057FE00BF1037AC
S31508010B00BD4680BD80B483B000AF78607B681B6842
S31508010B101A467B681B681B6843F0010313600023B0
S31508010B2018460C37BD465DF8047B704780B483B020
S31508010B3000AF78607B681B6824331B689BB2184634
S31508010B400C37BD465DF8047B704700BF80B483B09F
S31508010B5000AF786039607B681B6828331A463B68A2
S31508010B60136000BF0C37BD465DF8047B704700BFB4
S31508010B7080B483B000AF786039607B681B682C331A
S31508010B801A463B68136000BF0C37BD465DF8047B07
S31508010B90704700BF80B400AF034B01221A7000BF33
S31508010BA0BD465DF8047B7047101C002080B400AF79
S31508010BB0034B00221A7000BFBD465DF8047B7047DF
S31508010BC0101C002080B400AF034B1B781846BD46A5
S31508010BD05DF8047B704700BF101C002080B485B007
S31508010BE000AF78600023FB60DEE0774B9A68FB680C
S31508010BF09B0013441B681B695B69B3F1FF3F0FD068
S31508010C007B685A69704B9968FB689B000B441B68A3
S31508010C101B695B699A4203D0FB680133FB60C3E039
S31508010C20694B9A68FB689B0013441B681B699B699F
S31508010C30B3F1FF3F0FD07B689A69634B9968FB68EC
S31508010C409B000B441B681B699B699A4203D0FB688E
S31508010C500133FB60A8E05C4B9A68FB689B00134470
S31508010C601B681B69DB69B3F1FF3F0FD07B68DA6943
S31508010C70554B9968FB689B000B441B681B69DB692C
S31508010C809A4203D0FB680133FB608DE04E4B9A68AC
S31508010C90FB689B0013441B681B691B68B3F1FF3F84
S31508010CA00FD07B681A68484B9968FB689B000B4410
S31508010CB01B681B691B689A4203D0FB680133FB60FA
S31508010CC072E0414B9A68FB689B0013441B681B69D9
S31508010CD05B68B3F1FF3F0FD07B685A683A4B996856
S31508010CE0FB689B000B441B681B695B689A4203D02F
S31508010CF0FB680133FB6057E0334B9A68FB689B003E
S31508010D0013441B681B699B68B3F1FF3F0FD07B68CF
S31508010D109A682D4B9968FB689B000B441B681B69F5
S31508010D209B689A4203D0FB680133FB603CE0264B83
S31508010D309A68FB689B0013441B681B69DB68B3F15F
S31508010D40FF3F0FD07B68DA681F4B9968FB689B00E9
S31508010D500B441B681B69DB689A4203D0FB680133A5
S31508010D60FB6021E0184B9A68FB689B0013441B68DB
S31508010D701B691B69B3F1FF3F0FD07B681A69124BD8
S31508010D809968FB689B000B441B681B691B699A429F
S31508010D9003D0FB680133FB6006E00B4B9A68FB68DE
S31508010DA09B0013441B6809E0074B9A68FB689B0084
S31508010DB013441B68002B7FF418AF00231846143719
S31508010DC0BD465DF8047B7047101C002080B594B0C1
S31508010DD000AFF8600B467A607B810023FB647B6871
S31508010DE000229A60FB68BB647B6800229A607B6874
S31508010DF00022DA60BA6CFB6C13441B7887F847301B
S31508010E00FB6C0133BA6C13441B7887F8463097F8A4
S31508010E104630012B40F08280BA6CFB6C13443B646C
S31508010E203B6C1B797B613B6C5B79BB613B6C9B794A
S31508010E30FB613B6C1B899BB23B623B6C5B899BB23A
S31508010E407B623DE0BA6CFB6C13441B7887F847302C
S31508010E50FB6C0133BA6C13441B7887F8463097F854
S31508010E604630042B00D022E0BA6CFB6C1344FB63BA
S31508010E70FB6B5B79BB62FB6B9B79FB62FB6BDB797B
S31508010E803B6307F114031846FFF7A8FEB863BB6B6B
S31508010E90002B0BD07B68BA6B9A607B689B681B68D2
S31508010EA07868984702467B68DA6000E000BF97F8E1
S31508010EB04730002B34D097F84730FA6C1344FB645B
S31508010EC07A89FB6C9A42BDD87B689B68002B2AD02D
S31508010ED07B68DB68002B26D00023FB6419E0BA6C1B
S31508010EE0FB6C13441B7887F847307B68DB687B63A8
S31508010EF07B689B685B68B96CFA6C0A441146786B27
S31508010F0098470346002B0DD197F84730FA6C1344DE
S31508010F10FB647A89FB6C9A42E1D804E000BF02E0DF
S31508010F2000BF00E000BF5037BD4680BD80B586B022
S31508010F3000AF786039607B68002B53D02B4A7B68F9
S31508010F4053602A4A3B68936000237B6141E0274B43
S31508010F505A687B699B0013441B685B69FB60002325
S31508010F603B6120E03A6913469B0013449B001A46ED
S31508010F70FB681344FF229A703A6913469B0013448F
S31508010F809B001A46FB68134400229A603A69134685
S31508010F909B0013449B001A46FB6813440022DA603F
S31508010FA03B6901333B613B690E2BDBD90F4B5A6811
S31508010FB07B699B0013441B681B680C4A51687A6954
S31508010FC092000A4412685269104698477B690133B0
S31508010FD07B61064B5A687B699B0013441B68002B8F
S31508010FE0B5D100E000BF1837BD4680BD101C0020F2
S31508010FF080B58CB000AFF8607A603B600B467B81A8
S31508011000FB687B617B893B833B6893F90230BB763E
S3150801101000237B773B681B88FB830023FB76002331
S315080110203B773B68DB7887F820307B68BB623B6897
S31508011030FB623B6805337B6207F11403194638687E
S3150801104000F072FB00BF3037BD4680BD80B58CB05D
S3150801105000AFF8607A603B600B467B81FB687B6179
S315080110607B893B833B6893F90230BB7600237B7708
S315080110703B681B88FB830023FB7601233B773B6890
S31508011080DB7887F820307B68BB623B68FB623B688C
S3150801109005337B6207F114031946386800F044FBEF
S315080110A000BF3037BD4680BD80B58CB000AFF86053
S315080110B07A603B600B467B81FB687B617B893B835E
S315080110C03B6893F90230BB7600237B773B681B8824
S315080110D0FB830023FB763B68DB7887F820307B6847
S315080110E0BB623B68FB623B6805337B6207F114030D
S315080110F01946386800F004FB00BF3037BD4680BD8D
S3150801110080B500AFFFF75EFD0346002B14BF012330
S315080111100023DBB283F00103DBB203F00103DBB288
S31508011120184680BD80B487B000AF78607B681B69BC
S315080111303B613B695B69FB60FB68BB600023FB7530
S3150801114024E0FA7D13469B0013449B001A46BB68AC
S31508011150134493F90230002B15DAFA7D13469B00E6
S3150801116013449B001A46BB681344FA7D0132D2B276
S3150801117052B29A70FA7D13469B0013449B001A4695
S31508011180BB68134406E0FB7D0133FB75FB7D0E2B23
S31508011190D7D9002318461C37BD465DF8047B70472E
S315080111A080B582B000AF7860FFF700FD7B6800224A
S315080111B01A717B68FF229A7000BF0837BD4680BD49
S315080111C080B594B000AFF8603B1D83E80600FB6864
S315080111D01B69FB64FB6C5B69BB64BB6C03F59673AB
S315080111E07B64FB681B7987F84330FB681B79013BF5
S315080111F0072B00F2928101A252F823F01D12010871
S3150801120055120108BD12010819130108B513010881
S31508011210F313010889140108CB1401083B79002B43
S3150801122006D0002BC0F27B81032B00F378810CE0FA
S31508011230FB681B790133DAB2FB681A71FB68A74AA6
S3150801124000210020FFF730FF03E0F868FFF7A8FF49
S3150801125000BF64E13B79002B06D0002BC0F2618107
S31508011260032B00F35E8124E0FB6893F90230002B1F
S3150801127004D19B4B93F90C20FB689A70802387F85D
S315080112802030062387F821304FF480737B840023AE
S31508011290BB841223FB84FB681B790133DAB2FB6832
S315080112A01A7107F12000FB688C4A0821FFF7A0FE96
S315080112B003E0F868FFF774FF00BF32E13B79032BBF
S315080112C000F2318101A252F823F000BFDD120108B4
S315080112D00F130108F71201080F130108FB681B79A0
S315080112E00133DAB2FB681A71FB687C4A1221786C01
S315080112F0FFF7DAFE0FE0FB6802221A7100233B7141
S315080113003B1D93E80600F868FFF75AFF03E0F86803
S31508011310FFF746FF00BF06E13B79032B00F2058183
S3150801132001A252F823F000BF391301087D13010801
S31508011330A9130108A91301087B6CFB63FB6BDB7915
S315080113409AB2FB681A8080233B7606237B764FF494
S3150801135000737B830023BB83FB6BDB799BB2FB8327
S31508011360FB681B790133DAB2FB681A7107F11800B9
S31508011370FB685A4A0821FFF73BFE1AE0BB68072BB0
S3150801138016D97B6CBB63BB6BDB799AB2FB681A8097
S31508011390FB6802221A7100233B713B1D93E8060084
S315080113A0F868FFF70DFF03E0F868FFF7F9FE00E0BC
S315080113B000BFBAE03B79002B06D0002BC0F2B780FC
S315080113C0032B00F3B4800FE0FB681B790133DAB213
S315080113D0FB681A717B6C03F11200FB681988FB68BC
S315080113E03E4AFFF761FE03E0F868FFF7D9FE00BF42
S315080113F09DE03B79032B00F29C8001A252F823F071
S31508011400111401084D1401087D1401087D14010801
S315080114107B6C12337B6380233B7406237B744FF406
S3150801142000737B820023BB827B6B5B889BB2FB824A
S31508011430FB681B790133DAB2FB681A7107F11000F0
S31508011440FB68264A0821FFF7D3FD1CE0BB68082B79
S3150801145018D97B6C12333B63BB683A6B528892B2DC
S3150801146093420FD8FB6808221A7100233B713B1D72
S3150801147093E80600F868FFF7A3FE03E0F868FFF7AC
S315080114808FFE00E000BF54E03B79002B04D0002B0F
S3150801149051DB032B4FDC13E07B6C1233FB62FB68D9
S315080114A01B790133DAB2FB681A717B6C03F11200FE
S315080114B0FB6A5B8899B2FB68084AFFF7F5FD03E00A
S315080114C0F868FFF76DFE00BF35E03B79002B09D0C0
S315080114D0002B32DB032B30DC1AE000BFC1110108F7
S315080114E0101C00207B6C1233BB62BB6A5B889BB203
S315080114F012339BB2FA681946786CFFF767FCFB68EA
S315080115001B790133DAB2FB681A71FFF74FFB03E067
S31508011510F868FFF745FE00BF0FE000BF0EE000BF09
S315080115200CE000BF0AE000BF08E000BF06E000BF0C
S3150801153004E000BF02E000BF00E000BF00BF503773
S31508011540BD4680BD80B586B000AF7860FFF722FB47
S315080115507B6801221A717B6893F90230FB757B68F7
S3150801156000229A707B68DB78012B03D17B680822FD
S315080115701A8002E07B6840221A8097F917200C4BE3
S315080115801A7300233B7305237B73FB7D9BB2FB8197
S3150801159000233B8200237B8207F10C007B68054A06
S315080115A00821FFF725FD00BF1837BD4680BD00BFDE
S315080115B0101C0020C111010880B588B000AF786001
S315080115C00023FB618DE04D4B5A68FB699B00134470
S315080115D01B685B697B61494B5A68FB699B0013442D
S315080115E01B685B693B61454B5A68FB699B00134461
S315080115F01B68DB687968386998470346FB73FB7B88
S31508011600012B02D0022B1CD058E03C4B5A68FB69CF
S315080116109B0013441A687B691A61384B5A68FB693F
S315080116209B0013441B681B693869984703461A4689
S315080116307B69DA707B6901229A707869FFF782FF04
S315080116403CE07B699B68002B0AD07B69DB68002B31
S3150801165006D07B699B68DB687A69D2681046984729
S315080116607B6900229A607B690022DA600123BB61EB
S3150801167020E0BA6913469B0013449B001A467B690E
S315080116801344FF229A70BA6913469B0013449B00C0
S315080116901A467B69134400229A60BA6913469B006D
S315080116A013449B001A467B6913440022DA60BB691E
S315080116B00133BB61BB690E2BDBD900BF3B699B6854
S315080116C0002B0BD07B69DB68002B07D07B699B68F5
S315080116D09B687A69D268796810469847FB6901332D
S315080116E0FB61064B5A68FB699B0013441B68002B78
S315080116F07FF469AF00BF2037BD4680BD101C0020AE
S3150801170080B584B000AF786039607B681B69FB607F
S31508011710FB689B68FA68526939681046984700BFA2
S315080117201037BD4680BD00BF80B584B000AF786074
S3150801173039607B681B69FB60FB685B68FA685269FC
S3150801174039681046984700BF1037BD4680BD00BFAF
S3150801175080B485B000AF78600F4B01221A700F4A2A
S315080117607B6813600023FB600CE00D49FA68134699
S315080117701B019B1A9B000B44273300221A70FB6836
S315080117800133FB60FB68012BEFD900BF1437BD4657
S315080117905DF8047B704700BF9C1C0020981C002044
S315080117A0201C002080B485B000AF7860234B1B78DD
S315080117B083F00103DBB2002B01D0002337E00023BD
S315080117C0BB600023FB602EE01D49FA6813461B0126
S315080117D09B1A9B000B4427331B78002B20D1FA68F0
S315080117E013461B019B1A9B00154A1344BB60FB68F1
S315080117F0DAB2BB6883F82920BB68002283F8262061
S31508011800BB68002283F82820BB687A681A60BB681F
S31508011810002283F82E20BB68002283F83A2005E0CF
S31508011820FB680133FB60FB68012BCDD9BB68184601
S315080118301437BD465DF8047B704700BF9C1C002029
S31508011840201C002080B485B000AFF860B9607A60CA
S31508011850FB68012283F82E20FB68012283F83920D0
S3150801186000BF1437BD465DF8047B704780B48BB062
S3150801187000AF786039607B687B623B685B7887F884
S31508011880233097F82330013B042B65D801A252F87F
S3150801189023F000BFB9180108A91801085919010848
S315080118A0BF180108FB1801083B687B617B695A79F7
S315080118B07B6A83F82A2054E03B683B6151E03B6828
S315080118C0FB60FB68DB79012B09D17B6A022283F86D
S315080118D03A20FB689A787B6A83F83B203EE0FB68EE
S315080118E0DB79022B3AD17B6A012283F83A20FB681D
S315080118F09A787B6A83F83B2030E03B68FB61FB6999
S31508011900DB7803F00303032B2AD1FB699B78FB766B
S3150801191097F91B30002B14DAFB7E03F07F03DAB24A
S315080119207B6A83F82620FB699B889BB21F2B05D807
S31508011930FB699B889AB27B6A9A8402E07B6A2022B9
S315080119409A847B6A93F82630002B09D07B6A042295
S3150801195083F82720012305E000BF02E000BF00E06D
S3150801196000BF002318462C37BD465DF8047B704737
S3150801197080B586B000AFF8603B1D83E80600FB68BA
S31508011980DB687B617B6993F82E30032B1DD0042B12
S315080119902FD0022B00D03FE03B79002B04D0002B3F
S315080119A035DB032B33DC0FE07B69032283F82E201A
S315080119B07B6903F12F007B6993F8393099B2FB688B
S315080119C0174AFFF743FB00BF21E03B79002B04D000
S315080119D0002B1EDB032B1CDC0AE07B69042283F83F
S315080119E02E20FB680E4A00210020FFF75DFB00BF91
S315080119F00FE03B79002B04D0002B0CDB032B0ADC10
S31508011A0004E07B69012283F82E2000BF03E000BFB2
S31508011A1002E000BF00E000BF00BF1837BD4680BD29
S31508011A207119010880B58CB000AFF8603B1D83E8D9
S31508011A300600FB68DB68BB62BB6A93F82730023B8A
S31508011A40082B00F2288101A252F823F0711A010825
S31508011A50971C0108971C0108C51A0108FB1A0108F9
S31508011A60511B0108891B0108251C01085B1C01087B
S31508011A703B79032B00F2118101A252F823F000BF32
S31508011A80911A0108911A0108B91A0108B91A010827
S31508011A908A4B1B681B68002B09D0884B1B681B687F
S31508011AA0BA6A92F82900BA6A111DBA689847BB6AD8
S31508011AB0012283F8272004E0BB6A002283F8272045
S31508011AC000BFEAE03B79002B06D0002BC0F2E78085
S31508011AD0032B00F3E4800AE0BB6A062283F8272079
S31508011AE0FB68774A00210020FFF7DEFA04E0BB6AAB
S31508011AF0002283F8272000BFD1E03B79002B06D0CE
S31508011B00002BC0F2CE80032B00F3CB801AE0BB6A10
S31508011B10002283F8282081233B7706237B774FF41D
S31508011B200453FB8300233B8420237B84BB6A07225F
S31508011B3083F8272007F11C00FB68614A0821FFF793
S31508011B4057FA04E0BB6A002283F8272000BFA8E001
S31508011B503B79002B06D0002BC0F2A580032B00F39E
S31508011B60A2800BE0BB6A082283F82720BB6A181DEE
S31508011B70FB68534A2021FFF797FA04E0BB6A002263
S31508011B8083F8272000BF8EE03B79032B00F28D8076
S31508011B9001A252F823F000BFA91B0108A91B0108DD
S31508011BA0191C0108191C0108BB6A012283F82720A0
S31508011BB0BB6A002283F82820BB6A04337B62BB68B0
S31508011BC0082B04D8BB6A002283F827206DE07B6ABC
S31508011BD0DA791B7A1B021343FB85FB8D202B01D96E
S31508011BE02023FB8581233B7506237B754FF4085318
S31508011BF0FB8200233B83FB8D7B83BB6AFA8D9A8527
S31508011C00BB6A092283F8272007F11400FB682C4ACE
S31508011C100821FFF7EDF904E0BB6A002283F82720C3
S31508011C2000BF42E03B79002B04D0002B3FDB032B9E
S31508011C303DDC0CE0BB6A0A2283F82720BB6A181D23
S31508011C40BB6A998DFB681E4AFFF72EFA04E0BB6A48
S31508011C50002283F8272000BF29E03B79002B04D016
S31508011C60002B26DB032B24DC0FE0BB6A012283F859
S31508011C702720BB6A002283F82820BB6A0433BA6886
S31508011C801946B86AFFF7DEFD04E0BB6A002283F84D
S31508011C90272000BF0DE000BF0CE000BF0AE000BF2F
S31508011CA008E000BF06E000BF04E000BF02E000BF95
S31508011CB000E000BF00BF3037BD4680BD981C00203C
S31508011CC0251A010880B58AB000AF78607B687B6207
S31508011CD07B6A1B6893F90230BB737B6A0433BB606A
S31508011CE07B6A9B8CBB817B6A93F826307B747B6A03
S31508011CF09B8C7B820323FB737B6A1B68DB783B75B2
S31508011D000B4BFB617B6A1B683B627B6A2833BB61B1
S31508011D107B6A022283F827207B6A1B6807F108027F
S31508011D2011461846FFF7ECFC00BF2837BD4680BDB3
S31508011D30251A010880B586B000AF786039607B68DE
S31508011D407B617B691B683B617B6993F82730012BB3
S31508011D5002D0042B04D01CE07868FFF7B3FF18E023
S31508011D6000233B7209237B727B6993F82A309BB265
S31508011D707B810023BB810023FB817B69052283F8D4
S31508011D80272007F108003B69044A0821FFF730F9C3
S31508011D9000BF00BF1837BD4680BD00BF251A010820
S31508011DA080B485B000AF78607B68FB60FB68002271
S31508011DB083F82720FB68002283F8262000BF143702
S31508011DC0BD465DF8047B704780B586B000AF034613
S31508011DD00A46FB711346BB71FB79012B01D9002316
S31508011DE037E0FA7913461B019B1A9B001B4A1344D9
S31508011DF07B617B6993F82E30012B01D0002328E003
S31508011E007B6993F83930002B01D1002321E0212386
S31508011E103B7309237B734FF40073FB817B6993F84A
S31508011E203B309BB23B827B6993F839309BB27B820C
S31508011E307B69BA7983F82F207B69022283F82E20E1
S31508011E407B691B6807F10C00054A0821FFF7D0F8E2
S31508011E50012318461837BD4680BD00BF201C002047
S31508011E607119010880B483B000AF0346FB71FA7992
S31508011E70094913461B019B1A9B000B442E331B78F9
S31508011E80012B0CBF01230023DBB218460C37BD46D4
S31508011E905DF8047B704700BF201C002080B483B026
S31508011EA000AF164B01221A7000237B601CE0144A0E
S31508011EB07B68682101FB03F3134400221A60104A68
S31508011EC07B68682101FB03F31344363300221A8029
S31508011ED00B4A7B68682101FB03F313443933FF225C
S31508011EE01A707B6801337B607B68012BDFD900BFE1
S31508011EF00C37BD465DF8047B704700BF701D002096
S31508011F00A01C002080B485B000AF7860234B1B78F5
S31508011F1083F00103DBB2002B01D0002337E0002355
S31508011F20BB600023FB600BE01D4AFB68682101FBCF
S31508011F3003F313441B68002B06D0FB680133FB60CF
S31508011F40FB68012BF0D900E000BFFB68022B01D129
S31508011F5000231CE0FB68682202FB03F3104A1344C2
S31508011F60BB60BB68002283F83220BB680022DA8690
S31508011F70BB687A681A60BB68002283F85E20BB6872
S31508011F80002283F83020BB680022DA85BB68184630
S31508011F901437BD465DF8047B704700BF701D0020ED
S31508011FA0A01C002080B489B000AF786039607B68D6
S31508011FB0FB613B685B78FB76FB7E052B0CD0292BF6
S31508011FC026D0022B00D034E03B687B617B695A79C5
S31508011FD0FB6983F824202CE03B683B613B69DB788D
S31508011FE003F00303032B23D13B699B78FB7397F912
S31508011FF00F30002B1CDAFB7B03F07F03DAB2FB6997
S3150801200083F830203B699B889AB2FB69DA850FE031
S315080120103B68BB60BB689B78082B05D8BB689B7877
S315080120209AB2FB69DA8604E0FB690822DA8600E0DF
S3150801203000BFFB6993F83030002B05D0FB690122FC
S3150801204083F83220012300E0002318462437BD46D1
S315080120505DF8047B704700BF90B5A3B000AFF86088
S315080120603B1D83E80600FB68DB68BB67BB6F93F81B
S3150801207032300A2B00F0D5820A2B16DC062B00F02B
S315080120800082062B0ADC042B00F04A81042B00F39C
S315080120906681032B00F0F88000F0F3BC082B00F0F2
S315080120A06C82082B00F3898240E2202B00F02883FA
S315080120B0202B09DC1A2B12D01F2B00F0F7820B2BD1
S315080120C000F0CB8200F0DDBC232B00F03884FF2B17
S315080120D000F0B180212B00F09F8300F0D2BC3B7940
S315080120E0032B00F2AF8401A252F823F0FD20010868
S315080120F01F220108292201081F220108BB6F243368
S315080121007B670023C7F88030002387F8873015E0FE
S3150801211097F887307A6F13441B781A4697F88730F1
S31508012120DB0002FA03F31A46D7F880301344C7F8DE
S31508012130803097F88730013387F8873097F88720FA
S31508012140BB689A42E4D3002387F87F30D7F88030FA
S31508012150002B04D1BB6F192283F8322069E00023D2
S3150801216087F8873017E097F88730012202FA03F3D8
S315080121701A46D7F880301340002B07D097F88730D6
S3150801218087F87F300023C7F880300BE097F887304F
S31508012190013387F8873097F887309AB2BB6FDB8EA1
S315080121A09A42E0D9BB6F93F93930002B0DDDBB6F2D
S315080121B093F9393097F97F209A4206D0BB6F1922D5
S315080121C083F8322000BF00F03DBC97F97F30002B21
S315080121D003D0A32387F8583002E0A02387F85830A4
S315080121E0002387F859300023A7F85A3097F97F302A
S315080121F09BB2A7F85C300423A7F85E30BB6F1F2299
S3150801220083F83220BB6F97F87F2083F8392007F1CE
S315080122105800FB68A04A0821FEF7EAFE09E0BB6FF1
S31508012220002283F8322004E0BB6F192283F832209A
S3150801223000BF00F007BC3B79002B06D0002BC0F28B
S315080122400384032B00F3008410E0FB68924A002103
S315080122500020FEF729FFBB6F93F83320BB6F83F885
S315080122603220BB6F002283F833200CE0BB6F93F852
S315080122703320BB6F83F832203B1D93E80600F868CC
S31508012280FFF7EAFE00BFDFE33B79002B06D0002B00
S31508012290C0F2DC83032B00F3D98340E0BB6FDB8EEE
S315080122A0002B0ED0BB6F002283F83820BB6F0622A5
S315080122B083F832203B1D93E80600F868FFF7CCFE49
S315080122C02CE0BB6F002283F83120BB6F1B681B888B
S315080122D0DAB2BB6F83F83420A02387F8503006237F
S315080122E087F851304FF42453A7F852300023A7F842
S315080122F05430BB6F93F834309BB2A7F85630BB6F96
S3150801230093F832300133DAB2BB6F83F8322007F122
S315080123105000FB68604A0821FEF76AFE00BF95E394
S315080123203B79002B06D0002BC0F29283032B00F3D6
S315080123308F8313E0BB6F93F832300133DAB2BB6F88
S3150801234083F83220BB6F03F12400BB6F93F8343056
S3150801235099B2FB68504AFEF7A7FE00BF78E33B79BE
S31508012360032B00F2778301A252F823F07D2301089B
S315080123701D2401087724010877240108BB6F24333B
S315080123803B673B6F1A78BB6F93F834309A4224D96E
S315080123903B6F1A78BB6F83F83420A02387F848303F
S315080123A0062387F849304FF42453A7F84A30002307
S315080123B0A7F84C30BB6F93F834309BB2A7F84E3070
S315080123C0BB6F042283F8322007F14800FB68324AC2
S315080123D00821FEF70DFE00BF52E03B6F1A78BB6F6E
S315080123E093F834309A4248D13B6F9B789AB2BB6FC7
S315080123F0DA86BB6F93F832300133DAB2BB6F83F8F2
S315080124003220BB6F002283F8382000233B713B1D25
S3150801241093E80600F868FFF71FFE2EE0BB6F24332A
S31508012420FB66BB68062B2AD9BB68FA6E12789342FB
S3150801243025D1FB6E9B78082B05D8FB6E9B789AB243
S31508012440BB6FDA8602E0BB6F0822DA86BB6F93F8A8
S3150801245032300133DAB2BB6F83F83220BB6F002208
S3150801246083F8382000233B713B1D93E80600F86882
S31508012470FFF7F2FD03E000BFECE200BFEAE200BFAE
S31508012480E8E23B79002B09D0002BC0F2E582032B49
S3150801249000F3E28249E000BF59200108BB6F93F9B6
S315080124A038301A46BB6FDB8E9A422DDABB6F93F929
S315080124B03830DBB20133DBB25AB2BB6F83F838204E
S315080124C0232387F84030032387F841300823A7F8E8
S315080124D04230BB6F93F938309BB2A7F844300023DA
S315080124E0A7F84630BB6F93F83220BB6F83F83320C9
S315080124F0BB6FFF2283F8322007F14000FB68BF4A11
S315080125000821FEF775FD0FE0BB6F93F832300133F2
S31508012510DAB2BB6F83F8322000233B713B1D93E887
S315080125200600F868FFF798FD00BF95E23B79002B96
S3150801253006D0002BC0F29282032B00F38F821BE098
S31508012540A02387F83830002387F8393000237B87A2
S315080125500023BB870423FB87BB6F93F83230013313
S31508012560DAB2BB6F83F8322007F13800FB68A34A59
S315080125700821FEF73DFD00BF70E23B79002B06D02E
S31508012580002BC0F26D82032B00F36A8214E0BB6F45
S3150801259003F12400FB68994A0421FEF785FDBB6F08
S315080125A0002283F83820BB6F93F832300133DAB250
S315080125B0BB6F83F8322000BF52E23B79002B06D06D
S315080125C0002BC0F24F82032B00F34C8228E0A32391
S315080125D087F83030002387F8313000237B86BB6FBC
S315080125E093F93830DBB20133DBB25AB2BB6F83F8E9
S315080125F03820BB6F93F938309BB2BB860423FB8620
S31508012600BB6F93F832300133DAB2BB6F83F83220ED
S3150801261007F13000FB68794A0821FEF7E9FC00BF9B
S3150801262020E23B79002B06D0002BC0F21D82032B3A
S3150801263000F31A8210E0BB6F03F12400FB686F4AAE
S315080126400421FEF731FDBB6F93F832300133DAB25C
S31508012650BB6F83F8322000BF06E23B79002B06D018
S31508012660002BC0F20382032B00F300821DE0BB6F2F
S3150801267093F938301A46BB6FDB8E9A420CDABB6F78
S31508012680092283F8322000233B713B1D93E806009B
S31508012690F868FFF7E1FC07E0BB6F002283F85E20CC
S315080126A0BB6F192283F8322000BFDFE13B79002B8B
S315080126B006D0002BC0F2DC81032B00F3D98119E087
S315080126C0BB6F93F8393087F86B30BB6F93F83230AC
S315080126D00133DAB2BB6F83F8322097F96B300E33C8
S315080126E09B00BA6F1344981CFB68444A0421FEF701
S315080126F0DBFC04E0BB6F192283F8322000BFB7E187
S315080127003B79002B06D0002BC0F2B481032B00F3D2
S31508012710B1817AE0BB6F93F8393087F86A3097F957
S315080127206A30002B6CD097F96A30BA6F0E339B006A
S3150801273013449B88A7F86830B7F8683003F001039B
S31508012740002B36D097F96A20BB6F53F82230002B3D
S3150801275011D1FEF7D5FC034683F00103DBB2002B4A
S3150801276004D1BB6F93F85E30002B04D0BB6F1922DE
S3150801277083F832207EE1232387F82830012387F85E
S31508012780293010237B8597F96A309BB2BB850023D4
S31508012790FB85BB6F212283F83320BB6FFF2283F8A9
S315080127A0322007F12800FB68144A0821FEF720FCAD
S315080127B030E0B7F8683003F01003002B2AD0232342
S315080127C087F82030012387F8213014237B8497F971
S315080127D06A309BB2BB840023FB84BB6F232283F838
S315080127E03320BB6FFF2283F8322007F12000FB68F4
S315080127F0024A0821FEF7FCFB0CE000BF592001083C
S31508012800BB6F192283F8322004E0BB6F192283F8C3
S31508012810322000E000BF2DE13B79002B06D0002BCA
S31508012820C0F22A81032B00F3278181E0BB6F93F85D
S31508012830393087F8673097F96730BA6F0E339B00DE
S3150801284013449B88A7F8643097F96720BB6F53F840
S315080128502230002B25D1B7F8643003F00103002B91
S315080128606BD023233B7603237B7604237B8397F95B
S3150801287067309BB2BB830023FB83BB6F0B2283F8B4
S315080128803320BB6FFF2283F83220BB6F012283F806
S315080128905E2007F11800FB687B4A0821FEF7A8FBB2
S315080128A04BE097F96720BB6F53F822309B68002BE2
S315080128B016D097F96720BB6F53F82230DB68002BD7
S315080128C00ED097F96720BB6F53F822309B68DB68F7
S315080128D097F96710BA6F52F82120D26810469847BF
S315080128E097F96720BB6F53F82230FF229A7097F940
S315080128F06720BB6F53F8223000229A6097F9672048
S31508012900BB6F53F822300022DA6097F96720BB6F54
S31508012910002143F82210BB6FFF2283F83920BB6FD1
S31508012920192283F83220BB6F002283F85E2004E067
S31508012930BB6F192283F8322000E000BF9CE03B7987
S31508012940002B06D0002BC0F29980032B00F396804A
S3150801295071E0BB6F93F8393087F8633097F96330C4
S31508012960BA6F0E339B0013445B88A7F86030B7F83B
S31508012970603003F00203002B58D097F96340F868DA
S31508012980FEF7D0FB0246BB6F43F8242097F9632074
S31508012990BB6F53F82230002B72D0B7F8603003F4BE
S315080129A00073002B26D0B7F8603003F48063002B40
S315080129B020D123233B7401237B7401237B8297F95E
S315080129C063309BB2BB820023FB82BB6F0B2283F869
S315080129D03320BB6FFF2283F83220BB6FFF2283F8B7
S315080129E0392007F11000FB68274A0821FEF700FB8A
S315080129F000BF25E0B7F8603003F40073002B1FD140
S31508012A00B7F8603003F48063002B19D197F9632076
S31508012A10BB6F53F822300022DA70BB6F1A6EBB6F98
S31508012A205A66BB6F642283F8322009E0BB6F19220C
S31508012A3083F8322025E0BB6F192283F8322000E0A3
S31508012A4000BF1BE000BF1CE000BF1AE000BF18E092
S31508012A5000BF16E000BF14E000BF12E000BF10E09F
S31508012A6000BF0EE000BF0CE000BF0AE000BF08E0AF
S31508012A7000BF06E000BF04E000BF02E000BF00E0BF
S31508012A8000BF8C37BD4690BD5920010880B58AB074
S31508012A9000AF78607B687B627B6A1B6893F90230BA
S31508012AA0BB737B6A2433BB607B6ADB8DBB817B6A24
S31508012AB093F830307B747B6ADB8D7B820323FB734F
S31508012AC07B6A1B68DB783B750B4BFB617B6A1B6872
S31508012AD03B627B6A3133BB617B6A1A2283F83220F7
S31508012AE07B6A1B6807F1080211461846FEF708FEBD
S31508012AF000BF2837BD4680BD5920010880B588B07A
S31508012B0000AF786039607B68BB61BB691B687B6114
S31508012B10BB693A681A66BB6993F83230192B04D037
S31508012B20642B28D0012B09D052E0FEF7E9FA0346B7
S31508012B30002B4AD0B869FFF7A9FF46E000233B728C
S31508012B4009237B72BB6993F824309BB27B810023EE
S31508012B50BB810023FB81BB69FF2283F83220BB6955
S31508012B60032283F8332007F108007B69324A0821DA
S31508012B70FEF73EFA2CE0BB691A6EBB695B6ED31A87
S31508012B802E4A934223D9BB6993F83930FB7497F9D6
S31508012B901320BB6953F82230BA69126812691A619F
S31508012BA097F91320BB6953F822301846FEF7CAFC79
S31508012BB0BB69FF2283F83920BB69002283F85E20AE
S31508012BC0BB69192283F8322001E000BF00E000BF8B
S31508012BD0FEF796FA0346002B2AD00123FB6124E06F
S31508012BE0BB69FA6953F82230002B1BD0BB69FA6915
S31508012BF053F822309B68002B14D0BB69FA6953F845
S31508012C002230DB68002B0DD0BB69FA6953F82230F4
S31508012C109B689B68BA69F96952F82120D2683968B4
S31508012C2010469847FB690133FB61FB69082BD7D925
S31508012C3000BF2037BD4680BD5920010820A10700E5
S31508012C4080B584B000AF78607B68BB60BB68002242
S31508012C5083F83220BB68002283F83020BB68002243
S31508012C6083F85E200123FB733CE0FA7BBB6853F8CB
S31508012C702230002B28D0FA7BBB6853F822309B6898
S31508012C80002B1CD0FA7BBB6853F82230DB68002B7B
S31508012C9015D0FA7BBB6853F822309B68DB68154A66
S31508012CA093420CD0FA7BBB6853F822309B68DB68E9
S31508012CB0F97BBA6852F82120D26810469847FA7B00
S31508012CC0BB68002143F82210BB681B6800229A6082
S31508012CD0BB681B680022DA60BB6800221A60FB7BAE
S31508012CE00133FB73FB7B082BBFD900BF1037BD46E9
S31508012CF080BD00BF412C010880B483B000AF786065
S31508012D000E4A0E4B1B6843F4807313607B6893F875
S31508012D103D391A467B68C3F840297B68022283F845
S31508012D203D297B68D3F844297B68C3F8482900BF45
S31508012D300C37BD465DF8047B704700BF400404406C
S31508012D4080B485B000AF78607B68FB60FB680022C1
S31508012D5083F83D29FB680022C3F83829FB68D3F8B4
S31508012D604429FB68C3F84829084A084B1B6823F01D
S31508012D7001031360064A064B1B6843F040031360C0
S31508012D8000BF1437BD465DF8047B70470800044050
S31508012D900C00044080B489B000AFF860B9607A606D
S31508012DA03B60FB68BB61BB69D3F830397B613B6823
S31508012DB0032B4AD801A252F823F000BFCD2D0108F2
S31508012DC0E32D0108D32D0108DB2D010800233B6003
S31508012DD00BE04FF400233B6007E04FF400233B6010
S31508012DE003E04FF480233B6000BF0023FB61BA6810
S31508012DF013469B001344DB001A467B6913441B7C6C
S31508012E00012B02D14FF40033FB61BA68124B13440C
S31508012E105B0119467B689B0503F0FE523B6803F488
S31508012E2040231A43FB691A43FB6A1A43BB6ADB024E
S31508012E3003F4F0431A433B6BC3F30A03134343F00A
S31508012E40004343F480130B6000E000BF2437BD46FE
S31508012E505DF8047B704700BF28200002B0B58EB02C
S31508012E6004AF786039607B68FB61FB69D3F8303958
S31508012E70BB61F86900F0DCFF0346FB7597F917306B
S31508012E80B3F1FF3F0DD103233B7300233B613B683D
S31508012E905B693A68906907F10C0206CA984700BF50
S31508012EA05EE097F9172013469B001344DB001A4688
S31508012EB0BB69134400221A6297F9172013469B002F
S31508012EC01344DB001A46BB6913443A681C1D1546B0
S31508012ED00FCD0FC495E8070084E807003B681B6916
S31508012EE01B78002B03D04FF080437B6201E000235F
S31508012EF07B623B689B88002B09D03B689B88013B1A
S31508012F003A68528993FBF2F301333B6201E00023ED
S31508012F103B6297F917305B011A46134B134419465E
S31508012F203B6ADA047B6A13433A68928813430B6057
S31508012F3097F917103B6893F9063018463B68DB7911
S31508012F401C463B685B7A1A463B685B8902934FF4D9
S31508012F5000430193009223460246F869FFF71AFFD8
S31508012F602837BD46B0BD00BF10050440B0B596B0C0
S31508012F7004AF786039607B687B627B6AD3F8303945
S31508012F803B62786A00F054FF0346FB7797F91F30D6
S31508012F90B3F1FF3F0DD103233B7300233B613B682C
S31508012FA05B693A68906907F10C0206CA984700BF3F
S31508012FB0EAE097F91F2013469B001344DB001A46E3
S31508012FC03B6A134400221A6297F91F2013469B0095
S31508012FD01344DB001A463B6A13443A681C1D15461E
S31508012FE00FCD0FC495E8070084E807003B68DB7935
S31508012FF0002B16D13B681B7A012B0AD13B681B694A
S315080130001B78002B02D04FF0804300E000237B643D
S3150801301027E04FF0C0437B643B681B6900221A70A6
S315080130201FE03B68DB79032B0AD13B681B691B78D8
S31508013030002B02D04FF0804300E000237B6410E0B0
S315080130403B68DB79022B0AD13B681B691B78002B8D
S3150801305002D04FF0804300E000237B6401E00023A7
S315080130607B643B689B88002B09D03B689B88013BA6
S315080130703A68528993FBF2F301333B6401E0012379
S315080130803B6497F91F305B011A46414B13441946B5
S315080130903B6CDA047B6C13433A68928813430B60E2
S315080130A097F91F103B6893F9063018463B68DB7998
S315080130B01C463B685B7A1A463B685B890293002388
S315080130C00193009223460246786AFFF763FE3B683E
S315080130D0DB79002B03D03B68DB79022B35D197F9D5
S315080130E01F3001331B031A462A4B1344FB633B6803
S315080130F01B68BB633B689B887B630CE0BB6BBB614E
S31508013100FB6B1A1DFA63BA6B111DB96312681A6053
S315080131107B6B043B7B637B6B032BEFDC7B6B002BAD
S3150801312031DDBB6B1B687A6BD200012101FA02F211
S31508013130013A1A40FB6B1A60BB6B7B6100BF7B6B64
S315080131405A1E7A63002BFAD11DE097F91F30013315
S315080131501B031A46104B13443B633B681B68FB620F
S315080131603B689B88BB620AE03B6B1A1D3A63FA6AA5
S31508013170111DF96212681A60BB6A043BBB62BB6A1D
S31508013180002BF1DC00E000BF4837BD46B0BD00BFEB
S3150801319010050440000104400002044080B58CB0CB
S315080131A000AF78607B683B623B6AD3F83039FB61D4
S315080131B0514B1B68BB61BB69DBB203F00F03FB759F
S315080131C0BB691B09C3F308033B61BB6903F4F0132D
S315080131D0B3F5802F40F08580FA7D13469B00134492
S315080131E0DB001A46FB6913445B68FB60FA7D1346EC
S315080131F09B001344DB001A46FB6913441B6AFA68F1
S315080132001344FB623B69002B71D0FB7D01331B0321
S3150801321003F1804303F580237B623B69BB620AE0C5
S31508013220FB6A1A1DFA627A6A111D796212681A60B6
S31508013230BB6A043BBB62BB6A042BF1DC7B6A1B6875
S31508013240BB60BA6A07F108031946F86A44F072F9CD
S31508013250FA7D13469B001344DB001A46FB6999184D
S31508013260FA7D13469B001344DB001A46FB69134497
S315080132701A6A3B6913440B62FA7D13469B00134491
S31508013280DB001A46FB691344196AFA7D13469B004B
S315080132901344DB001A46FB6913441B89994227D25A
S315080132A0FA7D13469B001344DB001A46FB69134457
S315080132B0DB891A463B699A421AD1FB7D28335B01A1
S315080132C003F1804303F580231A46FB7D28335B010E
S315080132D003F1804303F580231B6843F00043136021
S315080132E006E0BB6903F4F013B3F5C02F00E000BF95
S315080132F03037BD4680BD00BF2000044090B599B067
S3150801330000AF78607B68D3F83039BB657B6893F882
S315080133103C39002B1BD1824A814B1B681360814BB8
S315080133201B6803F00203002B11D07E4B1B6803F0C8
S315080133300103002B0BD07B68012283F83C297B68AB
S31508013340D3F844297B68C3F848290023AEE37B6890
S3150801335093F83C39012B6CD17B68D3F844297B68F7
S31508013360D3F84839D31A704A934201D800239DE30A
S315080133706C4B1B6803F00203002B5AD0694B1B6880
S3150801338003F00103002B54D0664B1B6803F4C023DA
S31508013390B3F5003F22D1654A644B1B681B0C1B041D
S315080133A043F43B4343F080031360614B1B6803F00E
S315080133B00303012B07D05E4A5D4B1B6823F0030309
S315080133C043F001031360786800F0EEFD7B68022282
S315080133D083F83C297868FFF78FFC28E0514B1B6876
S315080133E003F4C023B3F5802F21D1504A4F4B1B68F4
S315080133F01B0C1B0443F4BB5343F0100313604C4BE3
S315080134001B6803F00303022B07D0494A484B1B6884
S3150801341023F0030343F002031360786800F0C4FD48
S315080134207B68022283F83C297868FFF765FC00234C
S315080134303CE37B6893F83C39022B0FD17B68D3F8C0
S3150801344044297B68D3F84839D31A3A4A934201D8B2
S3150801345000232BE37B68032283F83C29304B1B6846
S3150801346003F00803002B06D02D4B08221A6002E050
S315080134707868FFF793FE2A4B1B6803F01003002BAD
S31508013480F6D1274B1B6803F08073002B21D0254BFF
S315080134901B6803F00803002B0FD0224B1B687B65C2
S315080134A0204A204B1B6823F0040313607B6D03F04D
S315080134B00403002B01D00123F8E21A4B1B6803F021
S315080134C02003002B05D0174A164B1B6843F020032F
S315080134D01360134B1B6803F00053002B16D0104BD7
S315080134E04FF000521A600F4B1B6803F00103002BC3
S315080134F002D1786800F058FD094A094B1B68136028
S315080135007B68002283F83C290223CFE2044B1B681F
S3150801351003F00073002B00F0B5820023FB65A9E2D6
S3150801352014000440400404401FA107000404044099
S31508013530000404404F340300FA6D13469B001344FC
S31508013540DB001A46BB6D13441B78012B40F08E82B3
S31508013550A34B1B680121FA6D01FA02F21340002BF5
S3150801356000F08482FB6D5A019E4B13441B683B6530
S31508013570FA6D13469B001344DB001A46BB6D1344D0
S31508013580DB7A87F84F30FA6D974B13445B011B685A
S3150801359003F40043002B40F029813B6D03F010032F
S315080135A0002B13D0FB6D5A018E4B13441A46102378
S315080135B01360FA6D8C4B13445B011946FA6D8A4BFD
S315080135C013445B011B6843F000430B603B6D03F03A
S315080135D02003002B2DD0FB6D5A01824B13441A464A
S315080135E02023136097F84F30002B0BD1FA6D134641
S315080135F09B001344DB001A46BB6D13445B69012229
S315080136001A7016E0FA6D13469B001344DB001A463E
S31508013610BB6D13445969FA6D13469B001344DB00CD
S315080136201A46BB6D13445B691B7883F00103DBB251
S315080136300B703B6D03F00103002B31D0FB6D5A0172
S31508013640684B13441A4601231360FB6DDBB2194616
S31508013650786800F063FC002387F84430FA6D134656
S315080136609B001344DB001A46BB6D13441B6ABB64FB
S31508013670FA6D13469B001344DB001A46BB6D1344CF
S315080136809C69FA6D13469B001344DB001A46BB6D11
S315080136901344D86907F1440393E80600A047E6E115
S315080136A03B6D03F40073002B29D0FB6D5A014D4B7A
S315080136B013441A464FF400731360032387F83C300A
S315080136C000233B64FA6D13469B001344DB001A463C
S315080136D0BB6D13449C69FA6D13469B001344DB00CA
S315080136E01A46BB6D1344D86907F13C0393E80600F3
S315080136F0A047FB6DDBB21946786800F00FFC3B6DFD
S3150801370003F08003002B28D0FB6D5A01354B134477
S315080137101A4680231360FB6DDBB21946786800F000
S31508013720FDFB022387F834300023BB63FA6D134689
S315080137309B001344DB001A46BB6D13449C69FA6D62
S3150801374013469B001344DB001A46BB6D1344D86924
S3150801375007F1340393E80600A0473B6D03F008031D
S31508013760002B28D0FB6D5A011E4B13441A46082319
S315080137701360FB6DDBB21946786800F0CFFB0323B3
S3150801378087F82C3000233B63FA6D13469B001344DC
S31508013790DB001A46BB6D13449C69FA6D13469B0000
S315080137A01344DB001A46BB6D1344D86907F12C0391
S315080137B093E80600A0473B6D03F00203002B00F0D7
S315080137C05681FB6D5A01074B13441A4602231360AF
S315080137D0FB6DDBB21946786800F0A0FB47E100BF34
S315080137E01404044008050440282000023B6D03F038
S315080137F01003002B13D0FB6D5A01AE4B13441A4626
S3150801380010231360FA6DAC4B13445B011946FA6D2C
S31508013810A94B13445B011B6843F000430B603B6DE6
S3150801382003F48063002B07D0FB6D5A01A14B1344A7
S315080138301A464FF4806313603B6D03F02003002B97
S315080138401DD0FB6D5A019B4B13441A462023136066
S31508013850FA6D13469B001344DB001A46BB6D1344ED
S315080138605969FA6D13469B001344DB001A46BB6D72
S3150801387013445B691B7883F00103DBB20B703B6D64
S3150801388003F00103002B49D0FB6D5A01894B134400
S315080138901A4601231360FB6DDBB21946786800F0FE
S315080138A03DFBFA6D13469B001344DB001A46BB6DBC
S315080138B01344196AFA6D13469B001344DB001A4632
S315080138C0BB6D13441B89994203D1002387F8243021
S315080138D002E0012387F82430FA6D13469B0013444E
S315080138E0DB001A46BB6D13441B6ABB62FA6D1346AD
S315080138F09B001344DB001A46BB6D13449C69FA6DA1
S3150801390013469B001344DB001A46BB6D1344D86962
S3150801391007F1240393E80600A047A8E03B6D03F4EA
S315080139208073002B28D0FB6D5A01624B13441A464B
S315080139304FF480731360FB6DDBB21946786800F0AB
S31508013940EDFA03233B7700233B62FA6D13469B008E
S315080139501344DB001A46BB6D13449C69FA6D134682
S315080139609B001344DB001A46BB6D1344D86907F163
S315080139701C0393E80600A0473B6D03F40073002B74
S3150801398007D0FB6D5A014B4B13441A464FF400738B
S3150801399013603B6D03F08003002B27D0FB6D5A01A2
S315080139A0444B13441A4680231360FB6DDBB2194658
S315080139B0786800F0B3FA03233B750023BB61FA6DFF
S315080139C013469B001344DB001A46BB6D13449C69DE
S315080139D0FA6D13469B001344DB001A46BB6D13446C
S315080139E0D86907F1140393E80600A0473B6D03F075
S315080139F00803002B27D0FB6D5A012E4B13441A4698
S31508013A0008231360FB6DDBB21946786800F086FA65
S31508013A1003233B7300233B61FA6D13469B00134452
S31508013A20DB001A46BB6D13449C69FA6D13469B006D
S31508013A301344DB001A46BB6D1344D86907F10C031E
S31508013A4093E80600A0473B6D03F00203002B0ED056
S31508013A50FB6D5A01174B13441A4602231360FB6D7B
S31508013A60DBB21946786800F059FA00E000BFFB6D31
S31508013A700133FB657B6893F834391A46FB6D9A4224
S31508013A803FF65AAD0D4B1B6803F00203002B02D01B
S31508013A900A4B02221A60094B1B6803F40013002B18
S31508013AA003D0064B4FF400121A60002318466437F8
S31508013AB0BD4690BD080504402820000214000440B4
S31508013AC080B584B000AF78600023FB607B68D3F8CB
S31508013AD038390B2B00F2288101A252F823F000BFD6
S31508013AE0113B0108213B0108493B01085D3B0108DF
S31508013AF07B3B0108933B0108BD3B0108FB3B0108E1
S31508013B00253C01086D3C01088B3C0108C93C0108AC
S31508013B108F4B1B68002B80F2F2800123FB60EEE0DD
S31508013B207B68D3F844297B68D3F84839D31AB3F5A7
S31508013B307A7F40F2E680864A854B1B6843F001038B
S31508013B4013600123FB60DCE0814B1B6803F0010372
S31508013B50002B40F0D8800123FB60D4E07B68D3F8C2
S31508013B6044297B68D3F84839D31A4CF25032934228
S31508013B7040F2CB800123FB60C7E0754B1B68002B25
S31508013B8080F2C580734B4FF434121A600123FB602F
S31508013B90BDE07B68D3F844297B68D3F84839D31A42
S31508013BA04CF25032934240F2B4806B4A6A4B1B681E
S31508013BB043F0005313600123FB60AAE07B68D3F846
S31508013BC044297B68D3F84839D31A644A934240F2A8
S31508013BD0A280634B00221A60624A624B1B6823F07B
S31508013BE0030343F0010313605F4A5F4B1B6843F409
S31508013BF0807313600123FB608DE07B68D3F8442949
S31508013C007B68D3F84839D31A42F6E062934240F208
S31508013C108480554A544B1B6823F48073136001232F
S31508013C20FB607AE07B68D3F844297B68D3F8483986
S31508013C30D31A42F6E062934271D94A4A494B1B6844
S31508013C4023F004031360494B40221A60484B4FF096
S31508013C5040121A60474B484A1A603D4A3C4B1B685A
S31508013C6043F0100313600123FB6058E0384B1B68CF
S31508013C7003F01003002B54D1354A354B1B6843F426
S31508013C80846313600123FB604BE0314B1B6803F02F
S31508013C902003002B47D1786800F086F9374A374B5D
S31508013CA01B6843F400231360354B00221A60354B19
S31508013CB04FF0FF321A602C4A2B4B1B6843F4805392
S31508013CC013600123FB602EE07B68D3F844297B68E7
S31508013CD0D3F84839D31A214A934225D92A4A2A4B75
S31508013CE01B6843F0010313607B68012283F83D29B1
S31508013CF07B68002283F83C290123FB6014E000BF9E
S31508013D0012E000BF10E000BF0EE000BF0CE000BFEC
S31508013D100AE000BF08E000BF06E000BF04E000BFFC
S31508013D2002E000BF00E000BFFB68002B0CD07B68F7
S31508013D30D3F838395A1C7B68C3F838297B68D3F815
S31508013D4044297B68C3F8482900BF1037BD4680BDA2
S31508013D5010000440380004400C000440400D0300E4
S31508013D60000E0440000404404004044024000440BA
S31508013D70280004400001044080004000040004407B
S31508013D8018000440140004400800044080B483B0BD
S31508013D9000AF78607B68D3F844297B68D3F8483943
S31508013DA0D31A42F21072934210D90B4A0A4B1B6876
S31508013DB023F4807313607B68D3F84039DAB27B68E1
S31508013DC083F83D297B680222C3F8402900BF0C37D6
S31508013DD0BD465DF8047B70474004044080B584B055
S31508013DE000AF786039607B68BB600023FB73BB68F2
S31508013DF03A68C3F84429BB6893F83D39012B04D0C6
S31508013E00022B0CD0002B06D00DE0B868FFF776FA26
S31508013E100346FB7307E0B868FFF752FE03E0B8688C
S31508013E20FFF7B4FF00BFFB7B18461037BD4680BDC0
S31508013E3080B487B000AF78607B683B613B69D3F893
S31508013E403039FB6000237B6100237B614EE03B69CF
S31508013E50D3F830197A6913469B001344DB000B44E7
S31508013E601B78002B3FD17A69284B13445B011B68E9
S31508013E70002B38DB7A6913469B001344DB001A468C
S31508013E80FB68134401221A707B695A01204B1344BB
S31508013E901A464FF0FF3313607B695A011D4B1344D1
S31508013EA019467B695A011B4B13441B6843F4F76394
S31508013EB043F003030B601849174B1B6801207A6905
S31508013EC000FA02F213430B603B69D3F830197A6999
S31508013ED013469B001344DB000B44002283F824207D
S31508013EE07B695BB20BE07B6901337B613B6993F8C4
S31508013EF034391A467B699A42A9D84FF0FF331846D6
S31508013F001C37BD465DF8047B704700BF28200002B8
S31508013F10080504400C0504401804044080B485B023
S31508013F2000AF78600B46FB707B68FB60FB68D3F8D3
S31508013F303039BB60FB7828335B0103F1804303F515
S31508013F4080231B68002B1CDAFB7828335B0103F1FD
S31508013F50804303F580231A46FB7828335B0103F176
S31508013F60804303F580231B6843F080431360FB7885
S31508013F705B011A460B4B13441A464FF0FF33136085
S31508013F8009E0FA7813469B001344DB001A46BB681E
S31508013F90134400221A7000BF1437BD465DF8047B2E
S31508013FA0704700BF0805044080B584B000AF78604B
S31508013FB07B68BB600023FB600023FB6018E0FB689D
S31508013FC05A01154B13441A464FF0FF331360FB6829
S31508013FD05A01124B13441A4640F2FF731360FB68E9
S31508013FE0DBB21946B868FFF799FFFB680133FB6036
S31508013FF0BB6893F834391A46FB689A42DFD8084AEF
S31508014000BB6893F83439194601238B40013B136089
S3150801401000BF1037BD4680BD080504400C050440A5
S315080140201804044080B485B000AF78607B68FB60F3
S315080140300E4B1B6803F4C023BB60BB68B3F5802F26
S3150801404001D101230BE0BB68B3F5003F01D1002381
S3150801405005E0BB68002B01D1022300E000231846C6
S315080140601437BD465DF8047B704700BF4004044021
S3150801407080B485B000AF786039603B68DBB2FB730A
S31508014080FA7B7B681A7000BF1437BD465DF8047B5E
S31508014090704700BF80B582B000AF786039603B6871
S315080140A07F2B07D87B685A1C7A6039681846FFF750
S315080140B0DFFF75E03B68B3F5006F17D27B685A1CC2
S315080140C07A603A68920942F0C00211461846FFF72B
S315080140D0CFFF7B685A1C7A603A6802F03F0242F0C9
S315080140E0800211461846FFF7C3FF59E03B68B3F54E
S315080140F0803F24D27B685A1C7A603A68120B42F0D8
S31508014100E00211461846FFF7B3FF7B685A1C7A602E
S315080141103A68920902F03F0242F0800211461846B7
S31508014120FFF7A6FF7B685A1C7A603A6802F03F02DD
S3150801413042F0800211461846FFF79AFF30E07B6885
S315080141405A1C7A603A68920C42F0F00211461846F7
S31508014150FFF78EFF7B685A1C7A603A68120B02F0E9
S315080141603F0242F0800211461846FFF781FF7B683D
S315080141705A1C7A603A68920902F03F0242F08002BC
S3150801418011461846FFF774FF7B685A1C7A603A682D
S3150801419002F03F0242F0800211461846FFF768FF17
S315080141A07B6800221A7000BF0837BD4680BD00BF74
S315080141B080B582B000AF786039607B6804333968AE
S315080141C01846FFF755FF7B6800225A7102231846E5
S315080141D00837BD4680BD00BF80B582B000AF7860A4
S315080141E039607B68043339681846FFF741FF7B68F5
S315080141F000225A71082318460837BD4680BD00BFFC
S3150801420080B582B000AF786039607B683F221A7149
S315080142107B680433013339681846FFF729FF7B6841
S3150801422000229A71082318460837BD4680BD00BF8B
S3150801423080B582B000AF786039607B685D221A71FB
S315080142407B680433013339681846FFF711FF7B6829
S3150801425000229A71022318460837BD4680BD00BF61
S3150801426080B582B000AF786039607B685D221A71CB
S315080142707B685D225A717B680433023339681846B4
S31508014280FFF7F6FE7B680022DA7102231846083723
S31508014290BD4680BD80B582B000AF786039607B6865
S315080142A01A1D3B68092B04D03B680A2B01D03B68D1
S315080142B000E0202319461046FFF7DAFE7B68002244
S315080142C05A71052318460837BD4680BD80B485B0A6
S315080142D000AFF860B9607A60FB689B6B9A1CFB6853
S315080142E05B6B9A4202D36FF0010320E0FB689B6B7C
S315080142F05A1CFB689A63FB681A6BFB689B6B1A442A
S31508014300BB681A60FB681A6BFB689B6B13447A6877
S31508014310D2B21A70FB689B6B5A1CFB689A63FB68DE
S315080143201A6BFB689B6B134400221A70002318460C
S315080143301437BD465DF8047B704700BF80B483B06F
S3150801434000AF786039607B689B6B5A1C7B685B6B36
S315080143509A4202D36FF0010314E07B681A6B7B68FB
S315080143609B6B13443A68D2B21A707B689B6B5A1CD2
S315080143707B689A637B681A6B7B689B6B1344002284
S315080143801A70002318460C37BD465DF8047B704742
S3150801439080B483B000AF78607B689B6B5A1E7B68DC
S315080143A09A637B681A6B7B689B6B13441B78002B9B
S315080143B0F2D100BF0C37BD465DF8047B704700BFDC
S315080143C080B582B000AF786039607B683A68194673
S315080143D07868FFF77BFF034618460837BD4680BD58
S315080143E080B582B000AF7860396039687868FFF7C0
S315080143F0A5FF034618460837BD4680BD80B483B07D
S3150801440000AF78603960012318460C37BD465DF860
S31508014410047B704780B582B000AF786039607868F0
S31508014420FFF7B6FF7B689B6B002B15D07B681A6B71
S315080144307B689B6B013B1A447B681A6004E07B68C6
S315080144401B685A1E7B681A607B681B68013B1B78D0
S31508014450002BF4D1032307E07B681A6B7B681A608B
S315080144607B682A22DA62032318460837BD4680BDCF
S3150801447080B483B000AF786039607B681B681B78AD
S315080144801A463B689A4202D06FF0020305E07B6840
S315080144901B685A1C7B681A60002318460C37BD46F0
S315080144A05DF8047B704700BF80B582B000AF7860C5
S315080144B039607B681B681B78002B02D06FF00203FA
S315080144C004E039687868FFF7A5FF034618460837F8
S315080144D0BD4680BD80B582B000AF786039607B6823
S315080144E00C333A6819467868FFF7F0FE0346184612
S315080144F00837BD4680BD00BF80B582B000AF786081
S31508014500396039687868FFF719FF0346184608378E
S31508014510BD4680BD80B483B000AF7860396004239E
S3150801452018460C37BD465DF8047B704780B582B0E6
S3150801453000AF786039607868FFF72AFF06231846C6
S315080145400837BD4680BD00BF80B582B000AF786030
S3150801455039607B6810333A6819467868FFF7B6FE02
S31508014560034618460837BD4680BD00BF80B582B0F0
S3150801457000AF7860396039687868FFF7DFFE03466F
S3150801458018460837BD4680BD80B582B000AF786051
S3150801459039607868FFF7FCFE002318460837BD46E0
S315080145A080BD00BF80B483B000AF786039607B6896
S315080145B01B691B7843F02003DBB2782B1AD17B6881
S315080145C01B6901331B7843F02003DBB26D2B11D134
S315080145D07B681B6902331B7843F02003DBB26C2B23
S315080145E008D17B681B6903331B78002B02D14FF076
S315080145F0FF3300E0072318460C37BD465DF8047BF8
S31508014600704700BF80B582B000AF786039607868BE
S31508014610FFF7BEFE7B681A6B7B681A610923184689
S315080146200837BD4680BD00BF80B582B000AF78604F
S3150801463039607B68043308220021184643F078F86C
S315080146407B680022DA63002318460837BD4680BD19
S3150801465080B582B000AF786039607B68DB6B062B6A
S3150801466002D96FF003030EE07B681A1D7B68DB6BCA
S31508014670134439681846FFF7FBFC7B68DB6B5A1C49
S315080146807B68DA63002318460837BD4680BD00BF3C
S315080146902DE9F04F87B000AF78600A46FA707A685C
S315080146A004327A6100223A617A691278232A49D159
S315080146B07B6901331B78782B26D17B6902337B61B1
S315080146C014E03B691B017A691278392A03D87A6999
S315080146D01278303A05E07A69127842F02002D2B2AD
S315080146E0573A13443B617B6901337B617B691B78CC
S315080146F0303B092BE5D97B691B7843F02003DBB2F4
S31508014700613B052BDDD916E07B6901337B610DE041
S315080147103A6913469B0013445B001A467B691B786A
S315080147201344303B3B617B6901337B617B691B78B1
S31508014730303B092BECD97B691B78002B77D00023FA
S315080147403B6174E07A691278D1B24FF000028B4668
S315080147504FF0000A7A6901321278D1B24FF000029D
S315080147604FEA026949EA11294FEA016848EA0A0843
S3150801477049EA0B097A6902321278D1B24FF000027E
S31508014780160446EA11460D0445EA080546EA0906ED
S315080147907A6903321278D1B24FF00002140244EA60
S315080147A011640B0245EA030146EA04027B690433F4
S315080147B01B78DBB24FF0000443EA010344EA020422
S315080147C0C7E90234D7E902346C2C08BFB3F1E84FC4
S315080147D02BD0D7E90234672C08BFB3F1E84F22D0B2
S315080147E0D7E902342A494FF06102944208BF8B4245
S315080147F017D0D7E9023422A2D2E90012944208BF9F
S315080148008B420CD0D7E902341FA2D2E90012944296
S3150801481008BF8B4201D1222308E0002306E02723A3
S3150801482004E0262302E03E2300E03C233B613B698A
S31508014830002B15D03B69B3F5881F11D23B694FF69A
S31508014840FE7293420CD03B694FF6FF72934207D032
S315080148503B69A3F55F43FF3B40F2FE72934202D8E0
S315080148606FF0030307E07B68043339691846FFF7DD
S3150801487011FC97F9033018461C37BD46BDE8F08F81
S3150801488000736F706100000000746F75710000009D
S315080148900000706D80B582B000AF78603960022182
S315080148A07868FFF7F5FE034618460837BD4680BD0A
S315080148B080B582B000AF7860396005217868FFF766
S315080148C0E7FE034618460837BD4680BD80B584B065
S315080148D000AFF860B9607A6050220021F86842F0AA
S315080148E027FFFB6801229A62FB68BA681A63FB68AC
S315080148F07A685A63FB681B6B00221A70FB681A6B8D
S31508014900FB68DA60FB68DA68FB681A61FB681A6992
S31508014910FB681A60FB681E22DA6200BF1037BD46C3
S3150801492080BD00BF90B585B000AF786039603B683F
S31508014930DBB2FB60FB68002B03D14FF0FF3301F0BC
S31508014940F7B87B68D3E90834013344F100047A687F
S31508014950C2E908347B689A6CFB689A4205D17B6880
S3150801496000229A64002301F0E3B8FB680D2B01D1FC
S315080149700A2200E000227B689A64FB680A2B02D0AF
S31508014980FB680D2B0DD10A23FB607B689B6A5A1CB9
S315080149907B689A627A684FF000034FF00004C2E917
S315080149A006347B68D3E90634013344F100047A6896
S315080149B0C2E906347B68DB6ADBB2412B01F2B680B9
S315080149C001A252F823F000BFD14A0108034B01089E
S315080149D0854B0108B14B0108E94B0108474C010811
S315080149E08B4C0108AB4C0108D14C01080B4D010851
S315080149F01F4D0108334D01084B4D0108694D01084A
S31508014A007F4D0108CD4D0108EB4D0108174E0108F0
S31508014A103B4E0108774E0108134F0108834F0108E1
S31508014A20C74F0108E34F01080F5001084750010815
S31508014A3061500108A5500108D95001085B510108C8
S31508014A4087510108D75101082F5201088D520108D3
S31508014A50FD5201082F5301086353010897530108B2
S31508014A60ED53010815540108495401087D540108FC
S31508014A70BD540108E5540108175501089355010865
S31508014A80AF550108DB550108F75501081F560108FE
S31508014A90535601088D560108A3560108CB5601083D
S31508014AA00B5701081F57010841570108DB57010831
S31508014AB075580108ED580108215901084F5901088F
S31508014AC0AF590108DD590108215A0108475A010859
S31508014AD07B68DB6C1B781A46FB689A4240F0BB87F9
S31508014AE07B68DB6C5A1C7B68DA647B68DB6C1B7839
S31508014AF0002B03D17B685A6C7B68DA62002301F0CC
S31508014B0017B8FB6843F02003613B192B12D9FB68E0
S31508014B103A2B0FD0FB685F2B0CD0FB687F2B09D88B
S31508014B20FB68303B092B05D9FB682D2B02D0FB68A6
S31508014B302E2B06D1F9687868FFF7DEFC034600F0EC
S31508014B40F7BFFB68202B05D0FB68092B02D0FB6851
S31508014B500A2B09D17B680222DA62F9687868FFF7BD
S31508014B60D9FC034600F0E4BFFB683D2B40F075878E
S31508014B707B680322DA62F9687868FFF7CBFC03469B
S31508014B8000F0D6BFFB68202B05D0FB68092B02D0A5
S31508014B90FB680A2B02D1002300F0CABFFB683D2B34
S31508014BA040F05D877B680322DA62002300F0C0BF0C
S31508014BB0FB68202B05D0FB68092B02D0FB680A2B62
S31508014BC002D1002300F0B4BFFB68272B03D0FB6892
S31508014BD0222B40F046877B680422DA627B68FA68F2
S31508014BE01A64002300F0A4BF7B681A6CFB689A421A
S31508014BF00CD0FB683C2B09D0FB68262B06D0F9683C
S31508014C007868FFF747FB034600F092BFFB68262B3F
S31508014C1009D17B680522DA62F9687868FFF704FD2D
S31508014C20034600F085BF7B681A6CFB689A4240F020
S31508014C301A877B681522DA62F9687868FFF776FCC5
S31508014C40034600F075BFFB68303B092B08D9FB68A2
S31508014C5043F02003613B192B02D9FB68232B06D1AC
S31508014C60F9687868FFF7F4FC034600F061BFFB6852
S31508014C703B2B40F0FA867B680422DA62F968786889
S31508014C80FFF716FE034600F053BFFB685D2B05D1FF
S31508014C907B680722DA62002300F04ABFF968786860
S31508014CA0FFF786FA034600F043BFFB685D2B05D183
S31508014CB07B680822DA62002300F03ABF7B68062285
S31508014CC0DA62F9687868FFF7B3FA034600F030BF8D
S31508014CD0FB685D2B06D1F9687868FFF769FA034620
S31508014CE000F026BFFB683E2B05D17B682822DA62D5
S31508014CF0002300F01DBF7B680622DA62F96878682E
S31508014D00FFF7AEFA034600F013BFFB682D2B40F000
S31508014D10AE867B680A22DA62002300F009BFFB68C7
S31508014D202D2B40F0A6867B680B22DA62002300F061
S31508014D30FFBEFB682D2B05D17B680C22DA620023A6
S31508014D4000F0F6BE002300F0F3BEFB682D2B05D15B
S31508014D507B680D22DA62002300F0EABE7B680B222B
S31508014D60DA62002300F0E4BEFB683E2B40F083863E
S31508014D707B685A6C7B68DA62002300F0D9BEFB684F
S31508014D803E2B05D17B682722DA62002300F0D0BECC
S31508014D90FB68272B02D0FB68222B0BD17B680F22DD
S31508014DA0DA627B68FA681A647B680E225A64002301
S31508014DB000F0BEBEFB683C2B05D17B681022DA6287
S31508014DC0002300F0B5BE002300F0B2BE7B681A6C62
S31508014DD0FB689A4206D17B685A6C7B68DA620023C3
S31508014DE000F0A6BE002300F0A3BEFB683F2B08D146
S31508014DF07B682B22DA627B680E225A64002300F054
S31508014E0097BEFB68212B40F038867B681122DA624F
S31508014E10002300F08DBEFB682D2B08D17B680A2282
S31508014E20DA627B680E225A64002300F081BE7B6831
S31508014E301222DA62002300F07BBEFB68272B02D020
S31508014E40FB68222B0BD17B680F22DA627B68FA6832
S31508014E501A647B6812225A64002300F069BEFB6853
S31508014E603E2B05D17B680E22DA62002300F060BE74
S31508014E70002300F05DBEFB6843F02003613B192B5C
S31508014E8012D9FB683A2B0FD0FB685F2B0CD0FB6855
S31508014E907F2B09D8FB68303B092B05D9FB682D2BDD
S31508014EA002D0FB682E2B06D1F9687868FFF798FAC5
S31508014EB0034600F03DBEFB68202B05D0FB68092B95
S31508014EC002D0FB680A2B09D17B681422DA62F968D9
S31508014ED07868FFF793FA034600F02ABEFB682F2B82
S31508014EE009D17B681622DA62F9687868FFF786FACB
S31508014EF0034600F01DBEFB683E2B40F0C0857B686B
S31508014F002822DA62F9687868FFF778FA034600F02A
S31508014F100FBEFB68202B05D0FB68092B02D0FB6866
S31508014F200A2B02D1002300F003BEFB682F2B05D103
S31508014F307B681622DA62002300F0FABDFB683E2B75
S31508014F4005D17B682822DA62002300F0F1BDFB68EF
S31508014F5043F02003613B192B09D9FB683A2B06D08C
S31508014F60FB685F2B03D0FB687F2B40F28A857B6841
S31508014F700122DA62F9687868FFF7ACFA034600F0AD
S31508014F80D7BDFB68202B05D0FB68092B02D0FB682F
S31508014F900A2B05D17B681422DA62002300F0C8BD0A
S31508014FA0FB682F2B05D17B681622DA62002300F0F5
S31508014FB0BFBDFB683E2B40F066857B682822DA6216
S31508014FC0002300F0B5BDFB683E2B40F05E857B688B
S31508014FD02822DA62F9687868FFF71CFA034600F0B6
S31508014FE0A7BDFB68202B05D0FB68092B02D0FB68FF
S31508014FF00A2B02D1002300F09BBDFB683D2B40F034
S3150801500046857B681822DA62002300F091BDFB68A9
S31508015010202B05D0FB68092B02D0FB680A2B02D18D
S31508015020002300F085BDFB68272B03D0FB68222BE4
S3150801503040F02F857B681922DA627B68FA681A6460
S31508015040002300F075BDFB6843F02003613B192B73
S3150801505000F221857B681A22DA62002300F068BD16
S31508015060FB6843F02003613B192B0CD9FB68303BE5
S31508015070092B08D9FB682E2B05D0FB685F2B02D0BC
S31508015080FB682D2B02D1002300F052BD7B681A6CF8
S31508015090FB689A4240F001857B683E22DA6200236A
S315080150A000F046BDFB6843F02003613B192B09D983
S315080150B0FB683A2B06D0FB685F2B03D0FB687F2B76
S315080150C040F2ED847B681C22DA62F9687868FFF79A
S315080150D0CFF9034600F02CBDFB6843F02003613B82
S315080150E0192B12D9FB683A2B0FD0FB685F2B0CD012
S315080150F0FB687F2B09D8FB68303B092B05D9FB6870
S315080151002D2B02D0FB682E2B06D1F9687868FFF79C
S31508015110AFF9034600F00CBDFB68202B05D0FB68F0
S31508015120092B02D0FB680A2B09D17B681D22DA629A
S31508015130F9687868FFF7B8F9034600F0F9BCFB6827
S315080151403E2B40F0AE847B682822DA62F9687868DB
S31508015150FFF7AAF9034600F0EBBCFB68202B05D044
S31508015160FB68092B02D0FB680A2B02D1002300F049
S31508015170DFBCFB683E2B40F096847B682822DA6206
S31508015180002300F0D5BCFB68EF2B0BD17B6800220E
S31508015190DA627B6826225A647B68A84ADA640023A5
S315080151A000F0C6BCFB68202B05D0FB68092B02D092
S315080151B0FB680A2B05D17B682622DA62002300F0F8
S315080151C0B7BCFB683C2B40F070847B681F22DA620F
S315080151D0002300F0ADBCFB68212B05D17B68232297
S315080151E0DA62002300F0A4BCFB683F2B05D17B687B
S315080151F02522DA62002300F09BBCFB6843F02003FA
S31508015200613B192B09D9FB683A2B06D0FB685F2B42
S3150801521003D0FB687F2B40F24A847B681322DA624B
S31508015220F9687868FFF7CCF8034600F081BCFB689B
S31508015230212B05D17B682322DA62002300F078BC92
S31508015240FB683F2B08D17B682B22DA627B68272211
S315080152505A64002300F06CBCFB6843F02003613BF1
S31508015260192B09D9FB683A2B06D0FB685F2B03D0AB
S31508015270FB687F2B40F21D847B681322DA62F9688A
S315080152807868FFF79DF8034600F052BCFB68212BAE
S3150801529005D17B682422DA62002300F049BCFB6849
S315080152A03F2B08D17B682B22DA627B6828225A6455
S315080152B0002300F03DBCFB682F2B05D17B681B2220
S315080152C0DA62002300F034BCFB6843F02003613B3B
S315080152D0192B09D9FB683A2B06D0FB685F2B03D03B
S315080152E0FB687F2B40F2E7837B681322DA62F96851
S315080152F07868FFF765F8034600F01ABCFB68212BAE
S3150801530008D17B680922DA627B682A225A6400235B
S3150801531000F00EBCFB683F2B40F0CF837B682B2245
S31508015320DA627B682A225A64002300F001BCFB6812
S315080153302D2B07D17B680A22DA627B6827225A64F9
S315080153400023F5E3FB68442B40F0B9837B68002210
S31508015350DA627B680E225A647B68394ADA6400236A
S31508015360E6E3FB682D2B07D17B680A22DA627B68A4
S3150801537028225A640023DBE3FB685B2B40F0A183F8
S315080153807B680022DA627B6806225A647B682D4AAA
S31508015390DA640023CCE3FB68782B0BD17B683822CF
S315080153A0DA627B6827225A64F9687868FFF7CCF8CD
S315080153B00346BDE3FB6843F02003613B192B09D97A
S315080153C0FB683A2B06D0FB685F2B03D0FB687F2B63
S315080153D040F279837B682C22DA627B6827225A6439
S315080153E0F9687868FFF7B0F80346A1E3FB68202B54
S315080153F005D0FB68092B02D0FB680A2B01D10023D3
S3150801540096E3FB683C2B40F060837B681F22DA62D7
S3150801541000238DE3FB68202B05D0FB68092B02D0FE
S31508015420FB680A2B01D1002382E3FB683C2B40F081
S315080154304E837B682022DA62002379E364610608D9
S315080154406861060870610608FB683C2B04D17B6815
S315080154502122DA6200236BE3FB68262B08D17B68DD
S315080154602922DA62F9687868FFF7DEF803465FE30E
S31508015470F9687868FEF79CFE034659E3FB68303BFA
S31508015480092B08D9FB6843F02003613B192B02D984
S31508015490FB68232B05D1F9687868FFF7D9F8034625
S315080154A046E3FB683B2B40F014837B682822DA62CB
S315080154B0F9687868FFF7EEF9034639E3FB68202BAC
S315080154C005D0FB68092B02D0FB680A2B01D1002302
S315080154D02EE3FB683C2B40F0FE827B682222DA62CF
S315080154E0002325E3FB6843F02003613B192B09D907
S315080154F0FB683A2B06D0FB685F2B03D0FB687F2B32
S3150801550040F2EB827B682C22DA62F9687868FFF749
S315080155101BF803460CE3FB6843F02003613B192B98
S3150801552012D9FB683A2B0FD0FB685F2B0CD0FB68AE
S315080155307F2B09D8FB68303B092B05D9FB682D2B36
S3150801554002D0FB682E2B05D1F9687868FFF70EF8AB
S315080155500346EDE2FB683F2B08D17B682F22DA620E
S31508015560F9687868FFF71EF80346E1E2FB68202B25
S3150801557006D0FB68092B03D0FB680A2B40F0AF82E3
S315080155807B682D22DA62F9687868FFF70BF803461B
S31508015590CEE2FB683F2B04D17B682E22DA62002318
S315080155A0C6E2F9687868FEF717FE0346C0E2FB68AB
S315080155B03E2B09D17B685A6C7B68DA62F968786890
S315080155C0FFF720F80346B3E27B682D22DA62F96811
S315080155D07868FEF715FE0346AAE2FB683E2B40F003
S315080155E080827B685A6C7B68DA62F9687868FFF7AB
S315080155F009F803469CE2FB68202B05D0FB68092BBA
S3150801560002D0FB680A2B01D1002391E2FB683D2BEE
S3150801561040F069827B683122DA62002388E2FB68FE
S31508015620202B05D0FB68092B02D0FB680A2B01D178
S3150801563000237DE2FB68272B03D0FB68222B40F071
S3150801564054827B683222DA627B68FA681A6400231C
S315080156506EE2FB68792B0AD17B680022DA627B68E5
S3150801566033225A647B689E4ADA64002360E2FB6847
S315080156706E2B40F03C827B680022DA627B6833221B
S315080156805A647B68974ADA64002351E27B681A6C8C
S31508015690FB689A4240F02D827B684022DA62002339
S315080156A046E2FB68202B05D0FB68092B02D0FB6874
S315080156B00A2B01D100233BE2FB683D2B40F01B82FC
S315080156C07B683522DA62002332E2FB68202B05D09B
S315080156D0FB68092B02D0FB680A2B01D1002327E2BC
S315080156E0FB68272B03D0FB68222B40F006827B68D8
S315080156F00022DA627B68FA681A647B6836225A6481
S315080157007B68794ADA64002312E2FB68303B092B8D
S3150801571000F2F5817B683722DA62002308E2FB682A
S31508015720303B092B01D8002302E27B681A6CFB681F
S315080157309A4240F0E6817B683C22DA620023F7E16F
S31508015740FB686D2B08D17B683922DA62F9687868BB
S31508015750FEF70CFF0346EBE1FB6843F02003613BD0
S31508015760192B12D9FB683A2B0FD0FB685F2B0CD08B
S31508015770FB687F2B09D8FB68303B092B05D9FB68E9
S315080157802D2B02D0FB682E2B08D17B682C22DA62DE
S31508015790F9687868FEF7EAFE0346C9E1FB683F2B1C
S315080157A008D17B682F22DA62F9687868FEF7FAFE73
S315080157B00346BDE1FB68202B06D0FB68092B03D005
S315080157C0FB680A2B40F09F817B682D22DA62F96813
S315080157D07868FEF7E7FE0346AAE1FB686C2B08D159
S315080157E07B683A22DA62F9687868FEF7BFFE0346F3
S315080157F09EE1FB6843F02003613B192B12D9FB6834
S315080158003A2B0FD0FB685F2B0CD0FB687F2B09D88E
S31508015810FB68303B092B05D9FB682D2B02D0FB68A9
S315080158202E2B08D17B682C22DA62F9687868FEF794
S315080158309DFE03467CE1FB683F2B08D17B682F223E
S31508015840DA62F9687868FEF7ADFE034670E1FB682F
S31508015850202B06D0FB68092B03D0FB680A2B40F0E6
S3150801586054817B682D22DA62F9687868FEF79AFE18
S3150801587003465DE1FB68202B05D0FB68092B02D0A6
S31508015880FB680A2B08D17B683B22DA62F9687868DB
S31508015890FEF77AFE03464BE1FB6843F02003613BC2
S315080158A0192B13D9FB683A2B10D0FB685F2B0DD047
S315080158B0FB687F2B0AD8FB68303B092B06D9FB68A6
S315080158C02D2B03D0FB682E2B40F021817B682C22DF
S315080158D0DA62F9687868FEF749FE034628E100BFEF
S315080158E0786106087C61060880610608FB68202B3A
S315080158F005D0FB68092B02D0FB680A2B01D10023CE
S3150801590016E1FB68762B40F004817B680022DA6297
S315080159107B6834225A647B68874ADA64002307E184
S31508015920FB68202B05D0FB68092B02D0FB680A2BE4
S3150801593004D17B683D22DA620023F9E0FB683F2B3C
S3150801594040F0E9807B684122DA620023F0E0FB68D7
S31508015950202B05D0FB68092B02D0FB680A2B01D145
S315080159600023E5E0FB683F2B04D17B684122DA621C
S315080159700023DDE0FB68652B0AD17B680022DA6229
S315080159807B6817225A647B686C4ADA640023CFE085
S31508015990FB68732B40F0C1807B680022DA627B6862
S315080159A030225A647B68664ADA640023C0E0FB68E1
S315080159B0202B05D0FB68092B02D0FB680A2B04D1E2
S315080159C07B683F22DA620023B2E0FB683F2B40F096
S315080159D0A6807B684122DA620023A9E0FB68202BB6
S315080159E005D0FB68092B02D0FB680A2B01D10023DD
S315080159F09EE0FB683F2B04D17B684122DA620023D3
S31508015A0096E0FB68732B40F08C807B680022DA6293
S31508015A107B6830225A647B68494ADA64002387E046
S31508015A20FB68202B05D0FB68092B02D0FB680A2BE3
S31508015A3001D100237CE0FB683F2B74D17B684122AE
S31508015A40DA62002374E0FB683E2B6ED17B6827225D
S31508015A50DA6200236CE000BF68E000BF66E000BFC1
S31508015A6064E000BF62E000BF60E000BF5EE000BF27
S31508015A705CE000BF5AE000BF58E000BF56E000BF37
S31508015A8054E000BF52E000BF50E000BF4EE000BF47
S31508015A904CE000BF4AE000BF48E000BF46E000BF57
S31508015AA044E000BF42E000BF40E000BF3EE000BF67
S31508015AB03CE000BF3AE000BF38E000BF36E000BF77
S31508015AC034E000BF32E000BF30E000BF2EE000BF87
S31508015AD02CE000BF2AE000BF28E000BF26E000BF97
S31508015AE024E000BF22E000BF20E000BF1EE000BFA7
S31508015AF01CE000BF1AE000BF18E000BF16E000BFB7
S31508015B0014E000BF12E000BF10E000BF0EE000BFC6
S31508015B100CE000BF0AE000BF08E000BF06E000BFD6
S31508015B2004E000BF02E000BF00E000BF4FF0FF3312
S31508015B3018461437BD4690BD846106088C6106086F
S31508015B409461060880B483B000AF786039603B6819
S31508015B5018460C37BD465DF8047B704780B483B0A0
S31508015B6000AF7860396000BF0C37BD465DF8047B2D
S31508015B70704700BF80B500AFF9F718FB024B012249
S31508015B801A7000BF80BD00BF041C002080B500AF9D
S31508015B90F8F7D0FA00BF80BD80B400AF72B600BF77
S31508015BA0BD465DF8047B704780B500AFFFF7F4FF8B
S31508015BB000BF80BD80B500AF164811F05DFC4FF4FB
S31508015BC0C06011F0EFFE40F2016011F0EBFE40F209
S31508015BD0026011F0E7FE40F2036011F0E3FE40F6C1
S31508015BE0040011F0DFFE40F68B0011F0DBFE40F2F7
S31508015BF0876011F0D7FE40F21D6011F0D3FE40F226
S31508015C00846011F0CFFE40F2166011F0CBFE00BFA2
S31508015C1080BD00BFA061060880B500AFFFF7C4FFCD
S31508015C2000BF80BD80B500AF054812F0BDFF042056
S31508015C3012F0C2FF12F0D4FF12F0CAFF00BF80BDF6
S31508015C404090020080B485B000AFF860B9607A6010
S31508015C503B60FB68BA681A60FB68BA685A60FB68F9
S31508015C6000229A60FB680022DA60FB687A681A618A
S31508015C70FB683A685A61FB6818461437BD465DF8F1
S31508015C80047B704780B584B000AF78600023FB6061
S31508015C907B689A687B685B699A4232D27B68DA6864
S31508015CA07B685B699A4214D27B681A687B68DB68F1
S31508015CB07968096901FB03F31344BB60BB687A6819
S31508015CC01169BA680A441A607B68DB685A1C7B68E2
S31508015CD0DA607B685B68FB607B689B685A1C7B683B
S31508015CE09A607B689A687B685B699A4205D07B688B
S31508015CF05B681A687B685A6009E07B6800225A600B
S31508015D0005E0054B054AF32105483FF0C1FEFB684E
S31508015D1018461037BD4680BDC06106089C63060853
S31508015D20C8610608B0B500AF174B1B6803F001033D
S31508015D30002B18D1144814F027FA0346002B14BF78
S31508015D4001230023DBB2002B0DD000250C2000F027
S31508015D501FF903461C46204600F01AF80B4B1C6037
S31508015D60094814F031FA094B1B680BE00C2120464F
S31508015D7014F032F8FFE7002D02D1034814F020FA97
S31508015D8014F082F81846B0BD601F00205C1F002081
S31508015D9080B582B000AF78607B68184600F0AEF92E
S31508015DA07B6818460837BD4680BD00BF80B582B0FE
S31508015DB000AF7860094A7B681A607B681846FAF76B
S31508015DC0F9FC0023002B03D03C21786814F004F871
S31508015DD07B6818460837BD4680BD00BFFC610608CA
S31508015DE080B582B000AF78607868FFF7DFFF3C21A5
S31508015DF0786813F0F1FF7B6818460837BD4680BD01
S31508015E0090B583B000AF78607B680222802118467E
S31508015E1000F0B6F91C4A7B681A607B68002283F891
S31508015E203A207B683C33184600F086F97B68643370
S31508015E3018460DF05FFDFFF775FF02467B689A6607
S31508015E40082000F0A5F803461C467B689B6E194698
S31508015E50204600F083F97B68DC667B681846FAF70A
S31508015E604BFC7B680BE07B68643318460DF0A2FD9A
S31508015E70FFE77B681846FFF799FF14F005F81846FF
S31508015E800C37BD4690BD00BF287E060880B582B096
S31508015E9000AF7860094A7B681A607B681846FAF78A
S31508015EA089FC0023002B03D04421786813F094FF62
S31508015EB07B6818460837BD4680BD00BFE461060801
S31508015EC080B582B000AF78607868FFF7DFFF4421BC
S31508015ED0786813F081FF7B6818460837BD4680BD90
S31508015EE090B583B000AF78607B680222802118469E
S31508015EF000F060F9254A7B681A607B68002283F8FE
S31508015F0044207B68453318460DF0F4FC7B68493319
S31508015F1018460DF0EFFC7B68002283F84D207B685C
S31508015F20002283F84E207B68453301223521184625
S31508015F300DF092FDAC2000F02BF803461C462046D6
S31508015F400CF032FA7B681C657B681846FAF7D4FBB5
S31508015F507B6816E0AC21204613F03EFFFFE77B681D
S31508015F60493318460DF026FDFFE77B684533184689
S31508015F700DF020FDFFE77B681846FFF787FF13F052
S31508015F8083FF18460C37BD4690BD00BF6C7F0608D7
S31508015F9080B582B000AF78607868F7F71FFF0346CF
S31508015FA018460837BD4680BD80B582B000AF786017
S31508015FB07868F7F713FF034618460837BD4680BDCC
S31508015FC080B582B000AF78607868F7F71FFF00BF29
S31508015FD00837BD4680BD00BF80B582B000AF786086
S31508015FE07868F7F713FF00BF0837BD4680BD00BFC5
S31508015FF090B589B000AFFFF7DDFDFFF713FEFFF798
S315080160000BFE4820FFF7C4FF03461C46204600F056
S31508016010C3F9FC614FF41270FFF7BAFF03461C4639
S31508016020204600F05BFABC614420FFF7B1FF034646
S315080160301C46204600F060FD7C615420FFF7A8FF4E
S3150801604003461C462046FFF74BFF3C617020FFF7CD
S315080160509FFF03461C462046FFF7D2FEFC607020D0
S31508016060FFF796FF03461C4620460AF017FBBC605D
S315080160704C20FFF78DFF03461C46204601F02EFFF4
S315080160807C60FFF777FDFEE74821204613F0A4FE62
S3150801609013F0FAFE4FF41271204613F09DFE13F029
S315080160A0F3FE4421204613F097FE13F0EDFE54212A
S315080160B0204613F091FE13F0E7FE7021204613F0F7
S315080160C08BFE13F0E1FE7021204613F085FE13F0D6
S315080160D0DBFE4C21204613F07FFE13F0D5FE00BFF0
S315080160E080B582B000AF78603960FFF74FFDFEE7F3
S315080160F080B500AFFFF74AFDFEE700BF90B583B054
S3150801610000AF786045F22420FFF742FF03461C469C
S31508016110204600F069F87B681C60786800F07CF816
S3150801612002467B685A607B685A687B689A607B6816
S3150801613018460C37BD4690BD80B483B000AF786071
S315080161407B6801225A627B6800221A707B681846AE
S315080161500C37BD465DF8047B704700BF80B483B039
S3150801616000AF786039607B683A681A607B680022FC
S315080161701A717B6818460C37BD465DF8047B704773
S3150801618080B584B000AFF8600B467A607B81F86809
S315080161907A897B680549FAF76FFA054AFB681A6036
S315080161A0FB6818461037BD4680BD00BFA05A0608D1
S315080161B0FC61060880B584B000AFF8600B467A60CA
S315080161C07B81F8687A897B680549FAF755FA054AA1
S315080161D0FB681A60FB6818461037BD4680BD00BFCC
S315080161E0905A0608E461060880B582B000AF786067
S315080161F07B68181D7B6803F11C014FF4AF733C22C1
S31508016200FFF720FD034A7B681A607B681846083742
S31508016210BD4680BD1462060880B582B000AF7860BD
S315080162207B681B68184600F02DF8034618460837A0
S31508016230BD4680BD80B582B000AF7860074A7B68ED
S315080162401A600023002B04D045F22421786813F044
S31508016250C3FD7B6818460837BD4680BD146206082B
S3150801626080B582B000AF78607868FFF7E3FF45F242
S315080162702421786813F0B0FD7B6818460837BD46B7
S3150801628080BD00BFB0B582B000AF78607B680433CB
S31508016290184600F019F8054629463C20FFF752FC36
S315080162A00446002C04D0204600F01AF8234607E0DD
S315080162B0234605E029462046FFF750FC13F0E4FD86
S315080162C018460837BD46B0BD80B582B000AF7860C4
S315080162D07868FFF7D7FC034618460837BD4680BDE0
S315080162E080B582B000AF78607B681846F1F7BEFFCB
S315080162F07B6800229A627B680022DA627B68002248
S315080163001A637B6800225A637B6800229A637B685A
S3150801631018460837BD4680BD80B582B000AF7860A3
S3150801632039607B68012B08D13B684FF6FF729342AF
S3150801633003D104490448F1F745FF00BF0837BD46B4
S3150801634080BD00BFBC610608541F002080B500AFA0
S315080163504FF6FF710120FFF7DFFF80BD80B582B0E0
S3150801636000AF786039603868F8F7F0FE00BF083783
S31508016370BD4680BD80B483B000AF78607B68054AAE
S31508016380A2FB0323DB0818460C37BD465DF8047BE0
S31508016390704700BFCDCCCCCC80B582B000AF786059
S315080163A07868012380220D49FAF766F90C4A7B6859
S315080163B01A607B6838331846F2F794F97B681846F1
S315080163C0FAF79AF97B6805E07B681846FAF7F2F955
S315080163D013F05AFD18460837BD4680BD5C5A0608B3
S315080163E0C863060880B584B000AF78604FF47A7048
S315080163F0FFF7C0FFF8607B68F9681846FFF7AEFF3C
S315080164007B6838331846F2F715FAF4E780B582B097
S3150801641000AF7860094A7B681A607B681846FAF704
S31508016420C9F90023002B03D04821786813F0D4FC5E
S315080164307B6818460837BD4680BD00BFC863060895
S3150801644080B582B000AF78607868FFF7DFFF482132
S31508016450786813F0C1FC7B6818460837BD4680BDCD
S3150801646080B400AF064B4FF080521A60BFF34F8FCE
S31508016470BFF36F8F00BFBD465DF8047B704700BF51
S3150801648004ED00E080B500AFF8F780FF0346184633
S3150801649080BD00BF80B483B000AF78607A681346C8
S315080164A09B0013445B0018460C37BD465DF8047B18
S315080164B0704700BF80B582B000AF786039600822A6
S315080164C03968786841F004F80346002B14BF0123A4
S315080164D00023DBB218460837BD4680BD90B583B0A8
S315080164E000AF78607868012380222449FAF7C4F856
S315080164F0234A7B681A607B6838331846F4F7CCF967
S315080165007B68012283F838227B68002283F83922C6
S315080165101C4A7B6813600820FFF73AFD03461C46B0
S3150801652008220A212046F9F70DFF7B68C3F83C4289
S315080165300820FFF72DFD03461C4600212046FAF7E1
S3150801654039F87B68C3F834427B681846FAF7D4F8F9
S315080165507B680FE00821204613F03EFC04E0082181
S31508016560204613F039FCFFE77B681846FAF722F94B
S3150801657013F08AFC18460C37BD4690BD705A0608BA
S3150801658020640608741F002080B582B000AF3B4620
S3150801659083E80300084B1B68D3F83C321B680833B1
S315080165A01B68054A1268D2F83C22394610469847B4
S315080165B000BF0837BD4680BD741F002080B584B072
S315080165C000AF78607B689B6B2C49184611F096FCE6
S315080165D07B6838331846F4F7ADF9F4F7D9F90A2088
S315080165E0FFF7C8FEF8607B68D3F834324FF0FF3105
S315080165F01846F9F75DFF0346002BF4D0786800F0DA
S3150801660035F90346002B0CBF01230023DBB2002B0F
S31508016610E9D07B6838331846F4F7CEF90346002BE0
S3150801662022D07B6803F5107315491846FFF742FF18
S315080166300346002B11D07B68383301211846F4F73D
S31508016640D1F97B68F9681846FFF788FE7B68383305
S3150801665000211846F4F7C6F906E07B68D3F8343208
S315080166601846F9F73DFF08E0064B1A687B6803F5FB
S3150801667010731946104600F059F9B4E7D5680108B0
S315080166800C640608741F002080B58AB000AFF86054
S31508016690B9607A603B607B681B785BB2002B58DA7D
S315080166A07B681B7803F06003002B22D17B685B783B
S315080166B0062B40F08F807B685B889BB2B3F5085F39
S315080166C007D13B68464A1A6041223B6B1A8001236F
S315080166D081E07B685B889BB2B3F5045F07D13B68B1
S315080166E0404A1A6009223B6B1A80012373E0002392
S315080166F071E07B681B7803F06003202B6AD17B6805
S315080167005B78012B07D13B68374A1A603B6B082235
S315080167101A8001235FE07B685B78022B09D1FB684D
S3150801672003F239223B681A6001223B6B1A80012366
S3150801673051E07B685B78032B09D1FB6803F50E7280
S315080167403B681A6001223B6B1A80012343E0002350
S3150801675041E07B681B7803F06003202B38D17B6806
S315080167605B78092B19D13B6B1B88012B13D13B682D
S315080167701B681B7887F8203001233B7507F118033E
S3150801678007F1200292E8030083E8030007F11403E6
S31508016790184600F0DFF801231DE07B685B780A2BB9
S315080167A009D17B685B889BB21B12DAB2FB6883F856
S315080167B0392201230FE07B685B780B2B08D17B68B4
S315080167C05B889BB2DAB2FB6883F83822012302E0C0
S315080167D0002300E0022318462837BD4680BD00BFC6
S315080167E03C5B0608805B06080C64060880B586B023
S315080167F002AFF860B9601346FB800B4B0093082380
S3150801680003228121B86811F01FF90021002000F048
S315080168100FF8064B1F220121B86811F096FC00BF3C
S315080168201037BD4680BD00BF31680108A16801085F
S3150801683080B584B000AF78600B46FB700023FB601F
S31508016840094B1B68D3F834321A4607F10C0319466B
S315080168501046F9F75DFEFB68012B01D1FFF700FE33
S3150801686000BF1037BD4680BD741F002080B582B0B9
S3150801687000AF78607B68D3F83C027B6803F5107338
S315080168804FF0FF321946F9F7DFFD0346002B01D019
S31508016890002300E0012318460837BD4680BD00BF26
S315080168A080B586B002AFF860B9607A603B60084B84
S315080168B01868BB6901933B6800937B68BA68F968F5
S315080168C0FFF7E2FE034618461037BD4680BD00BFF6
S315080168D0741F002080B582B000AF78600B467B80BC
S315080168E0054B1B687A8879681846FFF77FFF00BF52
S315080168F00837BD4680BD00BF741F002098B500AF9C
S31508016900094B1B689B6B184611F09AF8064B1C68D5
S31508016910FFF7B8FD03461846FFF7BCFD0346C4F862
S31508016920303200BF98BD00BF741F002080B582B009
S3150801693000AF78603960064B1B68986B08233A6884
S31508016940812111F0A3F8034618460837BD4680BDD4
S31508016950741F002080B582B000AF78600022796884
S315080169600348F9F78BFD00BF0837BD4680BD00BF58
S31508016970781F002080B582B000AF78607B680C2252
S3150801698040211846F9F7DEFC034A7B681A607B68E2
S3150801699018460837BD4680BD3864060880B582B0FA
S315080169A000AF7860094A7B681A607B681846F9F770
S315080169B001FF0023002B04D04FF41271786813F0FD
S315080169C00BFA7B6818460837BD4680BD2064060861
S315080169D080B582B000AF78607868FFF7DFFF4FF4C3
S315080169E01271786813F0F8F97B6818460837BD46BE
S315080169F080BD00BF80B582B000AF7860094A7B6868
S31508016A001A607B681846F9F7C1FC0023002B03D0EE
S31508016A100821786813F0E0F97B6818460837BD46FF
S31508016A2080BD00BF3864060880B582B000AF7860C3
S31508016A307868FFF7DFFF0821786813F0CDF97B68DE
S31508016A4018460837BD4680BD80B582B000AF78606C
S31508016A5039607B68012B19D13B684FF6FF72934267
S31508016A6014D119491948F1F7ADFB194B1B680133C4
S31508016A70174A1360164B1B68012B0CBF0123002311
S31508016A80DBB2002B02D01348FFF774FF7B68002B9B
S31508016A9015D13B684FF6FF72934210D10C4B1B6818
S31508016AA0013B0B4A13600A4B1B68002B0CBF0123E1
S31508016AB00023DBB2002B02D00648FFF79BFF00BF7D
S31508016AC00837BD4680BD00BF146406086C1F002048
S31508016AD0801F0020781F002080B500AF4FF6FF7198
S31508016AE00120FFF7B1FF80BD80B500AF4FF6FF71FA
S31508016AF00020FFF7A9FF80BD90B583B000AF78608D
S31508016B00786801234FF480721949F9F7B5FD194AD6
S31508016B107B681A607B68002283F838207B683C33DF
S31508016B2015491846F4F736F8144A7B6813600820A5
S31508016B30FFF72EFA03461C4601220A212046F9F7D9
S31508016B4001FC7B681C647B681846F9F7D5FD7B68F0
S31508016B500AE00821204613F03FF9FFE77B6818464B
S31508016B60F9F728FE13F090F918460C37BD4690BD83
S31508016B70805A0608E8640608E96B01088C1F00209C
S31508016B8080B584B000AF78600A20FFF7F3FBF860A0
S31508016B907B68F9681846FFF7E1FB7B683C331846C2
S31508016BA0F4F77CF803461846FAF706FD0020FBF7CA
S31508016BB059F90346002BEBD00A4B1B68184600F01F
S31508016BC04FF80346002B0CBF01230023DBB2002B31
S31508016BD0DED07B6893F8383019460020FBF7F4F8C5
S31508016BE0D6E700BF8C1F002080B58AB000AF0346E8
S31508016BF0B9607A60FB737B68082B14D1BA6807F110
S31508016C0020031068516803C300233B7507F1180375
S31508016C1007F1200292E8030083E8030007F1140351
S31508016C20184600F033F800BF2837BD4680BD00BFBF
S31508016C3080B582B000AF0346FB71084B1B681B6C1D
S31508016C401B680C331B68054A1268106CF91D002273
S31508016C50984700BF0837BD4680BD00BF8C1F00207E
S31508016C6080B582B000AF78607B68186C7B68383372
S31508016C7000221946F9F7E8FB0346002B01D0002349
S31508016C8000E0012318460837BD4680BD80B582B0AD
S31508016C9000AF786079680348F9F7A2FB00BF0837A7
S31508016CA0BD4680BD781F002080B582B000AF7860F0
S31508016CB0094A7B681A607B681846F9F77BFD002349
S31508016CC0002B03D04421786813F086F87B681846B0
S31508016CD00837BD4680BD00BFE864060880B582B0A6
S31508016CE000AF78607868FFF7DFFF4421786813F012
S31508016CF073F87B6818460837BD4680BD80B582B0F3
S31508016D0000AF786039607B68012B19D13B684FF673
S31508016D10FF72934214D119491948F1F753FA194BDD
S31508016D201B680133174A1360164B1B68012B0CBFEE
S31508016D3001230023DBB2002B02D01348FFF71AFE0A
S31508016D407B68002B15D13B684FF6FF72934210D131
S31508016D500C4B1B68013B0B4A13600A4B1B68002B43
S31508016D600CBF01230023DBB2002B02D00648FFF734
S31508016D7041FE00BF0837BD4680BD00BFDC6406087A
S31508016D80841F0020801F0020781F002080B500AFD7
S31508016D904FF6FF710120FFF7B1FF80BD80B500AF47
S31508016DA04FF6FF710020FFF7A9FF80BD80B584B0BB
S31508016DB000AFF860B9607A607B68002B01D10023C7
S31508016DC005E07A68B968F86840F082FB0346184618
S31508016DD01037BD4680BD00BF80B400AF4FF00043F9
S31508016DE01846BD465DF8047B704700BF80B400AF06
S31508016DF06FF000431846BD465DF8047B704700BF37
S31508016E0080B483B000AF78607B685B6818460C373E
S31508016E10BD465DF8047B704780B483B000AF7860E7
S31508016E207B681B6818460C37BD465DF8047B7047BE
S31508016E3080B485B000AFF860B9607A60FB687A689B
S31508016E401A60FB68BA685A60FB6818461437BD466B
S31508016E505DF8047B704700BF80B483B000AF7860EB
S31508016E60034B18460C37BD465DF8047B704700BFD7
S31508016E70C59D1C8180B485B000AFF860B960134622
S31508016E80FB71FB79BA685340BB60064ABB6802FBD3
S31508016E9003F3BB60BB6818461437BD465DF8047B2F
S31508016EA0704700BF9301000180B483B000AF7860DA
S31508016EB039603B6818460C37BD465DF8047B704758
S31508016EC080B483B000AF786039607B685A683B68E4
S31508016ED0134418460C37BD465DF8047B704700BF5E
S31508016EE080B483B000AF78607B681B6818460C379E
S31508016EF0BD465DF8047B704790B583B000AF7860F6
S31508016F00396000213868FFF7DBFF04463868FFF768
S31508016F10E7FF034619463868FFF7D2FF03461946C5
S31508016F20204601F06BFC034618460C37BD4690BD5A
S31508016F3080B485B000AFF8603B1D83E80600FB68A6
S31508016F4014333A1D92E8030083E8030000BF14379F
S31508016F50BD465DF8047B704780B483B000AF7860A6
S31508016F607B6893F8243018460C37BD465DF8047BD8
S31508016F70704700BF80B483B000AF78607B68002299
S31508016F801A607B68124A043392E8030083E8030017
S31508016F907B680F4A0C3392E8030083E803007B6899
S31508016FA00B4A143392E8030083E803007B68084A16
S31508016FB01C3392E8030083E803007B68002283F808
S31508016FC0242000BF0C37BD465DF8047B704700BF1F
S31508016FD0901F002080B582B000AF786039603968AB
S31508016FE0786800F04BF800BF0837BD4680BD00BF82
S31508016FF080B483B000AF78607B6800229A607B68B2
S315080170000022DA607B681A687B685A6000BF0C3711
S31508017010BD465DF8047B704780B483B000AF7860E5
S315080170207B689B6818460C37BD465DF8047B70473C
S3150801703080B483B000AF78607B689B68002B0CBF77
S3150801704001230023DBB218460C37BD465DF8047BE5
S31508017050704700BF80B483B000AF78607B689A68D8
S315080170607B685B699A420CBF01230023DBB2184691
S315080170700C37BD465DF8047B704700BF80B582B00A
S3150801708000AF786039603968786800F029F80346F6
S31508017090002B05D10F4B104AFF2110483EF0F8FC92
S315080170A07B685B68002B05D07B685B681A463B6882
S315080170B01A6002E03B6800221A607B683A685A60E7
S315080170C07B689B685A1E7B689A6000BF0837BD4675
S315080170D080BD00BF4865060894720608346506082F
S315080170E080B485B000AF786039603B687A68126809
S315080170F09B1AFB60FB68002B0CDB7B685B69013B19
S315080171007A68126902FB03F31A46FB689A4201DBA5
S31508017110012300E00023FB720123BB72FB7A002BDB
S3150801712004D0BB7A002B01D0012300E000231846C6
S315080171301437BD465DF8047B704700BF80B483B041
S3150801714000AF78607B6818460C37BD465DF8047B4E
S31508017150704700BF80B483B000AF78607B6818467B
S315080171600C37BD465DF8047B704700BF80B483B019
S3150801717000AF78607B6818460C37BD465DF8047B1E
S31508017180704700BF80B483B000AF78607B6818464B
S315080171900C37BD465DF8047B704700BF80B582B0E9
S315080171A000AF786039607B683A681A607B68043397
S315080171B01846FFF7C3FF7B6818460837BD4680BDEA
S315080171C080B483B000AF78607B689B6818460C373B
S315080171D0BD465DF8047B704780B483B000AF786024
S315080171E07B68DB6818460C37BD465DF8047B70473B
S315080171F080B483B000AF786039607B68DB68191D9D
S315080172007A68D1603A681A6000BF0C37BD465DF8E6
S31508017210047B704790B585B000AFF860B9607A60B5
S31508017220F868F4F761FA03465A1CFB681B689A4228
S3150801723006D91B4B1B4A40F29F111B483EF028FCFE
S31508017240F868FFF7C9FF0246BB689A4214BF0123D3
S315080172500023DBB2002B16D0FB68DB681A1DFB681E
S31508017260DA60F868FFF7B8FF03461C1FF868FFF7EE
S31508017270B3FF03461A462146B86801F0D5FABB683A
S315080172807A681A6006E0FB68DB68191DFA68D1603E
S315080172907A681A60BB6818461437BD4690BD00BFA8
S315080172A064650608387206088065060880B586B0E2
S315080172B000AFF860B9607A60F868FFF78DFF03469A
S315080172C0BA681946786801F0C7FA7968B86801F0AA
S315080172D0DBFA03467B61FB68DA687B699B005B42E4
S315080172E01A44FB68DA60BB6818461837BD4680BD84
S315080172F080B582B000AF78607868F4F7F5F9024690
S315080173007B681B689A420CBF01230023DBB218462F
S315080173100837BD4680BD00BF80B582B000AF786032
S315080173207B6804331846FFF715FF7B68184608374C
S31508017330BD4680BD80B584B000AFF860B9607A609B
S31508017340FB6879681846FFF729FFFB68BA689A60EF
S31508017350FB68BA68DA60FB6818461037BD4680BD17
S3150801736080B483B000AF78607B689A687B68DA601E
S3150801737000BF0C37BD465DF8047B704780B483B007
S3150801738000AF786039607B681A6B7B689B6B134426
S315080173901A463B68D31A18460C37BD465DF8047B76
S315080173A0704700BF80B483B000AF78607B681A6805
S315080173B07B685B689A420CBF01230023DBB218463F
S315080173C00C37BD465DF8047B704700BF80B483B0B7
S315080173D000AF78607B6802221A727B6802225A72B1
S315080173E07B6800221A607B6800225A6000BF0C374E
S315080173F0BD465DF8047B704780B582B000AF786002
S3150801740039607B6800221A607B683A685A607B6833
S3150801741000229A607B680C331846FFF78FFE7B685B
S3150801742018460837BD4680BD80B584B000AFF86000
S31508017430B9607A607868FFF7C9FFBB687A681A602D
S31508017440FB681B685A1CFB681A6000BF1037BD46EB
S3150801745080BD00BF80B487B000AFF860B9607A60BC
S31508017460BB681B687B617B681B683B61BB683A69C3
S315080174701A603B695B7AC3F101023B6953F8222022
S315080174807B681A607B691A683B691A607B695A6866
S315080174903B695A607B691A7A3B691A7200BF1C37C5
S315080174A0BD465DF8047B704780B584B000AF78604F
S315080174B039603B681B683A681268527A53F8223079
S315080174C0FB60FB68002B1DD0FB685B7A022B18D08A
S315080174D0FB681B7A1A46FB685B7AC3F101039A4279
S315080174E003D1FB6802221A7203E0FB685A7AFB6829
S315080174F01A72FB685B7A1A46FB6853F82230FB60FE
S31508017500DFE700BF3B681B681B7A022B06D13B6885
S315080175101B683A681268527A1A7239E03B681B6826
S315080175205A7A3B681B681B7A9A4204D03B681B68E7
S3150801753002221A722CE03B681B681A7A3B681B68A0
S3150801754039680968497A53F821305B7A9A4208D131
S315080175503B681B685B7A1A463968786800F03EF81A
S3150801756016E03B681B68597A3B681B683A681268DB
S31508017570527A53F822303A681268527AC2F10102F5
S3150801758053F822305B7A0A463968786800F058F869
S3150801759000BF1037BD4680BD80B487B000AFF86024
S315080175A0B9601346FB71BB687B617B69002B0DD003
S315080175B097F907207B6953F82230002B06D097F9F3
S315080175C007207B6953F822307B61EEE77B69184611
S315080175D01C37BD465DF8047B704700BF80B487B091
S315080175E000AFF860B9601346FB71BB681B68FA798E
S315080175F053F822307B61BB681B68FA79F979C1F1C6
S315080176000100796951F8201043F82210FB79C3F17A
S315080176100102BB6819687B6943F82210BB681B68BD
S3150801762002221A72BB687A691A60BB681B68022251
S315080176301A7200BF1C37BD465DF8047B704700BF50
S3150801764080B487B000AFF860B96011461A460B4698
S31508017650FB711346BB71BB681B68FA7953F8223074
S31508017660FA79C2F1010253F822307B61BB681B68C3
S31508017670FA7953F82230BA79022A05D0B979FA7912
S31508017680914201D0FA7900E002221A72BB681B689E
S31508017690FA7953F82230FA79C2F10102F87979694F
S315080176A051F8201043F82210FA79BB681B68F9795A
S315080176B053F821107B6943F82210BB681B68BA7915
S315080176C0022A08D0B979FA79914204D1FA79C2F134
S315080176D00102D2B200E002221A72BB681B68FA796B
S315080176E0F979C1F10100796951F8201043F822109E
S315080176F0FB79C3F10102BB6819687B6943F822105B
S31508017700BB687A691A60BB681B6802221A7200BFD5
S315080177101C37BD465DF8047B704700BF80B582B053
S3150801772000AF78607B68184601F0D0F87B68184688
S315080177300837BD4680BD00BF80B582B000AF78600E
S315080177407B68184601F016F97B6818460837BD4666
S3150801775080BD00BF90B5A3B000AF78607B681846BE
S31508017760FFF7DCFF7C6807F10C035F491846F0F761
S3150801777029FD02237B6107F1140207F10C0319465F
S31508017780204601F06DF97C6807F118035749184638
S31508017790F0F718FD01233B6207F1200207F11803F0
S315080177A01946204601F05CF97C6807F12403504923
S315080177B01846F0F707FD0523FB6207F12C0207F1CE
S315080177C024031946204601F04BF97C6807F130037A
S315080177D048491846F0F7F6FC0423BB6307F138025B
S315080177E007F130031946204601F03AF97C6807F19A
S315080177F03C0341491846F0F7E5FC03237B6407F18E
S31508017800440207F13C031946204601F029F97C6830
S3150801781007F1480339491846F0F7D4FC06233B65B6
S3150801782007F1500207F148031946204601F018F9F5
S315080178307C6807F1540332491846F0F7C3FC07235D
S31508017840FB6507F15C0207F154031946204601F06E
S3150801785007F97C6807F160032A491846F0F7B2FC74
S315080178600823BB6607F1680207F16003194620463B
S3150801787001F0F6F87C6807F16C0323491846F0F71E
S31508017880A1FC09237B6707F1740207F16C0319460A
S31508017890204601F0E5F87C6807F178031B4918468C
S315080178A0F0F790FC0A23C7F8803007F1800207F148
S315080178B078031946204601F0D3F87A680023C7F8F9
S315080178C0843007F184031946104601F0EBF87B680A
S315080178D005E07B681846FFF72FFF12F0D5FA184620
S315080178E08C37BD4690BD00BFA4650608AC65060881
S315080178F0B4650608BC650608C0650608C8650608B5
S31508017900D0650608DC650608EC650608F465060810
S3150801791080B582B000AF78607B68184601F00AF935
S315080179207B6818460837BD4680BD00BF80B582B062
S3150801793000AF78607B68184601F024F97B68184621
S315080179400837BD4680BD00BF90B58DB000AF7860E1
S315080179507B681846FFF7DCFF7C6807F108032249B4
S315080179601846F0F72FFC04233B6107F1100207F1D3
S3150801797008031946204601F063F97C6807F11403E8
S315080179801A491846F0F71EFC0123FB6107F11C0290
S3150801799007F114031946204601F052F97C6807F1EC
S315080179A0200313491846F0F70DFC0223BB6207F1C1
S315080179B0280207F120031946204601F041F97A68A1
S315080179C00023FB6207F12C031946104601F05AF908
S315080179D07B6805E07B681846FFF7A8FF12F054FAA2
S315080179E018463437BD4690BDFC6506080466060888
S315080179F01066060880B582B000AF78607B681846C5
S31508017A0001F07AF97B6818460837BD4680BD00BF84
S31508017A1080B582B000AF78607B68184601F094F9AA
S31508017A207B6818460837BD4680BD00BF90B58BB048
S31508017A3000AF78607B681846FFF7DCFF7C6807F1C2
S31508017A400C031A491846F0F7BDFB00237B6107F1C1
S31508017A50140207F10C031946204601F0D3F97C6894
S31508017A6007F1180312491846F0F7ACFB00233B62ED
S31508017A7007F1200207F118031946204601F0C2F959
S31508017A807A6801237B6207F124031946104601F03F
S31508017A90DBF97B6805E07B681846FFF7B9FF12F04A
S31508017AA0F3F918462C37BD4690BD00BF1C6606087B
S31508017AB02866060880B582B000AF78607B681846EC
S31508017AC001F0C6FA7B6818460837BD4680BD00BF77
S31508017AD080B58EB000AF78607B68184601F0E0F992
S31508017AE0796806237B6107F1080307F11402184632
S31508017AF001F05EFA07F108031846FFF7DBFF79681C
S31508017B0009237B6207F1180307F12402184601F0DD
S31508017B104FFA07F118031846FFF7CCFF79680A23CD
S31508017B207B6307F1280307F13402184601F040FA8E
S31508017B3007F128031846FFF7BDFF7B6805E07B6858
S31508017B40184601F0D3F912F09FF918463837BD46A1
S31508017B5080BD00BF90B587B000AF7860396079689D
S31508017B6007F108033A46184601F07EFA7A6807F1E2
S31508017B7010031146184601F0B1FA07F1100207F190
S31508017B8008031146184601F0B7FA03461C4607F1E1
S31508017B901003184601F05CFA002C01D0002400E01D
S31508017BA0012407F10803184601F052FA234606E0B4
S31508017BB007F10803184601F04BFA12F065F9184661
S31508017BC01C37BD4690BD00BF80B500AFF6F7DCFA9D
S31508017BD000BF80BD80B582B000AF7860F2F726FE9F
S31508017BE002467B681A607B680022C3F8C0237B685B
S31508017BF0012283F8C4237B680022C3F8E8237B6843
S31508017C00002283F80C247B6818460837BD4680BDD8
S31508017C1080B483B000AF786039603B681A687B68C6
S31508017C201B689A4201D23B6800E07B6818460C370C
S31508017C30BD465DF8047B704780B582B000AF7860B9
S31508017C407B6819462820FDF77DFF0346002B02D0E5
S31508017C501846FEF771FA7B6818460837BD4680BD97
S31508017C6080B483B000AF78607B6818460C37BD4690
S31508017C705DF8047B704700BF80B582B000AF7860BD
S31508017C807B68184601F07CFA7B68A4331846F0F73E
S31508017C9029FB7B6818460837BD4680BD80B582B08A
S31508017CA000AF78607B68184601F092FA7B6818463F
S31508017CB00837BD4680BD00BF90B59BB000AF786060
S31508017CC07B681846FFF7D8FF7C680223FB6007F13B
S31508017CD0100345491846F0F775FA07F1100207F13E
S31508017CE00C031946204601F0D1FA7C680323BB61CF
S31508017CF007F11C033D491846F0F764FA07F11C021F
S31508017D0007F118031946204601F0C0FA7C680423D6
S31508017D107B6207F1280336491846F0F753FA07F14B
S31508017D20280207F124031946204601F0AFFA7C68B8
S31508017D3005233B6307F134032E491846F0F742FA47
S31508017D4007F1340207F130031946204601F09EFA7D
S31508017D507C680623FB6307F1400327491846F0F7B9
S31508017D6031FA07F1400207F13C031946204601F0B2
S31508017D708DFA7C680723BB6407F14C031E49184634
S31508017D80F0F720FA07F14C0207F148031946204695
S31508017D9001F07CFA7C6808237B6507F158031749CB
S31508017DA01846F0F70FFA07F1580207F15403194676
S31508017DB0204601F06BFA7C6807F160031049184602
S31508017DC0F0F700FA07F160031946204601F080FA38
S31508017DD07B6805E07B681846FFF760FF12F054F8E8
S31508017DE018466C37BD4690BD3866060850660608C3
S31508017DF06866060888660608A4660608BC66060854
S31508017E00DC66060880B500AFF2F7CEFDFDF7BEFECB
S31508017E1000BF80BD80B500AFFFF7D6FEF2F7B8FD0B
S31508017E2000BF80BD80B483B000AF78607B681B78E3
S31508017E3018460C37BD465DF8047B704780B483B09D
S31508017E4000AF786039607B683A681A6000BF0C3702
S31508017E50BD465DF8047B704780B483B000AF786097
S31508017E607B681B7E18460C37BD465DF8047B704758
S31508017E7080B483B000AF78607B685B6918460C37BD
S31508017E80BD465DF8047B704780B582B000AF786067
S31508017E90094A7B681A607B681846F8F78BFC002349
S31508017EA0002B03D04421786811F096FF7B681846A9
S31508017EB00837BD4680BD00BFE467060880B582B0B5
S31508017EC000AF78607868FFF7DFFF4421786811F022
S31508017ED083FF7B6818460837BD4680BD90B583B0D9
S31508017EE000AF78607B6802224FF4C071184601F032
S31508017EF00FFA144A7B681A603820FEF749F80346D8
S31508017F001C467B6838331946204600F04FF97B68D2
S31508017F105C647B68002283F848207B681846F8F77A
S31508017F20EBFB7B680AE03821204611F055FFFFE795
S31508017F307B681846FFF7A8FF11F0A6FF18460C370D
S31508017F40BD4690BDCC67060880B582B000AF7860A3
S31508017F507B68184601F0FAF9786800F001F8F7E746
S31508017F6080B584B000AF78607B6893F84830012B00
S31508017F7013D0022B2AD0002B3CD1786800F040F8A8
S31508017F800346FB73FB7B012B03D17B68012283F834
S31508017F904820FB7B002B2AD12EE0786800F042F8B6
S31508017FA00346FB73FB7B012B04D17B68022283F812
S31508017FB0482021E0FB7B022B04D17B68002283F851
S31508017FC0482019E0FB7B002B13D115E0786800F0F7
S31508017FD06FF80346FB73FB7B012B04D17B680022F8
S31508017FE083F8482008E0FB7B002B04D002E000BFA1
S31508017FF0BAE700BFB8E700BF1037BD4680BD00BF6E
S3150801800080B483B000AF78607B6893F83830002B72
S3150801801001D1012300E0002318460C37BD465DF85F
S31508018020047B704780B584B000AF78607B685B6C71
S31508018030184600F007F97B685B6C1846FFF7F2FEF5
S31508018040034683F00103DBB2002B09D07B685B6C26
S31508018050184600F02BF9786800F066F8022307E065
S3150801806002233B7307F10C03184601F081F901233A
S3150801807018461037BD4680BD80B582B000AF78601E
S315080180807B6804331846FFF7D7FD7B68184608371F
S31508018090BD4680BD80B582B000AF78607B68043389
S315080180A01846FFF7DDFD7B6818460837BD4680BDD3
S315080180B080B58EB000AF78607B6893F83830012BB5
S315080180C006D17B685B6C184600F0F0F8012327E0BF
S315080180D07B6893F83830022B19D17B685B6C18469C
S315080180E000F0F6F803467B6307F108031846FFF725
S315080180F0C3FF04233B727B6BFB6007F10803184639
S3150801810001F044F907F108031846FFF7C3FF0023F6
S3150801811006E007F108031846FFF7BCFF11F0B4FEA5
S3150801812018463837BD4680BD80B592B000AF786035
S3150801813007F110031846FFF79FFF03233B747B687B
S315080181405B6C184600F028F903467B6407F13C038B
S3150801815007F144021449184601F026F907F13C02D1
S3150801816007F1100304331146184601F05BF907F1CC
S315080181701003184601F00AF903233B7307F10C03B0
S31508018180184601F0F5F807F110031846FFF782FFC4
S3150801819006E007F110031846FFF77CFF11F074FE9D
S315080181A04837BD4680BD00BFFC210020B0B582B06E
S315080181B000AF786039607B6801221A704DF6044079
S315080181C0FDF7E6FE03461C46204601F043F97B68A7
S315080181D05C60FDF7A7FD02467B689A6040F6C81009
S315080181E0FDF7D6FE03461C467B6899687B685B6883
S315080181F01A46204601F058F925462020FDF7C8FE03
S3150801820003461C462A463968204600F0D3F87B689F
S31508018210DC607B6810331846F0F728F87B680CE0B9
S3150801822040F6C811204611F0D7FD11F02DFE202188
S31508018230204611F0D1FD11F027FE18460837BD4634
S31508018240B0BD00BF80B582B000AF78607B680122FF
S315080182501A707B68DB6814491846FFF7EFFD7B68DF
S31508018260DB68184600F0F4F87B68DB681846FFF708
S31508018270F3FD0346002B03D07B6800221A7010E039
S315080182807B68DB68184600F04BF97B68DB681846A3
S31508018290FFF7E2FD0346002B03D07B6800221A7024
S315080182A000BF0837BD4680BDD05A060880B582B0E2
S315080182B000AF78607B689B68184601F023F97B68F4
S315080182C05B68184601F032F900BF0837BD4680BD24
S315080182D0F0B589B000AF78607B68DC687B689B681D
S315080182E01A4607F108031146184601F02DF97B686D
S315080182F09B68184601F038F9024607F10803194642
S31508018300204600F0A1F97B6810331846FEF732FEC5
S315080183107B68DB68184600F013FAF861FB69002BE5
S3150801832033D07B689B68184601F01EF90346184648
S3150801833001F03EF903467A6802F1100003F12004C0
S3150801834002461946D1F800E04E688D68C968C2F838
S3150801835000E056609560D16010331030A342EFD12A
S315080183600246196811601B7913717B6803F11004C1
S3150801837007F11403F969184601F026F907F1140300
S3150801838093E806002046FEF7D3FD7B6810331846AE
S315080183902437BD46F0BD00BF80B582B000AF786016
S315080183A07B68DB681846FFF763FD034618460837FE
S315080183B0BD4680BD90B585B000AFF860B9607A60FA
S315080183C0FB68224A1A60FB68BA685A604FF4AA60C9
S315080183D0FDF7DEFD03461C462046FFF7FBFBFB685F
S315080183E09C604820FDF7D4FD03461C46204601F053
S315080183F001F9FB68DC60FB687A681A61FB68002290
S315080184005A61FB6800221A764FF48070FDF7C0FDA9
S3150801841003461C4620464FF480731A4600213FF056
S3150801842087F9FB68DC61FB68DB690021184601F006
S31508018430F3F8FB6806E04FF4AA61204611F0CCFC7C
S3150801844011F022FD18461437BD4690BDEC660608A4
S3150801845080B582B000AF78607B6800221A767868AA
S3150801846000F080F9FFF7CEFC7B689A687B681B6889
S31508018470194610460EF09EFB03461A467B685A615A
S31508018480FFF7C8FC7B685B69012B03D07B68012277
S315080184901A7629E0FFF7B6FC7B689B6818460EF04A
S315080184A0A9FB03461A467B685A61FFF7B3FC7B684A
S315080184B05B69012B03D07B6801221A7614E0FFF76A
S315080184C0A1FC7B689B6818460EF0DEFB03461A463C
S315080184D07B685A61FFF79EFC7B685B69012B03D0B9
S315080184E07B6801221A7600BF0837BD4680BD00BFEA
S315080184F080B483B000AF78607B681B685B69002B2A
S3150801850004D07B681B685B69012B01D1012300E05C
S31508018510002318460C37BD465DF8047B704700BF3B
S3150801852080B586B000AF78607B681B7E002B40F073
S3150801853086807B683B61FFF765FC7B689B6818460C
S315080185400EF02EFCFFF766FC7B68DB69184601F026
S315080185507BF80346BB60FFF755FC7B689868B968EA
S3150801856007F1080304331A460EF034FC03461A468B
S315080185707B685A61FFF74EFC07F110031846FFF7AF
S31508018580B7FF034683F00103DBB2002B03D07868FB
S3150801859000F004F954E07B681B6907F108021146EB
S315080185A0184601F05DF803467B617B69012B05D10D
S315080185B07B6808225A61786800F0F0F87B69002B1D
S315080185C033D0FFF71FFC7B689868B96807F1080381
S315080185D004331A460EF0FEFB03461A467B685A61B7
S315080185E0FFF718FC07F110031846FFF781FF03464A
S315080185F083F00103DBB2002B03D0786800F0CEF8D4
S315080186001EE07B681B6907F108021146184601F04E
S315080186104DF803467B617B69012BCFD17B68082224
S315080186205A61786800F0BAF80AE0FFF7EBFB7B6855
S315080186309B6818460EF002FDFFF7ECFB00E000BF51
S315080186401837BD4680BD00BF80B590B000AFF86150
S31508018650B9617A61FB691B7E002B6DD1FB699B6849
S3150801866018460EF009FD07F12C03B969184600F002
S3150801867087FF07F12003B969184600F081FF07F162
S315080186802003184601F036F802467B699A4214BF60
S3150801869001230023DBB2002B07D03B4607F120015B
S315080186A00022184601F032F8E9E73B4607F12001B6
S315080186B00022184601F02AF807F1200207F12C03D7
S315080186C01146184601F034F80346002B35D007F158
S315080186D02C03184601F03EF80346184600F068FFD9
S315080186E0F863F86BEFF7AAFDB863F86BFEF734FC8D
S315080186F00346002B07D0B86BFEF78EFB0346002B0B
S3150801870001D0012300E00023002B0DD0FB69DB68B3
S31508018710B96B184601F02AF8FB699A68FB69DB68A8
S31508018720194610460EF0B6FC3B4607F12C0100220D
S31508018730184600F0EBFFBFE700BF4037BD4680BDD6
S3150801874080B483B000AF78607B681B7E002B01D0B4
S31508018750002301E07B68DB6818460C37BD465DF8E7
S31508018760047B7047B0B584B000AF78607B685B68FE
S315080187700433FB607B689C68F868FEF741FB054695
S31508018780F868FEF749FB03461A46294620460EF0C5
S31508018790EFF900BF1037BD46B0BD00BF80B582B046
S315080187A000AF78607B6801221A76FFF72BFB7B689E
S315080187B09B6818460EF042FCFFF72CFB00BF0837F2
S315080187C0BD4680BD80B582B000AF7860786800F09C
S315080187D005F87B6818460837BD4680BD80B582B066
S315080187E000AF78607B6804331846FEF735FB02460E
S315080187F07B681A6000BF0837BD4680BD80B584B066
S3150801880000AF7860396007F108033A687968184655
S3150801881000F0C4FF07F10803184600F0D9FF034624
S3150801882018461037BD4680BD90B585B000AFF860D3
S31508018830B9607A60F86800F0E9FF0446B86800F0A4
S31508018840E5FF03467A681946204600F0EBFF034622
S3150801885018461437BD4690BD90B585B000AFF8608F
S31508018860B9607A60F86800F0D1FF0446B86800F08C
S31508018870CDFF03467A681946204600F0EFFF034606
S3150801888018461437BD4690BDB0B584B000AF7860C0
S3150801889039607C683B1D184600F0FCFF2A4639689A
S315080188A0204601F001F8034618461037BD46B0BD0B
S315080188B080B582B000AF78607B6816331846FEF73C
S315080188C049FC7B6818460837BD4680BDF0B583B0BC
S315080188D000AF786078687B6803F118017B6803F15B
S315080188E0D0020A2300F0F0FF7B681833184601F01E
S315080188F005F87B6803F1D00509242E46B4F1FF3F3C
S3150801890005D0304601F018F80836013CF6E77B68D1
S31508018910184601F029F87B6828E0002D1BD0C4F120
S315080189200903DB00EC18AC4215D0083C204601F0DF
S315080189300FF8F8E77B68D033002B0CD07B68D0336F
S3150801894003F150047B68D0339C4204D0083C20468E
S3150801895000F0FEFFF6E77B681833184600F0E0FFE3
S315080189607B681846FFF7A4FF11F08EFA18460C37F4
S31508018970BD46F0BD90B583B000AF78607B681846F8
S3150801898000F0F2FF7B68D033002B0CD07B68D03324
S3150801899003F150047B68D0339C4204D0083C20463E
S315080189A000F0D6FFF6E77B681833184600F0B8FFE3
S315080189B07B681846FFF77CFF7B6818460C37BD466F
S315080189C090BD00BF80B485B000AFF860B9607A6029
S315080189D0FB68BA6892E8030083E803007B681A68B3
